:020000040800F2
:10000000B015012099040008D9E70008E1B90008FB
:10001000D1E7000839210008C127010800000000CD
:1000200000000000000000000000000051F0000887
:10003000912600080000000041EC000881F0000853
:10004000B3040008B3040008B3040008B3040008B4
:10005000B3040008B3040008B3040008B3040008A4
:10006000B3040008B3040008B3040008F121000839
:100070000122000811220008212200083122000874
:100080004122000851220008B3040008C1260008DC
:10009000E1260008D1260008F1260008B304000874
:1000A000B3040008B3040008B3040008B304000854
:1000B000B3040008B3040008B3040008B304000844
:1000C000B3040008B3040008B3040008B304000834
:1000D000E9EE000869030108B30400087903010888
:1000E00099260008B304000800000000B3040008CB
:1000F000B3040008B3040008B30400086122000838
:10010000B3040008B3040008B3040008B3040008F3
:10011000B3040008A9F30008B3040008B3040008FE
:1001200071220008B3040008B3040008B3040008F7
:10013000B3040008B3040008B3040008B3040008C3
:1001400000000000000000000000000000000000AF
:10015000B3040008B3040008B3040008B3040008A3
:10016000B3040008B3040008B3040008B304000893
:10017000B304000829EC0008B304000800000000E4
:10018000B3040008B3040008B3040008B304000873
:10019000B3040008B3040008F9EE0008B304000833
:1001A000B3040008B3040008B30400080000000012
:1001B000B3040008B3040008B3040008B304000843
:1001C000B3040008B30400080000000000000000B1
:1001D0000000000000000000B30400080000000060
:1001E000000000000000000000000000000000000F
:1001F0000000000000000000B3040008B304000881
:10020000B3040008B304000800000000B3040008B1
:10021000B3040008B304000831F20008B304000876
:10022000B304000800000000B30400080000000050
:10023000B3040008B304000800000000B304000881
:10024000B3040008411E0008B3040008B30400080A
:10025000B3040008B3040008B3040008B3040008A2
:10026000B3040008B3040008B3040008B304000892
:10027000B3040008B3040008B30400080000000041
:10028000B3040008B3040008B3040008B304000872
:1002900000000000B3040008B304000800000000E0
:1002A00000000000B3040008B3040008B304000811
:1002B00051030108B3040008B30400080127000833
:1002C00011270008B3040008B304000800F002F886
:1002D00000F0D3F814A696E8000CB244B344DA4513
:1002E00001D100F0CAF8BAE80F000FA696E8300076
:1002F000A5EB040504EB0607AAEB0704A7F1010729
:100300004FEA15154FEA3414A4F10104AC4201D3AD
:1003100000F0B3F813F0010F18BFFB1A43F001030C
:1003200000F001F8DBE718474C2E02009C2E02007B
:100330000A444FF0000C10F8013B13F0070408BF0B
:1003400010F8014B1D1108BF10F8015B641E05D0A9
:1003500010F8016B641E01F8016BF9D113F0080F5E
:100360001EBF10F8014BAD1C0C1B09D16D1E58BFF0
:1003700001F801CBFAD505E014F8016B01F8016B27
:100380006D1EF9D59142D6D370470000704700002A
:100390000023002400250026103A28BF78C1FBD88E
:1003A000520728BF30C148BF0B6070476E2900F06C
:1003B0005785702900F02782662921F0028465297B
:1003C00021F0FF83672921F0FC83612921F0FB8361
:1003D00003681B0A28BF41F08001692900F0988159
:1003E000642900F09581752900F092816F2900F051
:1003F0004586782900F0F381E92900F0DF85E429BA
:1004000000F0DC85F52900F0D985EF2900F042865F
:10041000F82900F0F2810368DB0928BF41F0800170
:10042000632900F06085732900F06585E32901F0F8
:100430009582F32901F09A82002070471FB521F0C0
:100440006AFB9DE8030000F079FE01F033FB040035
:100450000020002120F0F2FC401C60600020002100
:1004600020F0D6FCE06001F0E7FA00F017FC1FBDB9
:1004700010B5002001F0AEFA10BD01F0EDFA114602
:10048000FFF7DCFF1AF0B4F901F0E4FB03B4FFF767
:10049000EFFF03BC01F0D6FA09488047094800473E
:1004A000FEE7FEE7FEE7FEE7FEE7FEE7FEE7FEE724
:1004B000FEE7FEE704480549054A064B7047000081
:1004C00081F10008CD020008B0030120B015012021
:1004D000B0050120B005012053EA020C00F069804C
:1004E0002DE9F04B4FF00006002B1FBFB3FA83F548
:1004F00003FA05F424FA05F65E4012BF1643B2FA79
:1005000082F502FA05F4C5F120051EBF22FA05FCAA
:1005100044EA0C04203556EA044C4FEA144418BF50
:10052000641C4FF000084FF00009904271EB030C7F
:1005300039D3002919BFB1FA81F701FA07F6B0FAE9
:1005400080F700FA07F6C7F120071EBF20FA07FC64
:1005500046EA0C062037B6FBF4FCA7EB0507103F74
:1005600007F01F0BCBF120062CFA06F60CFA0BFB5A
:1005700044BFB3460026202FA4BF5E464FF0000BB9
:100580005BEA060C08BF4FF0010B19EB0B0948EBB7
:100590000608ABFB027C06FB02CC0BFB03CCC01BAA
:1005A00071EB0C01C1E70B46024641464846BDE8E7
:1005B000F08B13B5084318BF4FF0FF300146AFF37F
:1005C0000080BDE81C4070477CB51D4616460C00F7
:1005D000009007D04142A14202D32044401E01E0D6
:1005E0004FF0FF30064B7B442A4669460190304667
:1005F00000F04FFC002C02D0009A002111707CBD4D
:10060000D90800000FB41CB5084B06AA7B44694604
:100610000090059800F03DFC04460020694600F07B
:100620004BFC20461CBC5DF814FB0000A908000030
:100630000FB41CB50C0007AA009007D04142A1429C
:1006400002D32044401E01E04FF0FF30074B7B44B3
:1006500069460190069800F01CFC0021002C01D096
:10066000009A11701CBC5DF814FB000071080000BA
:1006700070B5044685690068C10601D5302600E0E2
:100680002026C00707D070BDD4E90121304690472D
:10069000206A401C20626D1EF6D570BD70B5044600
:1006A00085690078C00707D170BDD4E901212020F9
:1006B0009047206A401C20626D1EF6D570BD70B553
:1006C0000C460546012A05D02878800600D5EA693F
:1006D000002302E0012305E05B1C934202D2E05CB0
:1006E0000028F9D1A869E618C01AA861286A184438
:1006F00028622846FFF7BCFF04E0D5E9012114F881
:10070000010B9047B442F8D32846FFF7C7FF70BDEE
:100710002DE9F0410646002410687529314616A5DA
:1007200010D000F032FB002802DA404213A507E0A7
:1007300031688A0701D512A502E0490704D511A541
:10074000012401E000F02AFB00210A2206F124071F
:1007500009E0B0FBF2FCB0FBF2F302FB1C0030300E
:1007600078541846491C0028F3D123462A463046BF
:10077000BDE8F04100F01BBB000000002D000000B0
:100780002B00000020000000F0B40D460188090590
:1007900002D5214C7C4402E01F4C7C440E340021E5
:1007A00000F1240608E002F00F071209E75D42EAB3
:1007B00003721B097754491C52EA0307F3D10278EC
:1007C0000023120704D5702D06D009B1022311347D
:1007D0002246F0BC00F0EBBA01231034F8E770B504
:1007E00004460D462146106800F0D8FA0246294614
:1007F0002046BDE870400023C6E7D21D22F0070363
:10080000D3E90023C0E70368126843F020030360C4
:100810000823C3610023B7E7321402002DE9F05F1B
:10082000894604464FF0000ADFF874B1FB44C0F873
:1008300020A02046E1688847002874D0252806D0EB
:10084000D4E901219047206A401C2062F1E700268C
:100850005F462046E16888472028054607DB312DA2
:1008600005D2781910F8200C08B10643F1E7B0075B
:1008700001D526F00406C4F81CA00027C4F818A06F
:100880002A2D09D0284620F09DFA38B304EB8708BA
:10089000303DC8F8185019E059F8041B204604EB05
:1008A00087029161E1688847012F054618D1E06908
:1008B000002820DA26F020061DE0D8F8180000EB0A
:1008C000800005EB40003038C8F818002046E16889
:1008D0008847054620F076FA0028EED1012F0AD08D
:1008E0002E2D08D12046E16888477F1C0546022F3F
:1008F00046F02006C4DBA069002803DA404246F037
:100900000106A061F00701D026F010066C2D0BD077
:10091000682D09D04C2D39D06A2D35D0742D35D0A5
:100920007A2D33D016E038E0E1682F46204688471C
:10093000B842054609D16C2F26D04FF48060E1689B
:10094000064320468847054604E06C2F1AD04FF432
:10095000807006430DB3A5F14100192802D8203557
:1009600046F400664A462946204626604E46FFF772
:100970001DFD80B101280BD0F61D26F0070000F107
:10098000080956E74020E4E78020D8E70020D6E7B2
:1009900006F104094DE7284652E7206ABDE8F09FBA
:1009A000C21302000B460146184600F07DBB10B58D
:1009B000431C02E010F8011B71B18107FAD14FF01E
:1009C000013202C88C1A8C4314EAC211F9D0C01A41
:1009D0000A0603D0C01E10BDC01A10BD0A0401D003
:1009E000801E10BD0902FCD0401E10BD40EA01036C
:1009F00070B59B072ED14FF00136042A2AD308C8C0
:100A000010C99D1B9D43121F15EAC61517D0D8B2F9
:100A1000E1B2401A50EA056110D198B2A1B2401A71
:100A200050EA05410AD123F07F4024F07F41401A6B
:100A300050EA052102D1180EA0EB146070BDA3424C
:100A4000DBD018BA21BA884201D9012070BD4FF01D
:100A5000FF3070BD0AB9002070BD10F8013B11F8DD
:100A6000014B63B1A3420AD1521E08D010F8013BDA
:100A700011F8014B1BB1A34201D1521EEDD1181B3D
:100A800070BD032A40F2308010F0030C00F0158096
:100A900011F8013BBCF1020F624498BF11F801CB81
:100AA00000F8013B38BF11F8013BA2F1040298BFE6
:100AB00000F801CB38BF00F8013B11F0030300F050
:100AC0002580083AC0F0088051F8043B083A51F8F4
:100AD00004CBA0E80810F5E7121D5CBF51F8043BF9
:100AE00040F8043BAFF30080D20724BF11F8013B6C
:100AF00011F801CB48BF11F8012B24BF00F8013BCE
:100B000000F801CB48BF00F8012B704710B5203A20
:100B1000C0F00B80B1E81850A0E81850B1E81850A8
:100B2000A0E81850203ABFF4F5AF5FEA027C24BF7A
:100B3000B1E81850A0E8185044BF18C918C0BDE863
:100B400010405FEA827C24BF51F8043B40F8043B2C
:100B500008BF7047D20728BF31F8023B48BF11F8E1
:100B6000012B28BF20F8023B48BF00F8012B70473B
:100B700002F0FF0343EA032242EA024200F024B8F3
:100B80004FF000020429C0F0128010F0030C00F0B6
:100B90001B80CCF1040CBCF1020F18BF00F8012B34
:100BA000A8BF20F8022BA1EB0C0100F00DB85FEA02
:100BB000C17C24BF00F8012B00F8012B48BF00F8CE
:100BC000012B70474FF0000200B51346944696463D
:100BD000203922BFA0E80C50A0E80C50B1F1200150
:100BE000BFF4F7AF090728BFA0E80C5048BF0CC0FE
:100BF0005DF804EB890028BF40F8042B08BF70475C
:100C000048BF20F8022B11F0804F18BF00F8012BCD
:100C1000704700000000000030B44FF0013C50F875
:100C2000042BCCFA52F451F8043BD51A20D1FCB96C
:100C300050F8042BCCFA52F451F8043BD51A17D1D2
:100C4000B4B950F8042BCCFA52F451F8043BD51A3D
:100C50000ED16CB950F8042BCCFA52F451F8043B85
:100C6000D51A05D1002CDAD030BC4FF00000704707
:100C700029BAB1FA81F111F01801D1F120008440B4
:100C8000F2D1CA40CB4012F0FF0213F0FF0330BC98
:100C9000D01A7047704770477047000008487CB50D
:100CA0007844009007487844009C0546019004E091
:100CB0002046016808448047241DAC42F8D17CBD21
:100CC000CC270200CA27020070B5064600F012FACF
:100CD000056806F10B0020F00704B4429CBF002019
:100CE00070BD2B466A68BAB11068A04210D304F1F7
:100CF000080188423CBF5068586007D351681019FA
:100D000041601168091B016058601460101D70BDBE
:100D100013465268002AE7D12146284600F0FAF926
:100D20000028DED170BD70B50446051F00F0E2F961
:100D30000068002C14BF446870BD002C18BFAC4282
:100D40003CBF20466468F8D301680A18AA4218BF5D
:100D5000456003D12A68054611440160286841199D
:100D6000A1421CBF6C6070BD616869602168084465
:100D7000286070BD10B500F0C5F9006810BD10B551
:100D8000044600F0BFF9046010BD09684A0501D5AA
:100D900040B27047C905FCD500B2704709684A05E2
:100DA00001D5C0B27047C905FCD580B270472DE9A6
:100DB000F0470D4699469246044600F12408016822
:100DC000880604D5E06921F01001216000E00120CF
:100DD000A84201DD471B00E00027A1697A1902EB58
:100DE0000900081AA0612078C00602D42046FFF747
:100DF0003FFC002608E0D4E901211AF806009047DC
:100E0000206A401C761C20624E45F4DB2078C00628
:100E10000AD52046FFF72CFC06E0D4E9012130205A
:100E20009047206A401C2062381EA7F10107F4DCBD
:100E300007E0D4E9012118F805009047206A401C1A
:100E40002062281EA5F10105F3DC2046FFF726FCF1
:100E50002078000602D50220BDE8F0870120FBE7DC
:100E600011680268006A530501D508700AE0D305CD
:100E700001D5088006E0130603D5C217C1E90002B8
:100E800000E008600120704701694A1C026108788F
:100E9000704700B58FB0CDE90131002105910549BA
:100EA0007944CDE9031011466846FFF7B7FC0FB04F
:100EB00000BD0000E5FFFFFF0A6802F8010B0A60B1
:100EC0007047D1E900239A4202D2531C0B60107084
:100ED000704710B5436913B1AFF3008001E0FFF72D
:100EE000EEFB012010BD127800F124010A700022EF
:100EF0004A700122EDE711684FF0FF32E9E7000088
:100F00002DE9FF5F15468A460446DFF8AC80F844B9
:100F10000027D8E900103E46CDE9001010E03AF86D
:100F200016106A4602A800F025FD411C07D0217862
:100F3000890603D5E269391891420DD80744761C19
:100F40002078800602D5E069B84205DDAE42E6DBD6
:100F50003AF816000028E2D1A069C01BA061204623
:100F6000FFF786FBD8E90010CDE90010002017E05C
:100F70003AF818106A4602A800F0FCFCB0F1FF3FF6
:100F800081460BD000250DF1080B05E0D4E90121C5
:100F90001BF8050090476D1C4D45F7D308F1010083
:100FA000B0428046E4DB206A384420622046FFF7E6
:100FB00075FBBDE8FF9F0000F20C02002DE9F04137
:100FC0008046D21D22F007020025D2E90002F52951
:100FD00015A614D0011E72F1000106DA0023D0EB31
:100FE000030063EB020211A608E0D8F800108B079B
:100FF00001D50FA602E0490701D50EA6012511462D
:10100000002408F1240704E000F0CDF830323A550E
:10101000641C50EA0102F7D12B4632462146404675
:10102000BDE8F041FFF7C3BE000000002D00000046
:101030002B0000002000000030B4002100F1240447
:1010400008E002F00705D208303542EA4372DB08B7
:101050006554491C52EA0305F3D10468002310A229
:10106000250708D504F020040C4304D0C4690123EB
:101070000CA2641EC46130BCFFF799BE10B50446D3
:1010800021461068FFF78AFE02462046BDE8104060
:101090000023D1E7D21D22F00701D1E90023CBE7DD
:1010A00000000000300000002DE9F0410746154621
:1010B0000E461020FFF708FE040013D06760C4E955
:1010C00002650948AFF3008000F018F8016821605C
:1010D00006490460002008600348AFF30080002048
:1010E000BDE8F0810120FBE70C2000200820002053
:1010F0000020704700487047C82100200048704712
:10110000F821002000487047C02100207047704738
:101110007047704738B504460A4600206946AFF369
:101120000080002808BF38BD02460099204600F024
:10113000C5FC012038BD012000F09CBDF8B5AFF31F
:101140000080054600200C460C2000BF0646A8196A
:10115000A0420DD9324669460020AFF30080070057
:1011600008BF00F087FD0098A04218BF0546C419CB
:10117000FFF7C0FF05600746F01D20F00700461985
:10118000284600F00AF8B44208BFF8BDA21B314659
:101190003868BDE8F84000F091BC00210160416072
:1011A00070470C20704730B5B0F10A0271F10003AE
:1011B0004FEA900E4EEA817EB0EB0E0061EB91019A
:1011C0004FEA101E4EEA017E10EB0E0041EB1111AA
:1011D0004FEA102E4EEA016E10EB0E0041EB11218A
:1011E0004FEA104E4EEA014E10EB0E0041EB11415A
:1011F000401841F100014FEAD00040EA41704FEA47
:10120000D1014FEA810444EA907410EB800544EB6D
:1012100001046D1944EB0404521BA3414FF0000379
:1012200048BF0A3200D530BD401C41F1000130BD3D
:101230002DE9FF4F0C461E464FF0FF378BB0D2E929
:101240000001DDF860800A908A46C1F30A5505B9AD
:101250003D46002108464FF00000BAF1000F00F4AF
:10126000400005DA00EB80004FF4400101EA500035
:101270004FEA9059B9F1010F00DDB9460A9850EADA
:101280004A000ED044F61050A5F2FF3545432F1406
:10129000B8F1000F1ED07542291E1EDDC9F10002F3
:1012A0001CE0B8F1010F4FF0000001D0302103E045
:1012B000F24305E02154401CB042FBDB30460022E3
:1012C000002121540B99C1F80880C1E900200FB01A
:1012D000BDE8F08FBD1B6D1CDEE74A4600DA6942AF
:1012E00006A800F045FC06AB93E8070003AB83E8D3
:1012F000070050460A991EF019FC8DE80700A0F57A
:1013000000501F3800900398002D0ADD42F21F01A3
:101310004A460844002303A9039068461EF082FE53
:1013200009E0A0F500504A461F38002303A90390A6
:1013300068461EF08CFE8DE807000004000C03D008
:101340004FF0FF30410800E01046B8F1000F03D025
:101350000022009215461EE0751E05D4FFF723FFFC
:10136000303262556D1EF9D5B3460122084302D0D2
:1013700000227F1C04E02078302801D100227F1E4B
:10138000002A099784D01DE0112D07DAFFF70BFF23
:10139000303262556D1C50EA0102F5D1084302D08B
:1013A0000098C8B10EE00021681E05E0235C625C75
:1013B00063542254401E491C8142F7DBAB46A81BF4
:1013C000401E0990002004F80B000B98099AC0F801
:1013D0000880C0E9002B7AE711264FF0000857E794
:1013E0002DE9F04F88460446D21D22F0070191B046
:1013F000D1E90001CDE90A011EF060FF02460B9819
:10140000C00F01D02D2007E02068810701D52B20D7
:1014100002E0202101EAC000032A099001D0072A36
:1014200005DB03464146204600F062FB0BE12078D5
:10143000800601D5E06900E00620B8F1650F81461D
:1014400006D0B8F1660F18D0B8F1670F70D131E04F
:101450000020B9F1110F009001DB112301E009F127
:1014600001030AAA01A90CA8FFF7E2FEDDE90C704E
:10147000002609F10105834647E001204B46009014
:101480004FF000470AAA01A90CA8FFF7D1FEDDE939
:101490000DB00C995D46002610B909F101000D1838
:1014A000B9EB050003D4C0F1FF3609F10105A5EB46
:1014B00009002BE0B9F1010F01DA4FF0010900201A
:1014C000B9F1110F0090484601DD112300E00346F9
:1014D0000AAA01A90CA8FFF7ABFEDDE90C704D4686
:1014E00000268346207800070AD4AB4500DA5D4623
:1014F00001A8012D04DD411911F8011C302907D084
:101500004F4502DA17F1040F04DA012082460FE09A
:101510006D1EEEE7002F02DCED1B3E4403E0781C5D
:10152000A84200DD7D1CB81B00F1010A4FF0004706
:101530002078000703D4AA4501DB4FF0FF3A0021D1
:10154000B7F1004F0DF143088DF8431024D002206D
:101550002B23002F01DA7F422D230A21021EA0F146
:10156000010000DC5FB197FBF1FC97FBF1F201FB9E
:101570001C7C17460CF1300C08F801CDEEE7A8F101
:10158000010003702188090501D5452100E065218E
:10159000A0F1010800F8011C09980FA9A1EB0807A8
:1015A000FF1D00B10120411901EBEA70A169384427
:1015B000081A401EA0612078C00602D42046FFF71A
:1015C00057F8099828B1D4E901219047206A401CB6
:1015D00020622078C00622D52046FFF749F81EE099
:1015E000002E04DBB34502DD01A8805D00E0302061
:1015F000D4E901219047206A401C2062761CAAF1A0
:1016000001005FEA000A0AD100F054FAC0680168DC
:10161000405CD4E901219047206A401C2062281ECA
:10162000A5F10105DCDC07E0D4E9012118F8010B84
:101630009047206A401C2062381EA7F10107F3DCA6
:101640002046FFF72BF8032011B041E62DE9F04FBB
:1016500004460D46D21D22F0070089B0D0E900975C
:10166000484639461EF02AFE0246F80F01D02D23C7
:1016700007E02068810701D52B2302E0202101EA41
:10168000C0038DF820300BB1012000E00020032AB8
:10169000824601D0072A04DB2946204600F028FABA
:1016A0003FE12078800601D40D2500E0E569C7F30D
:1016B0000A560D2D49DA00214FEA175B08464FF014
:1016C0000000002F00F4400007DA00EB80004FF428
:1016D000400100EBD07001EA60008115012901DDB5
:1016E0004FF0FF3100224FEA850CBCF1180F06D3F2
:1016F0001346ACF118004FF08052C24003E04FF4A3
:10170000801323FA0CF30CF10C0CBCF1200F04D362
:10171000ACF1200C09FA0CF001E007FA0CF00029FA
:101720004FF0004801DD18B90FE00ED140450CD351
:1017300019EB02095F4121B9404502D19F4329EAD3
:101740000209BBEB175F00D0761C2088000502D58C
:101750007B48784402E07A487844193808AA302354
:1017600002F80A30037C0AF10101002E0AF1020A94
:1017700053546A4602DC4FF0300101E04FF0310172
:101780004FF001088DF8001002D0A6F2FF3603E0FA
:1017900059EA470100D06B4E002D02DC2178090781
:1017A00004D54FF002082E218DF80110C446002107
:1017B0000BE0C7F303433F01C35C491C6D1E02F8F5
:1017C0000830052908F1010801DA002DF1DC0021BB
:1017D0000CE000EB1973491C1B786D1E082902F8F8
:1017E00008304FEA091908F1010801DA002DF0DC90
:1017F00021688B0602D516E0A8F10108E04505DD59
:1018000002EB080313F8013C302BF5D0B8F1000FC0
:1018100009DD02EB080313F8013C2E2B03D1090765
:1018200001D4A8F10108002D05DD3E2102F80810C1
:101830006D1E08F10108407C002E02F8080008F136
:10184000010804DA2D20764202F8080002E02B207D
:1018500002F808000A214FF47A70864208F1010864
:101860000BDB96FBF0F3303302F8083096FBF0F315
:1018700008F1010800FB136601E0642E0CDB642014
:1018800096FBF0F3303302F8083096FBF0F308F1E2
:10189000010800FB136601E00A2E06DB96FBF1F05F
:1018A000303002F8080008F1010896FBF1F001FB66
:1018B0001060303002F80800A16908F1010808EB57
:1018C000050202EB0A00081AA0612078C00602D4C3
:1018D0002046FEF7CDFE216A08AE01EB0A00206229
:1018E00004E0D4E9012116F8010B9047BAF1010A8E
:1018F000F7D22078C00602D52046FEF7B9FE6E4624
:1019000009E016F8010B3E280FD0D4E901219047D9
:10191000206A401C2062B8F10108F2D22046FEF78E
:10192000BDFE09B00320BDE8F08F206A2844206284
:1019300003E0D4E90121302090476D1EEBD3F8E796
:10194000E904020002FCFFFF10B5436913B1AFF3D5
:10195000008001E0FFF7D4FA012010BD128800F1E9
:10196000240182840022C2840122EDE711684FF035
:10197000FF32E9E72DE9F04116460C46054600F036
:1019800091F8036893F80101012807D0FF2C12D8C1
:10199000185D80B101202C70BDE8F081D3F80701FB
:1019A0003246214603F20713C7182846BC46BDE855
:1019B000F041002360474FF0FF30EDE710B5002005
:1019C00000F051F9FEF754FDBDE81040012000F091
:1019D00039B800002DE9F84306461548AFF30080FA
:1019E000FFF78CFB134F8146E8464D4616E026B1C3
:1019F000E068B04201D0254610E0206828600C481D
:101A0000C7F80080AFF30080D4E901018847084897
:101A1000AFF300803968414500D04D462C68002C5A
:101A2000E5D1002038600248AFF30080BDE8F883BC
:101A30000C200020082000200148FFF759BB0000BF
:101A40000C20002001491820ABBEFEE72600020052
:101A500000487047C02100207546FFF7F9FFAE46E9
:101A600005006946534620F00700854618B020B5AA
:101A7000FEF720FDBDE820404FF000064FF00007C4
:101A80004FF000084FF0000BAC46ACE8C009ACE8E2
:101A9000C009ACE8C009ACE8C00921F007018D46D7
:101AA0007047000010B500F005F8001D10BD00BF24
:101AB0008DF3010000487047E02100200346406894
:101AC0008C46002818BF88423CBF03464068F8D3C4
:101AD00018681844884207D00CF1030020F0070072
:101AE000001D411A521A0146081D0A60FFF71BB972
:101AF0002DE9F0411F46044603260168072A01F438
:101B0000006004DB08B116A505E016A503E008B1E6
:101B100015A500E015A521F010002060A069C01EE9
:101B2000A0610FB1401EA0612046FEF7A1FD4FB19C
:101B3000D4E9012138469047206A401C2062C01C2D
:101B4000206206E0206AFAE7D4E9012115F8010BCA
:101B50009047761EF8D22046FEF7A0FDBDE8F08142
:101B60004E414E006E616E00494E4600696E660041
:101B70002DE9F047814616468AB0354878440DC8AD
:101B80008DE80D0032487844801C03AC0DC884E811
:101B90000D0041F69B300844372190FBF1F290FB99
:101BA000F1F5A5F1800501FB12041B3C02D564424E
:101BB000012000E00020DFF898A080460027FA44CA
:101BC000AAF1BE0A0EE0E0070AD03246684607EBEB
:101BD000470101230AEB81011EF039FA8DE8070065
:101BE00064107F1C002CEED1194F7F44AE3F19E0EA
:101BF000E80715D007EB04100DF1180A90E80E0065
:101C00008AE80E00C068F04201D198190890324667
:101C1000012306A903A81EF01AFA03AB83E8070004
:101C20006D10641C002DE3D14FF00103324669466C
:101C3000B8F1000F03A802D01EF0F4F901E01EF085
:101C400006FAC9E90001C9F808200AB0BDE8F08722
:101C50005001020010B50446AFF300802046BDE8F5
:101C60001040FEF713BC10B500F012F8BDE81040AC
:101C700000F008B810B500F023F8BDE8104000F0FF
:101C800001B87047002801D0FFF7DCBE70470000A4
:101C900010B5002102A000F03BF8012010BD0000AB
:101CA000534947414252543A2041626E6F726D610E
:101CB0006C207465726D696E6174696F6E000000EE
:101CC00010B5012805D0002103A000F021F8012063
:101CD00010BD09A1F8E7000053494752544D454D46
:101CE0003A204F7574206F662068656170206D65BD
:101CF0006D6F7279000000003A2048656170206DB8
:101D0000656D6F727920636F7272757074656400AF
:101D100070B505460C460A2000E06D1C00F011F875
:101D200035B128780028F8D102E0641C00F009F8E9
:101D300014B120780028F8D1BDE870400A20AFF334
:101D4000008008B569468DF800000320ABBE08BDD1
:101D500010B50446006842F2001140F48070C4F2ED
:101D60000201884204D142F20830C4F2020003E0CA
:101D700046F20830C5F60200006810F4403F0FD06C
:101D800006F0BAFF6168B1F5803F05D0B1F5403F7C
:101D900021D0B1F5003F1FD1090CB0FBF1F01BE0E1
:101DA0004FF40020002106F007F86168A1F58022B9
:101DB0004FEAB2420A2A0FD8DFE802F0060606060A
:101DC00006063C3A40383E006FF0010202EA5141FB
:101DD000B0FBF1F000E080084BF62141C0F2BE01FB
:101DE000884205D82068816821F44071816010BD67
:101DF00047F64101C0F27D11884206D820680122D1
:101E0000816862F30921816010BD21684FF281026F
:101E1000C0F2FA229042886804D8022262F30920B4
:101E2000886010BD40F44070886010BDC009D3E7E1
:101E30004009D1E70009CFE7000ACDE78009CBE7E9
:101E400044F29020C2F2000001F092BC00000000B9
:101E500040F600000121C5F60200012203F098BE01
:101E600040F600000121C5F60200002203F090BEFA
:101E7000704700000000000040F600000821C5F691
:101E80000200012203F084BE40F600000821C5F6DE
:101E90000200002203F07CBE70470000000000003A
:101EA000002808BF704710B54EF2180145F2003CFB
:101EB000CEF20001C0F2070C03E000BF01380204BB
:101EC0001AD051F804EC0B68002208E01A449C4236
:101ED000A2EB0402234628BF72446245EED20C688E
:101EE0009C42F3D10C689C4204BF0C689C42EDD12B
:101EF0000C689C42F3D0E9E7BDE810407047000051
:101F000080B54EF21801C0EB0010CEF200014FEA8E
:101F1000401E002351F804CC0A6808E013449042A4
:101F2000A3EB0003024628BF634473450CD2086844
:101F30009042F3D10868904204BF08689042EDD106
:101F400008689042F3D0E9E780BD0000000000007F
:101F500010B5FFF78DFFFFF79FFF18F0B9F80446A3
:101F600018F042F9204310BD2DE9F04F81B00092E6
:101F70000E468146FFF774FF922000F0C5F89220CC
:101F800000F0C2F8552000F0BFF88046552000F060
:101F9000BBF88346552000F0B7F88246552000F084
:101FA000B3F80446552000F0AFF80746552000F07E
:101FB000ABF80546FFF74CFF48EA0B2000B24AEAAF
:101FC000042109B200EE100A42F21000C2F2000031
:101FD000B8EEC00A90ED001A21EE000A01EE101AC8
:101FE00047EA052186ED000A09B290ED002A00EECD
:101FF000101AB8EEC11AB8EEC00A22EE011A86ED28
:10200000011A22EE000A86ED020AFFF73DFF80204A
:1020100000F07AF8552000F077F80646552000F0D9
:1020200073F8552000F070F88246552000F06CF8E7
:102030000546552000F068F88346552000F064F806
:102040000446552000F060F80746552000F05CF883
:102050008046FFF711FF0F2E28D14AEA052000B273
:102060004BEA042109B200EE100A42F21400C2F257
:102070000000B8EEC00A90ED001A21EE000A01EE51
:10208000101A47EA082189ED000A09B290ED002AEA
:1020900000EE101AB8EEC11AB8EEC00A22EE011A0C
:1020A00089ED011A22EE000A89ED020AFFF7D8FE37
:1020B000A22000F029F8A22000F026F8552000F018
:1020C00023F846B20446552000F01EF80546FFF7F7
:1020D000BFFEE0004FF6000140EA5510CFF6FF7159
:1020E000002EB4EE001A48BF0843B3EE072A00EEF4
:1020F000100A0098B8EEC00AA0EE012A80ED002A6E
:1021000001B0BDE8F08F000080B582B08DF8070007
:1021100044F67050C2F200000DF107010DF1060205
:1021200001234FF47A7CCDF800C007F0D1FC9DF874
:10213000060002B080BD0000FEE7000000000000C5
:1021400000207047000000000020704700000000E1
:1021500010B543F6546443F22011C2F20004C2F2F7
:102160000001002220460EF0DFFA42F62011204640
:10217000C2F200010EF0C8FA002010BD00000000FD
:10218000704700000000000070B543F65466054635
:10219000C2F200060C46304629460EF0B5FA30462B
:1021A0000EF08EFA28462146FFF7EAFF002070BDA8
:1021B000002070470000000043F65462C2F20002A3
:1021C000D2F8BC22D2F81422002A1CBF012070478A
:1021D00010B543F654640A46C2F200040146204694
:1021E0000EF0A2FA2046BDE810400EF015BB00002C
:1021F00044F2A010C2F2000001F0BABA00000000E0
:1022000044F21820C2F2000001F0B2BA000000004F
:1022100044F28030C2F2000001F0AABA00000000CF
:1022200044F20830C2F2000001F0A2BA000000003F
:1022300044F27040C2F2000001F09ABA00000000BF
:1022400044F2E840C2F2000001F092BA000000003F
:1022500044F2F830C2F2000001F08ABA0000000037
:1022600044F26050C2F2000001F082BA00000000A7
:1022700044F2D850C2F2000001F07ABA0000000027
:1022800040F20F42D0F800C0C4F20202944510DCC4
:102290006F22C4F20202944520DC3F22C4F2020203
:1022A000944536DC1022C4F20202944554D0282210
:1022B0004EE040F26F42C4F2020294451ADC40F252
:1022C0003F42C4F2020294452ADC40F21042C4F2BA
:1022D0000202944540D040F2284239E09F22C4F2E5
:1022E0000202944525DC7022C4F20202944533D0E8
:1022F00088222DE040F29F42C4F2020294451FDC86
:1023000040F27042C4F20202944525D040F2884265
:102310001EE04022C4F2020294451DD0582217E06C
:1023200040F24042C4F20202944515D040F25842B5
:102330000EE0A022C4F2020294450DD0B82207E0BC
:1023400040F2B842C4F20202944505D040F2A042E5
:10235000C4F20202944517D10CF0F8024AF6AB23FE
:10236000103ACAF6AA23A2FB033109A35F2AC1F3DC
:1023700002115B5C40F2FF312CEA0101C36588BFAA
:1023800004318165084670472CF0FF01F9E700BF72
:10239000000610160006101670B540F26F44D0F813
:1023A00000C0C4F20204D0F858E0A44519DC9F250F
:1023B000C4F20205AC4531DC5725C4F20205AC4538
:1023C00056DC1025C4F20205AC4500F092802825A9
:1023D000C4F20205AC4500F08C804025C4F2020531
:1023E00084E045F22F45C5F60205AC452BDC40F2F2
:1023F000B745C4F20205AC4548DC40F27045C4F272
:102400000205AC4575D040F28845C4F20205AC45E2
:102410006FD040F2A045C4F2020567E040F22745C4
:10242000C4F20205AC4540DCA025C4F20205AC456F
:102430005FD0B825C4F20205AC455AD040F2104531
:10244000C4F2020552E045F26B45C5F60205AC4503
:102450003CDC45F23045C5F60205AC4549D045F2B5
:102460004445C5F60205AC4543D045F258453BE02E
:102470005825C4F20205AC453BD07025C4F20205D4
:10248000AC4536D08825C4F202052FE040F2B845AD
:10249000C4F20205AC452CD045F20845C5F602054C
:1024A000AC4526D045F21C451EE040F22845C4F25A
:1024B0000205AC451DD040F24045C4F20205AC45D2
:1024C00017D040F25845C4F202050FE045F26C45C2
:1024D000C5F60205AC450CD045F29445C5F602059B
:1024E000AC4506D045F28045C5F60205AC4540F046
:1024F000CC80456EC66E002E866E6E601CBFD0E925
:102500001C566E60A44515DC9F24C4F20204A44549
:102510002BDC5724C4F20204A4454EDC1024C4F280
:102520000204A44576D02824C4F20204A44571D044
:1025300040246BE045F22F44C5F60204A44527DC95
:1025400040F2B744C4F20204A44542DC40F27044B5
:10255000C4F20204A4455DD040F28844C4F20204EF
:10256000A44557D040F2A04450E040F22744C4F2C2
:102570000204A4453CDCA024C4F20204A44549D0D2
:10258000B824C4F20204A44544D040F210443DE013
:1025900045F26B44C5F60204A44553DC45F23044D1
:1025A000C5F60204A4455FD045F24444C5F60204D2
:1025B000A44559D045F2584452E05824C4F20204CC
:1025C000A44527D07024C4F20204A44522D0882454
:1025D0001CE040F2B844C4F20204A4451AD045F20B
:1025E0000844C5F60204A4453ED045F21C4437E039
:1025F00040F22844C4F20204A4450BD040F2404407
:10260000C4F20204A44505D040F25844C4F20204C6
:10261000A4453AD18468C06D00F01F003F2505FA3B
:1026200000F0CEF80800DCF80000402C20F48020F8
:10263000CCF80000CCF8043023D1CCF80820CCF83A
:102640000C1070BD45F26C44C5F60204A4450BD0D5
:1026500045F28044C5F60204A44505D045F29444F1
:10266000C5F60204A44510D1C46D012504F01F0471
:10267000806805FA04F4CEF804404028CCF8043011
:10268000DBD0CCF80810CCF80C2070BD00000000A6
:10269000704700000000000080B54FF4806003F038
:1026A0008FF94FF48050BDE8804003F089B90000F5
:1026B000EFF3108072B600BFFEE7000000000000DC
:1026C00044F25060C2F2000002F03ABB0000000089
:1026D00044F25060C2F2000002F032BB0000000081
:1026E00044F2F060C2F2000002F02ABB00000000D9
:1026F00044F2F060C2F2000002F022BB00000000D1
:1027000044F29070C2F2000002F01ABB0000000018
:1027100044F29070C2F2000002F012BB0000000010
:10272000F0B5D1E900C4D1F808E00D692CB14EEA4A
:102730000C04254345F0804C03E045EA8C4444EA10
:102740000E0C856ED0F88470D1E907466B438D6915
:1027500044EA0660D1F814E0CC68054307EB830037
:1027600045EA0E0647F823C046EA04434360CB68B7
:10277000002B08BFF0BD42F2D83C083001320023E4
:10278000C0F6020CD71857F8017CC750CF68043345
:102790001CF80770BB42F5D3F0BD0000000000003C
:1027A00042F20830C2F2000090ED690A7047000062
:1027B00042F20830C2F2000090ED680A7047000053
:1027C00042F20830C2F2000090ED6A0A7047000041
:1027D0002DE9F04381B00022009290F85C20012A9C
:1027E00001D102210CE20368012280F85C209A6882
:1027F000520700F1FD8146F2083C4FF6FF7EC5F618
:10280000020CC0F20F0EACF542780C68434515D0AF
:10281000B4F1FF3F12DD94FAA4F514EA0E0FB5FAF5
:1028200085F54FF0010608BFA50EA40E05F01F05A3
:1028300006FA05F5DE693543DD6100E0A40E4D685A
:102840001F2204F01F04C5F3012605F01F05AA404E
:1028500003EB8606AC40376B27EA02022243326361
:102860009A689C6802F0040204F00804121940F00F
:102870001F810A6807268D684345C2F34064C2F38E
:10288000045203EB840406FA02F6676905FA02F2C1
:1028900027EA060642EA0602626111D041F200020E
:1028A000C5F60042126802F07042B2F1805F77D143
:1028B0004A69DC680E2505EA540402FA04F4A4E02F
:1028C0004FF6045203F16004CFF6FF72D1E90456CB
:1028D000042D5CF802706DD14FF65852CFF6FF729E
:1028E0005CF8022022680F68C2F3846217EA0E09BE
:1028F000C7F3846697FAA7F7B7FA87F52F4608BF9C
:102900003746BA420CD1226822F0004222600A689F
:1029100002EA0E09C2F3846692FAA2F2B2FA82F5D2
:1029200062682F466268B9F1000F08BF3746C2F3EC
:102930008462BA420CD1626822F0004262600A6886
:1029400002EA0E09C2F3846692FAA2F2B2FA82F5A2
:10295000A2682F46A268B9F1000F08BF3746C2F33C
:102960008462BA420CD1A26822F00042A2600A68D6
:1029700002EA0E09C2F3846692FAA2F2B2FA82F572
:10298000E268B9F1000FE26808BF3546C2F384621D
:10299000AA4240F08D80E26822F00042E26087E0C7
:1029A000DA684C69DD68D2064FEA55052AD405F08D
:1029B0000E0229E04FF006090A6809EA970702F0BB
:1029C000F842BE4054F82570324342F0004244F8C9
:1029D00025200A69ACF52A74CD6954F8226026F0E6
:1029E0008076354344F822500A6991F8205054F813
:1029F0002260012D26F0007608BF06F1007644F82B
:102A0000226055E005F0080294400D69042D26D19E
:102A10001A6E0C6802F0F842A406A24203D11A6EA4
:102A200022F000421A665A6E02F0F842A24203D126
:102A30005A6E22F000425A669A6E02F0F842A242A2
:102A400003D19A6E22F000429A66DA6E02F0F842E2
:102A5000A2422DD1DA6E22F00042DA6628E003F1BC
:102A600060020E6806F0F84652F8257007F000473D
:102A70003E44344342F825400C6991F8215052F805
:102A80002460012D26F0004608BF06F1004642F8FA
:102A900024600A7E0C691D69013A04F01F04B2FA31
:102AA00082F225F4F0455209D202A2402A431A616B
:102AB0009A68D20757D1ACF51672434518BF03F197
:102AC000C002CD680C6805F01805166804EA0E0708
:102AD0002EFA05F5BE432C40344314600024CA6826
:102AE000C4F2FF74A2423AD10C6814EA0E0F11D05E
:102AF00094FAA4F2B2FA82F2013202F01E07092F10
:102B000002F01F070FD8012207EB4706BA4042EA3E
:102B1000065714E0012202EB946202F01E070A2F0E
:102B200002F01F07EFD3012207EB4706BA40002748
:102B3000CFF6206707EB06573A4342F00077C7F31A
:102B400040620725C7F304578E6803EB8202BD403D
:102B5000546906FA07F724EA05052F4357610F6801
:102B6000B7F1FF3F01DD002147E042F2000142F2F0
:102B70000015C4F20201C4F2020501F5807201F5EC
:102B800042769342624608BF32468B4208BF3246C5
:102B900043F48076AE42166822D18A68D1F80811D3
:102BA0001143C90724D1002106F0E075CCF252711F
:102BB0008F4208BF16F4000126D00021CCF221314B
:102BC0008F425ED10021B1EB156F5AD1434514D12C
:102BD000DCF8001021F0E071294341F0807163E0DE
:102BE0004FF60051CFF6FF715CF80110C907DAD03B
:102BF000016E41F0200101660121002280F85C2075
:102C0000084601B0BDE8F0834345ACD1DCF80010C4
:102C100042F6635221F0E071C0F23E52294341F482
:102C20000001CCF8001042F2C801C2F200010968AC
:102C30008909A1FB02129109022202EB41010091D4
:102C4000009900298FD0009901390091009900293D
:102C50003FF489AF009901390091009900293FF4B0
:102C600082AF009901390091009900293FF47BAFB0
:102C7000009901390091009900294FF00001E2D13B
:102C8000BBE743454FF00001B7D10022CCF68432B8
:102C9000974208BF16F48002AFD1DCF8001021F093
:102CA000E071294341F48001CCF800105BE700009B
:102CB00070B582B04FF00001019170B3016E39B967
:102CC000044600F061F920460021616684F85C103A
:102CD00001688A6892004FF6C072C5F6FF7202D58D
:102CE0008B6813408B608B68DB0030D48B6802F1FB
:102CF00080521A4042F6635342F080528A6042F298
:102D0000C802C0F23E53C2F2000212689209A2FB4E
:102D10000323012202EB931204E001242FE100BF00
:102D2000019A013A0192019A8AB1019A013A0192FB
:102D3000019A62B1019A013A0192019A002A1FBFD9
:102D4000019A013A0192019A18BF002AE8D18A68D3
:102D5000D20009D4026E012442F010020266426ED3
:102D600042F00102426600E000248A68036E03F02C
:102D7000100302F00402D218026E36D122F48172DE
:102D800046F2000C023202668A68C5F6020CD207CF
:102D900022D142F2001341F48072C4F202039A423B
:102DA00042F20002C4F202022DD19368D2F8085117
:102DB0002B43DB0710D102F580739942634608BFAD
:102DC0001346914208BF0B464268D3F8085325F4D6
:102DD0007C152A43C3F80823427EC36B614543EA4E
:102DE000423306D082681A431BE042F010010124EE
:102DF000C4E0D0E90225082A0CD00C2A08D01C2AED
:102E00000AD110220BE0DCF80830DB07D3D0E3E76F
:102E1000082204E0002202E0182A18BF00222A43F8
:102E20001A4390F82030012B42EA034306D1426A4C
:102E30000025CFF6FE7505EB42421343826A22B1AC
:102E400002F47872C56A2A431343614508D04CF2F4
:102E50000305CA68CFF6F0752A401A43CA600EE02F
:102E600044F20705DCF80C20CFF6F0752A401A432F
:102E7000CA600A69436B22F040621A430A618A6899
:102E80008B6802F0040203F00803D21867D1027EB7
:102E900061454FEA823228D0036BCE6844F20305C5
:102EA000AE4333431A43CA6090F84420012A45D107
:102EB0004FF61E030A69CFF60043D0F840C01A400F
:102EC0000123D0E91265CFF6FF732A4303EB0643D3
:102ED000066D1A43436D32431A430A610A6922F0B0
:102EE000704242EA0C020A6135E0CB6890F8385033
:102EF00044F2030E90F8446023EA0E0343EA4503CC
:102F0000012E42EA0302CA6018D14FF61E03DCF814
:102F10001020CFF600431A40D0E912361A43036D51
:102F20003243466D1A43036C324342F001020A6198
:102F30000A6922F070421A430A6110E00A69614589
:102F400022F001020A610A69036C22F0704242EA2F
:102F500003020A6103D00546FEF7FAFE284601681F
:102F600002690B6B012A23F00F0202D1C369013BF6
:102F70001A430A630122016E62F3010101662046D1
:102F800002B070BD00000000B0B5B0B0044602A8A9
:102F900044F2E04528309021C5F60205FDF712FE07
:102FA000206805F5D951884201D030B0B0BD00206D
:102FB00003904FF4002102910221049110220B9002
:102FC000CDE90521CDE90711C021CDE9091002A8FD
:102FD00005F09AF808B1FFF76BFB286840F08070A5
:102FE0002860286800F080700190019830B0B0BD72
:102FF0002DE9F041044602F0D3FD14B3054694F8E0
:103000003500022820D140F20F472668C4F202079B
:1030100040F26F48BE426FF00E00C4F2020817DCA7
:103020006F21C4F202018E4223DC3F21C4F202016F
:103030008E4239DC1021C4F202018E4258D0282180
:1030400051E00120BDE8F08180206065012037E279
:1030500046451ADC40F23F41C4F202018E422ADCAE
:1030600040F21041C4F202018E4241D040F22841A8
:1030700039E09F21C4F202018E4225DC7021C4F2A6
:1030800002018E4234D088212DE040F29F41C4F2EB
:1030900002018E421FDC40F27041C4F202018E42F6
:1030A00026D040F288411EE04021C4F202018E4247
:1030B0001ED0582117E040F24041C4F202018E4276
:1030C00016D040F258410EE0A021C4F202018E4217
:1030D0000ED0B82107E040F2B841C4F202018E429E
:1030E00006D040F2A041C4F202018E42314607D11F
:1030F0003146306820F01E0041F8140B6FF080005C
:103100000A68464500EA0200086019DC9F20C4F204
:103110000200864231DC5720C4F20200864256DCAF
:103120001020C4F20200864200F091802820C4F2F0
:103130000200864200F08B804020C4F2020084E04E
:1031400045F22F40C5F6020086422BDC40F2B74024
:10315000C4F20200864248DC40F27040C4F2020031
:10316000864274D040F28840C4F2020086426ED09B
:1031700040F2A040C4F2020067E040F22740C4F2EF
:103180000200864240DCA020C4F2020086425ED0EB
:10319000B820C4F20200864259D040F21040C4F276
:1031A000020052E045F26B40C5F6020086423CDC6C
:1031B00045F23040C5F60200864248D045F2444010
:1031C000C5F60200864242D045F258403BE0582006
:1031D000C4F2020086423AD07020C4F20200864255
:1031E00035D08820C4F202002FE040F2B840C4F28B
:1031F000020086422BD045F20840C5F60200864206
:1032000025D045F21C401EE040F22840C4F20200E6
:1032100086421CD040F24040C4F20200864216D0E2
:1032200040F25840C4F202000FE045F26C40C5F68F
:10323000020086420BD045F29440C5F60200864259
:1032400005D045F28040C5F60200864204D1206ECA
:10325000016821F480710160306820F00100306065
:103260003068C0070BD002F09BFC401B0628F7D348
:1032700020206065032084F83500012020E12068CB
:103280000821B8424FF03F0210DC6F23C4F2020362
:1032900098421CDC3F23C4F20203984232DC102324
:1032A000C4F20203984251D028234AE040451ADC78
:1032B00040F23F43C4F2020398422ADC40F210433A
:1032C000C4F20203984241D040F2284339E09F23E0
:1032D000C4F20203984225DC7023C4F20203984230
:1032E00034D088232DE040F29F43C4F20203984279
:1032F0001FDC40F27043C4F20203984226D040F231
:1033000088431EE04023C4F2020398421ED0582393
:1033100017E040F24043C4F20203984216D040F254
:1033200058430EE0A023C4F2020398420ED0B82303
:1033300007E040F2A043C4F20203984206D040F2F4
:10334000B843C4F20203984240F0BF80D4E9163774
:1033500007F01F07404502FA07F25A5019DC9F2177
:10336000C4F20201884231DC5721C4F202018842D2
:1033700056DC1021C4F20201884200F0918028211D
:10338000C4F20201884200F08B804021C4F20201A5
:1033900084E045F22F41C5F6020188422BDC40F261
:1033A000B741C4F20201884248DC40F27041C4F2E5
:1033B0000201884274D040F28841C4F2020188427E
:1033C0006ED040F2A041C4F2020167E040F2274112
:1033D000C4F20201884240DCA021C4F2020188420A
:1033E0005ED0B821C4F20201884259D040F21041A7
:1033F000C4F2020152E045F26B41C5F60201884277
:103400003CDC45F23041C5F60201884248D045F225
:103410004441C5F60201884242D045F258413BE0A2
:103420005821C4F2020188423AD07021C4F202014C
:10343000884235D08821C4F202012FE040F2B84121
:10344000C4F2020188422BD045F20841C5F60201C0
:10345000884225D045F21C411EE040F22841C4F2CA
:10346000020188421CD040F24041C4F2020188426D
:1034700016D040F25841C4F202010FE045F26C410F
:10348000C5F6020188420BD045F29441C5F602010F
:10349000884205D045F28041C5F6020188420BD131
:1034A000616EA26EE06E4A6030B1016821F48071F5
:1034B0000160D4E91C014160012084F8350000203E
:1034C000002184F83410BDE8F081042101223DE799
:1034D000F0B190F83510022918D180B540F20F42B2
:1034E0000168C4F20202914214DC6F23C4F20203A9
:1034F000994224DC3F23C4F2020399423ADC1023B0
:10350000C4F20203994258D0282352E08021416539
:103510000120704740F26F43C4F2020399421ADC63
:1035200040F23F43C4F2020399422ADC40F21043C6
:10353000C4F20203994240D040F2284339E09F236D
:10354000C4F20203994225DC7023C4F202039942BB
:1035500033D088232DE040F29F43C4F20203994206
:103560001FDC40F27043C4F20203994225D040F2BE
:1035700088431EE04023C4F2020399421DD0582321
:1035800017E040F24043C4F20203994215D040F2E2
:1035900058430EE0A023C4F2020399420DD0B82391
:1035A00007E040F2B843C4F20203994205D040F26A
:1035B000A043C4F2020399426ED191424FF004023B
:1035C00080F8352010DC6F20C4F20200814220DC3C
:1035D0003F20C4F20200814236DC1020C4F2020017
:1035E000814253D028204EE040F26F40C4F20200E6
:1035F00081421ADC40F23F40C4F2020081422ADCE0
:1036000040F21040C4F2020081423FD040F2284014
:1036100039E09F20C4F20200814225DC7020C4F210
:103620000200814232D088202DE040F29F40C4F257
:10363000020081421FDC40F27040C4F2020081426D
:1036400024D040F288401EE04020C4F202008142B3
:103650001CD0582017E040F24040C4F202008142E2
:1036600014D040F258400EE0A020C4F20200814283
:103670000CD0B82007E040F2B840C4F2020081420A
:1036800004D040F2A040C4F202008142086820F059
:1036900001000860002080BD0A6822F00E020A6066
:1036A00045F25742C5F6020291420A6822F0010231
:1036B0000A600EDC45F22F42C5F60202914217DC89
:1036C00045F20842C5F60202914226D045F21C425C
:1036D0001FE045F27F42C5F60202914211DC45F23D
:1036E0005842C5F60202914217D045F26C4210E0F2
:1036F00045F23042C5F6020291420ED045F24442F4
:1037000007E045F29442C5F60202914205D045F227
:103710008042C5F6020291421AD1D0E9181CD0E9C4
:1037200016E30A6822F480720A6003F01F01012286
:1037300002FA01F1CEF80410816ECCF80410C16ECB
:1037400031B10A6822F480720A60D0E91C124A6022
:10375000012180F83510016D0022002980F8342005
:1037600098D08847002080BD406D70470000000061
:103770002DE9F04782B00021019142F2C80148F2E0
:10378000B513C2F20001C1F64E33856D40F26F49A8
:103790000A680168C4F202092E68A2FB03284945A1
:1037A0002A6815DC9F22C4F2020291422BDC5722C8
:1037B000C4F2020291424FDC1022C4F20202914292
:1037C00078D02822C4F20202914273D040226CE0E9
:1037D00045F22F43C5F60203994227DC40F2B74376
:1037E000C4F20203994243DC40F27042C4F2020286
:1037F00091425FD040F28842C4F20202914259D015
:1038000040F2A04251E040F22742C4F2020291424B
:103810003DDCA022C4F2020291424BD0B822C4F295
:103820000202914246D040F210423EE045F26B4324
:10383000C5F60203994273DC45F23043C5F6020334
:10384000994200F0808045F24443C5F60203994254
:1038500079D045F2584371E05822C4F202029142F5
:1038600028D07022C4F20202914223D088221CE0A8
:1038700040F2B843C4F2020399421BD045F2084318
:10388000C5F6020399425ED045F21C4356E040F271
:103890002842C4F2020291420CD040F24042C4F2EB
:1038A0000202914206D040F25842C4F20202914212
:1038B00040F02D83C26D082302F01F0240F20F4A30
:1038C0009340C4F2020A334200F0D18051454FF0D8
:1038D000040412DC6F27C4F20207B94264DC3F27FC
:1038E000C4F20207B94200F392801027C4F2020723
:1038F000B94200F0B0802827A8E0494560DC40F2DA
:103900003F47C4F20207B94200F3888040F21047F3
:10391000C4F20207B94200F09E8040F2284795E0C9
:1039200045F26C43C5F6020399420CD045F2804340
:10393000C5F60203994206D045F29443C5F6020348
:10394000994240F0E4820B68C76D07F01F07042618
:10395000BE40164218BF13F004041BD10226BE401D
:10396000164218BF13F0020439D1FA40120740F191
:10397000CE8213F0080200F0CA820A6822F00E021A
:103980000A60012101FA07F26A60416580F835108A
:10399000C16C5BE21A046E6033D49A0635D40A68AF
:1039A00022F004020A6030E09F27C4F20207B94205
:1039B0003DDC7027C4F20207B9424CD0882745E0AD
:1039C00040F29F47C4F20207B94237DC40F2704729
:1039D000C4F20207B9423ED040F2884736E01A04EA
:1039E0006E6000F197829A0600F198820A6822F0D0
:1039F0000A020A60012180F83510002180F8341095
:103A00008CE2D90301D4816C7CE2016C7AE240271C
:103A1000C4F20207B9421ED0582717E040F24047CF
:103A2000C4F20207B94216D040F258470EE0A02770
:103A3000C4F20207B9420ED0B82707E040F2A0470F
:103A4000C4F20207B94206D040F2B847C4F20207F6
:103A5000B94218BF08240F68274208D00F6827F022
:103A600004070F60AB60436D43F00103436501231E
:103A7000934033426AD0514510DC6F27C4F20207ED
:103A8000B9421CDC3F27C4F20207B94232DC1027DE
:103A9000C4F20207B94251D028274AE049451ADC4E
:103AA00040F23F47C4F20207B9422ADC40F2104715
:103AB000C4F20207B94241D040F2284739E09F27BB
:103AC000C4F20207B94225DC7027C4F20207B942EA
:103AD00034D088272DE040F29F47C4F20207B94254
:103AE0001FDC40F27047C4F20207B94226D040F210
:103AF00088471EE04027C4F20207B9421ED058276B
:103B000017E040F24047C4F20207B94216D040F233
:103B100058470EE0A027C4F20207B9420ED0B827DA
:103B200007E040F2A047C4F20207B94206D040F2D3
:103B3000B847C4F20207B94240F0F2814F693F062C
:103B400004D5AB60436D43F0020343650423934007
:103B500033426AD0514510DC6F27C4F20207B942E4
:103B60001CDC3F27C4F20207B94232DC1027C4F242
:103B70000207B94251D028274AE049451ADC40F2F1
:103B80003F47C4F20207B9422ADC40F21047C4F2B0
:103B90000207B94241D040F2284739E09F27C4F2DA
:103BA0000207B94225DC7027C4F20207B94234D0BB
:103BB00088272DE040F29F47C4F20207B9421FDC7C
:103BC00040F27047C4F20207B94226D040F288475B
:103BD0001EE04027C4F20207B9421ED0582717E062
:103BE00040F24047C4F20207B94216D040F25847AB
:103BF0000EE0A027C4F20207B9420ED0B82707E0B2
:103C000040F2A047C4F20207B94206D040F2B847DA
:103C1000C4F20207B94240F085810F68BF0704D59E
:103C2000AB60436D43F004034365102303FA02F2D3
:103C300032427AD051454FF0080310DC6F27C4F2AE
:103C40000207B9421CDC3F27C4F20207B94232DC4A
:103C50001027C4F20207B94251D028274AE049454B
:103C60001ADC40F23F47C4F20207B9422ADC40F2B4
:103C70001047C4F20207B94241D040F2284739E068
:103C80009F27C4F20207B94225DC7027C4F202075D
:103C9000B94234D088272DE040F29F47C4F2020792
:103CA000B9421FDC40F27047C4F20207B94226D085
:103CB00040F288471EE04027C4F20207B9421ED0F6
:103CC000582717E040F24047C4F20207B94216D025
:103CD00040F258470EE0A027C4F20207B9420ED0C6
:103CE000B82707E040F2A047C4F20207B94206D065
:103CF00040F2B847C4F20207B94218BF04230F6864
:103D00001F4212D0AA600A6852030A6806D4D2057C
:103D100006D40A6822F008020A6001E011034ED4BA
:103D2000016C11B1044688472046C16D01F01F02A5
:103D3000202101FA02F3334200F0A8800168102725
:103D4000514510DC6F26C4F20206B1421CDC3F264E
:103D5000C4F20206B14236DC1026C4F20206B142B9
:103D600055D028264EE049451ADC40F23F46C4F2C1
:103D70000206B1422EDC40F21046C4F20206B14205
:103D800045D040F228463DE09F26C4F20206B142EB
:103D900029DC7026C4F20206B14238D0882631E010
:103DA00040F29F46C4F20206B14223DC40F2704664
:103DB000C4F20206B1422AD040F2884622E0816C69
:103DC0000029AFD1B1E74026C4F20206B1421ED0AD
:103DD000582617E040F24046C4F20206B14216D01F
:103DE00040F258460EE0A026C4F20206B1420ED0C0
:103DF000B82607E040F2A046C4F20206B14206D05F
:103E000040F2B846C4F20206B14218BF02270E685B
:103E10003E423BD0AB6090F83530042B0B681CD190
:103E200023F016030B604B6923F080034B61036C96
:103E30000BB9836C1BB10B6823F008030B603F21A7
:103E40009140A960012180F83510016D00294FF0E3
:103E5000000280F8342056D159E05A030A680CD485
:103E6000D2050ED40A6822F010020A60012180F8FF
:103E70003510002180F8341003E0110301D4416CA7
:103E800000E0C16B11B1044688472046416D00290E
:103E90003DD0416DC90734D0042180F83510016848
:103EA0004FEA98220B6823F001030B60019B01335A
:103EB000019393421AD80B68DB0717D0019B01339B
:103EC0000193934212D80B68DB070FD0019B01339B
:103ED000019393420AD80B68DB0707D0019B01339B
:103EE0000193934202D80B68DB07DFD10968C90749
:103EF0004FF0030108BF012180F83510002180F840
:103F00003410C16C19B102B0BDE8F047084702B0E7
:103F1000BDE8F087D90301D4416CF3E7C16BF1E749
:103F20000B6813E60B6880E62DE9F041044601F0CA
:103F300037FEECB140F26F4805462068C4F2020833
:103F4000404518DC9F21C4F2020188422EDC572133
:103F5000C4F20201884254DC1021C4F202018842FA
:103F60007ED02821C4F20201884279D0402172E03B
:103F70000120BDE8F08145F22F41C5F602018842DB
:103F800027DC40F2B741C4F20201884245DC40F22E
:103F90007041C4F20201884262D040F28841C4F20A
:103FA000020188425CD040F2A04154E040F2274137
:103FB000C4F20201884240DCA021C4F2020188421E
:103FC0004ED0B821C4F20201884249D040F21041DB
:103FD00041E045F26B41C5F60201884200F3C7801B
:103FE00045F23041C5F60201884200F0D28045F228
:103FF0004441C5F60201884200F0CB8045F25841A9
:10400000C3E05821C4F20201884229D07021C4F2D1
:104010000201884224D088211DE040F2B841C4F258
:10402000020188421CD045F20841C5F602018842CF
:1040300000F0AF8045F21C41A7E040F22841C4F2F5
:10404000020188420CD040F24041C4F20201884291
:1040500006D040F25841C4F20201884240F0D580B7
:10406000022184F83510002184F83410016821F011
:104070000101016020680168C9070CD001F090FDC2
:10408000401B0628F6D320206065032084F8350005
:104090000120BDE8F08148F23F0204F10806016802
:1040A000CFF61062114065694CCE1143A2691943E5
:1040B000E3693143266A0D43616A2B43042943EACD
:1040C000060343EA020303D1D4E90B652E433343CD
:1040D0006568A5F12906292E00F21382DFE816F0A3
:1040E0002A002A002A002A002A002A0011021102AE
:1040F0001102110211021102110211021102110228
:104100001102110211021102110211022A002A00E9
:104110002A002A0011021102110211022A002A00AB
:104120001102110211021102110211022A002A00C9
:104130002A002A0043F4801303600429436923F012
:10414000070341EA030140F07B80D4E90A53002BC6
:1041500041EA050174D0B2F5005F58D0002A62D15F
:10416000022D63D0012D58D0002D5FD068E045F2BC
:104170006C41C5F6020188420BD045F28041C5F67C
:104180000201884205D045F29441C5F602018842F9
:104190003BD104F1080E022184F83510002184F887
:1041A00034100168A3699EE80450A2F18005E76914
:1041B000B5FA85F566696D09402A4FEA853543EA07
:1041C00007026FF3101142EA060208BF102541EA08
:1041D000DC0142EA0E02236A294341EAD20141EAA4
:1041E000131140F80819C0B2CD2148433C2101EA1F
:1041F0009020E0652046FEF743F8E16D012201F0D2
:104200001F0102FA01F1416025E040203CE7032D47
:1042100016D8DFE805F00E0B0E02A3F1C072B2FA59
:1042200082F2520904E0032D03D309D1C3F30062E3
:1042300032B140206065012084F83500BDE8F0818E
:1042400041612046FEF71CF8E16D3F2201F01F019D
:1042500002FA01F181602068404519DC9F21C4F217
:104260000201884231DC5721C4F20201884256DC47
:104270001021C4F20201884200F092802821C4F289
:104280000201884200F08C804021C4F2020184E0E7
:1042900045F22F41C5F6020188422BDC40F2B741BE
:1042A000C4F20201884248DC40F27041C4F20201CB
:1042B000884275D040F28841C4F2020188426FD032
:1042C00040F2A041C4F2020167E040F22741C4F28B
:1042D0000201884240DCA021C4F2020188425FD082
:1042E000B821C4F2020188425AD040F21041C4F20F
:1042F000020152E045F26B41C5F6020188423CDC06
:1043000045F23041C5F60201884249D045F24441A8
:10431000C5F60201884243D045F258413BE058219E
:10432000C4F2020188423BD07021C4F202018842EB
:1043300036D08821C4F202012FE040F2B841C4F225
:10434000020188422CD045F20841C5F6020188429C
:1043500026D045F21C411EE040F22841C4F2020181
:1043600088421DD040F24041C4F20201884217D079
:1043700040F25841C4F202010FE045F26C41C5F62B
:10438000020188420CD045F29441C5F602018842F0
:1043900006D045F28041C5F60201884240F0D9803E
:1043A00045F2574C45F6FC0EC5F6020CC5F6020E5A
:1043B00060450EDC45F22F41C5F60201884217DC4C
:1043C00045F20841C5F60201884226D045F21C415B
:1043D0001FE045F27F41C5F60201884211DC45F23B
:1043E0005841C5F60201884217D045F26C4110E0F1
:1043F00045F23041C5F6020188420ED045F24441F3
:1044000007E045F29441C5F60201884205D045F225
:104410008041C5F60201884244D100F0FC014CF60F
:10442000CD420839CCF6CC42A1FB0212AEF1FC051C
:10443000AEF17C061309A26803F01F01802A4FF039
:10444000010205EB8305256602FA01F26666A266A3
:1044500004D100206060286072601CE06368D9B2FB
:104460005F1E072F2960726015D84E1E082E17D2C6
:1044700060450EF1440235DC45F22F41C5F60201DC
:10448000884245DC45F20841C5F60201884254D015
:1044900045F21C414DE000206067C4E91B0058E074
:1044A000E06E51E000F0F8014AF6AB221039CAF68E
:1044B000AA22A1FB021240F20F43C4F20203082514
:1044C0001109984203F1AA060B4688BF05EB1213A7
:1044D00040F60005B042C4F2020505F1800628BF8F
:1044E0000B46A8E745F27F41C5F60201884218DC79
:1044F00045F25841C5F6020188421ED045F26C4192
:1045000017E025F00307742F08BF43F4801313E668
:1045100045F23041C5F6020188420ED045F24441D1
:1045200007E045F28041C5F60201884205D045F218
:104530009441C5F60201884212D10EEB830001219D
:10454000E066B1402267616700210160D4E91C0187
:10455000416000206065012184F83510BDE8F081DC
:1045600040F60000C4F2020000F1FC0E00F5A0725B
:10457000E3E700000000000030B110B590F83440CF
:10458000012C03D1022010BD01207047012480F8C6
:10459000344090F83540012C2BD1022480F835406E
:1045A00000244465D0F800C0DCF8004024F0010489
:1045B000CCF800400446FDF7EFFE40F20F4C2068B7
:1045C000C4F2020C40F26F416045C4F2020118DCF3
:1045D0006F23C4F20203984224DC3F23C4F2020397
:1045E00098423ADC1023C4F20203984259D028239F
:1045F00052E04FF400614165002180F83410012041
:1046000010BD88421ADC40F23F43C4F202039842D4
:104610002ADC40F21043C4F20203984241D040F237
:10462000284339E09F23C4F20203984225DC70231B
:10463000C4F20203984234D088232DE040F29F4315
:10464000C4F2020398421FDC40F27043C4F202033A
:10465000984226D040F288431EE04023C4F2020371
:1046600098421ED0582317E040F24043C4F20203A0
:10467000984216D040F258430EE0A023C4F2020341
:1046800098420ED0B82307E040F2B843C4F20203C8
:10469000984206D040F2A043C4F20203984240F090
:1046A000238103680B2262F344030360226C1AB176
:1046B000082302681A430260884219DC9F22C4F270
:1046C0000202904231DC5722C4F20202904256DCD0
:1046D0001022C4F20202904200F091802822C4F21B
:1046E0000202904200F08B804022C4F2020284E079
:1046F00045F22F42C5F6020290422BDC40F2B7424F
:10470000C4F20202904248DC40F27042C4F202025B
:10471000904274D040F28842C4F2020290426ED0BD
:1047200040F2A042C4F2020267E040F22742C4F223
:104730000202904240DCA022C4F2020290425ED00B
:10474000B822C4F20202904259D040F21042C4F2A0
:10475000020252E045F26B42C5F6020290423CDC96
:1047600045F23042C5F60202904248D045F244423A
:10477000C5F60202904242D045F258423BE0582230
:10478000C4F2020290423AD07022C4F20202904275
:1047900035D08822C4F202022FE040F2B842C4F2BF
:1047A000020290422BD045F20842C5F60202904226
:1047B00025D045F21C421EE040F22842C4F202021B
:1047C00090421CD040F24042C4F20202904216D005
:1047D00040F25842C4F202020FE045F26C42C5F6C4
:1047E000020290420BD045F29442C5F6020290427A
:1047F00005D045F28042C5F6020290426ED1236E8A
:104800001A68D20303D51A6842F480721A60E36E04
:104810001BB11A6842F480721A60604510DC6F2187
:10482000C4F2020188421CDC3F21C4F2020188422A
:1048300032DC1021C4F2020188424FD028214AE024
:1048400088421ADC40F23F41C4F2020188422ADC6D
:1048500040F21041C4F2020188423FD040F22841A8
:1048600039E09F21C4F20201884225DC7021C4F2A4
:104870000201884232D088212DE040F29F41C4F2EB
:10488000020188421FDC40F27041C4F202018842FA
:1048900024D040F288411EE04021C4F20201884247
:1048A0001CD0582117E040F24041C4F20201884276
:1048B00014D040F258410EE0A021C4F20201884217
:1048C0000CD0B82107E040F2B841C4F2020188429E
:1048D00004D040F2A041C4F202018842016841F0D4
:1048E00001010160002010BD0268052363F343024B
:1048F0000260226C002A3FF4DFAE0423D9E60000F8
:10490000B0B5044601F04CF942F2B6110546C2F2C8
:104910000001621C097818BF0C4400BF01F040F987
:10492000401BA042FAD3B0BD90F89830013B012B58
:104930000BD80068836D0B420CD0836D0B408B420B
:104940000CD1C36D43F0020309E000F19C0101208A
:10495000022221E0C36D43F0010300E00323C3659D
:104960008B0504D5D0F8E0301343C0F8E0304B0598
:1049700004D5D0F8E4301A43C0F8E4204FF6FF72B3
:10498000436DC3F6CF720A401A4342658A0F4AF656
:1049900014010020C4F200010B681A430A6070473A
:1049A00090F89830022B1BD1B0B50368D3F8C050F3
:1049B00015F07C5F1CD0D3F8C450AD021DD4D3F8E1
:1049C000C4300546C3F304442346FDF7A9FE286816
:1049D0000121A140C0F8D0100020C5F89410B0BD4E
:1049E000D0F89C1041F00801C0F89C1001207047DD
:1049F000D0F89C1041F0200103E0D0F89C1041F465
:104A00000071C0F89C100120B0BD00000000000043
:104A1000704700000000000090F89830012B0ED184
:104A2000012900684FEA026211D0C9B9D0F8F0102C
:104A300021F07C511143C0F8F01000207047D0F8ED
:104A40009C1041F00401C0F89C1001207047D0F880
:104A5000A01021F0FE411143C0F8A01000207047C3
:104A6000D0F8B01021F0FE411143C0F8B010002082
:104A7000704700000000000090F89820013A012AD9
:104A80000BD880B50A68002ACA680ED00B69072ABD
:104A900043EA427E16D18B6919E0D0F89C1041F0B0
:104AA0000201C0F89C1001207047072A18D10A693A
:104AB000D1E906C3120442EA032242EA0C0242F0A0
:104AC000605217E0D1F808C04B6943EA8C73006F5D
:104AD000496800EBC10240F831E05360002080BD1E
:104AE0008B68D1E904CE9B0743EAC26242EA0C42DA
:104AF00042EA0E024968C06E40F82120002080BDC5
:104B000090F898C0BCF1010F0DD19200006842EA04
:104B10000111DDF800C041EA430141EA0C01C0F88F
:104B2000801000207047D0F89C1041F00401C0F8BC
:104B30009C1001207047000070470000000000003A
:104B400043F66C11C2F200010A6A904207D043F6A4
:104B5000EC11C2F200010A6A904218BF704708685F
:104B600001300860704700002DE9F04390F898701C
:104B7000022F11D1402914D10668D6F8A07017F47D
:104B8000FE0F2AD0D6F8A4707F062BD0D6F8A470DA
:104B9000FF0130D4002731E0D0F89C1041F008012B
:104BA00024E041290FD10668D6F8B07017F4FE0F43
:104BB00013D0D6F8B4707F0614D0D6F8B470FF01C5
:104BC00025D4002726E0076DB94206D200F17C0506
:104BD000466D4FF0000C0F4625E0D0F89C1041F0D8
:104BE000200103E0D0F89C1041F48071C0F89C10C3
:104BF0000120BDE8F083D6F8A070FF0FD6F8A460BE
:104C000000F17405C6F305263E44476C0AE0D6F869
:104C1000B070FF0FD6F8B46000F17805C6F3052632
:104C20003E44C76CB44607FB06F42D6805EB840EC2
:104C300055F8247017F08047576055F8247027F016
:104C4000604608BFC7F38A46166055F8247007F01F
:104C50000057976055F8244004F000441461BEF8F2
:104C60000440D461BEF8064014F00F04D460DEF8AE
:104C7000044004F480145461DEF8044004F4001489
:104C800094619EF8074004F07F041462DEF804404B
:104C90004FEAD474546228D042F2D8380024C0F6C7
:104CA00002080EEB0406651C377A1F55D76818F802
:104CB0000770BD4219D21F19757A7D70D56818F832
:104CC0000590A51C4D453FBFB57ABD70D56818F855
:104CD00005903CBFE51C4D4507D2F57A0434FD70C4
:104CE000D56818F80550AC42DBD3402905D10068DF
:104CF000C0F8A8C00020BDE8F083412905D10068B4
:104D0000C0F8B8C00020BDE8F0831F2908D80068AB
:104D1000012202FA01F1C0F898100020BDE8F083EA
:104D2000006801F01F01012202FA01F1C0F89C1095
:104D30000020BDE8F0830000704700000000000084
:104D40002DE9F04F87B004464AF61000C4F2000087
:104D500001684AF61400C4F20000026820680A40A4
:104D6000D0F850B0D0F85490056D466D036D0293A5
:104D7000436D0193036D0693436D0593036D049397
:104D8000436D0393D0F854A0D0F850805FEACA5323
:104D900011D518F480710ED04FF4807101654AF678
:104DA00010010020C4F20001174608602046FFF7FA
:104DB000C3FF3A4620685FEA4A510BEA090B4FEA03
:104DC000827718D54AF6100918F48061C4F20009F8
:104DD00015D0D0F8DC100092D0F8E42011404FF448
:104DE000806202650020C9F80000204600F0D4FD72
:104DF000009A206803E04AF61009C4F2000905EAA7
:104E000006050BF4704657B10021016502F003005E
:104E1000C9F8000020463946FFF7FAFD2068DDE9B1
:104E2000012101EA020705F00F0546B106650020E1
:104E3000C9F800002046314600F0B6FD206807F0B2
:104E4000F00645B105650020C9F800002046294656
:104E500000F0E2FB206846B106650020C9F80000BA
:104E60002046314600F060FD20685FEA0A510CD50B
:104E700018F4006109D04FF4006101650020C9F801
:104E80000000204600F094FD20685FEA8A5111D5A9
:104E900018F400710ED0D0F8D810D0F8E0201140EE
:104EA0004FF4007202650020C9F80000204600F0AF
:104EB00077FD20685FEA0A310CD518F4002109D08B
:104EC0004FF4002101650020C9F80000204600F0E1
:104ED0009FFB20685FEACA310CD518F4803109D0F5
:104EE0004FF4803101650020C9F80000204600F031
:104EF0004FFD20685FEA4A31DDE9032101EA02053E
:104F00000CD518F4802109D04FF4802101650020D0
:104F1000C9F80000204600F037FD20685FEA8A31BA
:104F2000DDE9052102EA010205F060710ED518F4F1
:104F300000330BD04FF4003303650023C9F8003071
:104F4000D4F89C3043F08003C4F89C3002F07155D3
:104F500039B101650020C9F800002046FFF7F0FDD7
:104F6000206845B105650021C9F80010D4F89C10EF
:104F70002943C4F89C10A9F50161884209D0D4F8EE
:104F80009C00002868D0204607B0BDE8F04FFFF72E
:104F9000D3BD606881688907F1D0016A426A036AFB
:104FA000476A114003EA070202F03005D0F820807A
:104FB000D0F82490D0F820B0466A026A069211F028
:104FC0000F01426A0592D0F824A0026A049203D02D
:104FD0000162204600F0CCFC08EA09072DB16068A8
:104FE00029460562204600F0CBFC5FEA4A6006EAEB
:104FF0000B0607F4C0750ED5049810F040000AD0D7
:1050000060684023C16BC26B090C02F03F0203626F
:10501000204600F0B1FCDDE9051000EA010706F4C6
:10502000FC462DB1606829460562204600F09CFCD4
:1050300007F4F02036B161680E62D4F89C10314359
:10504000C4F89C1000289AD061680862D4F89C10BB
:105050000843C4F89C0092E707B0BDE8F08F000059
:1050600040B32DE9F04F83B04AF200080446C4F281
:1050700000080068404502D108F58071616094F82D
:10508000981031B9002084F89900204600F0E0F92A
:105090002068816921F01001816100F081FD0546E1
:1050A00020688169090707D500F07AFD401B0B28AD
:1050B000F6D312E001207047816941F0010181615E
:1050C00000F06EFD054600BF20688169C90711D157
:1050D00000F066FD401B0B28F6D30120D4F89C108D
:1050E0000843C4F89C00032084F89800012003B012
:1050F000BDE8F08F816941F002018161217C826904
:1051000022F04002012918BF40328261617C82692D
:1051100022F48042012908BF02F580428261A17C0D
:10512000826922F48052012918BF02F580528261FF
:10513000816921F44073D4E902120B4383618369CE
:1051400023F0A4038361036923F0100303619AB180
:10515000012A0DD0022A09D08369032A43F0800373
:105160008361036943F01002026105D1202200E04F
:10517000042283691A438261D4E90572E369561EE9
:105180006FF0FF02256A02EB0323B1F5407F43EA8B
:105190004663A5F1010646EA030640F20003CFF696
:1051A000FF7303EB074746EA0701C16110D1D4E959
:1051B0000B65D4E90917013F02EB06226FF00F06D9
:1051C0003A4306EB05173A4303EB01411143C16033
:1051D000236E2BB1616ED0F8C0201143C0F8C0100F
:1051E000E16DCDE90113D94241F6E841C0F6020173
:1051F00009D0D0F8C820A36E22F0070251F823305E
:105200001A43C0F8C820D4F840C0BCF1000F09D040
:10521000D0F8BC20636C22F0070251F823301A4307
:10522000C0F8BC20D4F848B0BBF1000F0AD0D0F8C9
:10523000BC20E36C22F0700251F8233042EA0312E2
:10524000C0F8BC20D4F850A0BAF1000F0AD0D0F8B2
:10525000BC20636D22F4E06251F8231042EA012180
:10526000C0F8BC10404504D161688A6822F003028E
:105270008A600021C4F89410C4F89C10012184F8BD
:10528000981004F13409D0F884104FF6FC72914361
:10529000656C99E80C02009541EA8201C0F884101F
:1052A000D0F8841021F47F0141EA0341C0F8841052
:1052B0009918D0F888306FF38F0343EA8103C0F860
:1052C0008830D0F8883023F4FE0343EA0943C0F85D
:1052D000883001EB4903D0F8A0606FF38F0646EAEF
:1052E0008306C0F8A060D0F8A06026F4FE0646EA67
:1052F0000C46C0F8A06005FB0C36D0F8B0306FF358
:105300008F0343EA8603C0F8B030D0F8B03023F4FE
:10531000FE0343EA0B43C0F8B030E36CD0F8AC5066
:105320006FF38F0503FB0B6645EA8605C0F8AC50AA
:10533000D4F8548008FB0A65D0F8F0606FF38F064C
:1053400046EA8506C0F8F060D0F8F0E0A66D2EF4CD
:105350007C1747EA0647C0F8F070F70007EB8507AF
:10536000D0F8C0506FF38F052F43C0F8C070D0F84D
:10537000C070009DDDF804E027F47C1705FB0CFCF1
:105380004AF2000547EA0E47C0F8C070C4F20005B3
:1053900003FB0BC305F54067D0F8C05007EB820252
:1053A00007EB810125F07C57029D47EA0567C0F8AD
:1053B000C07001EBC90008FB0A372167A16E00EB42
:1053C0008C0C606700EB8303E266C4E91EC30EFB2E
:1053D00001F300EB87006943C4F8800000EBC600CE
:1053E000C4F8840000EB8300C4F8880000EB81005F
:1053F0004DF2FC31C4F20001C4F89000884201D99A
:1054000020206BE682421ED21146002041F8040B98
:10541000D4F890309942BFF46AAE506002F10801AE
:10542000D4F8903099423FBF906002F10C01D4F85B
:1054300090309942BFF45BAED0601032D4F8901037
:105440008A42E1D353E6002003B0BDE8F08F0000AC
:10545000B0B5B6B0044602A8B8210025CDE9345550
:10546000CDE932553195FBF7ADFB4DF20041206897
:10547000C4F20001884278D04AF20041C4F200012F
:10548000884239D04AF20001C4F20001884240F05B
:10549000BC80002003904FF4004002904FF08050F9
:1054A0001D9002A802F030FE08B1FDF701F942F2AA
:1054B0004C2144F2E040C2F20001C5F602000A6845
:1054C000002A02F101020A6008D1C16841F480712A
:1054D000C160C16801F480710191019901681524CE
:1054E00041F0080101600068132500F008000190F8
:1054F0000198092103226AE0002003904FF4004044
:1055000002904FF080501D9002A802F0FDFD08B1FE
:10551000FDF7CEF842F24C2144F2E040C2F2000125
:10552000C5F602000A68002A02F101020A6008D1E9
:10553000C16841F48071C160C16801F4807101915A
:1055400001990168162441F00201016000681425E8
:1055500000F00200019040F600400199C5F60200FB
:105560000921A0F50060602235E04FF40040029070
:105570004FF080501D9002A8039502F0C5FD08B1C0
:10558000FDF796F842F24C2144F2E040C2F20001ED
:10559000C5F602000A68002A02F101020A6008D179
:1055A000C16841F48071C160C16801F480710191EA
:1055B00001990168A02441F00801016000689F255D
:1055C00000F00800019005214FF44052019840F688
:1055D0000040C5F60200359131A931920222329283
:1055E0000022CDE9332200F0F7F9052100222846F8
:1055F00000F09EFB284600F087FB05210022204694
:1056000000F096FB204600F07FFB36B0B0BD0000F6
:10561000704700000000000070B582B043F66C16C1
:105620000246C2F20006336A98424FF00000019031
:105630000AD043F6EC20C2F200000368186A8242E6
:1056400000F0AA8002B070BD43F65C10B7EE000A0D
:10565000C2F2000006F17804B16906F1480290ED4B
:10566000001A31EE000A80ED000AB0680130B06027
:1056700018462346FFF778FA45F6A005B06CC2F24B
:105680000005A0F5A0718BB2B5F89023934207D125
:1056900005F55770214610F0EBFDB06CA0F5A07138
:1056A0008BB2B5F82023934207D105F53B70214614
:1056B00010F0DEFDB06CA0F5A0718BB2B5F8B02291
:1056C000934207D105F51F70214610F0D1FDB06C53
:1056D000A0F5A0718BB2B5F84022934207D105F531
:1056E0000370214610F0C4FDB06CA0F5A07189B222
:1056F000B5F8D021914205D105F5CE70214610F0C4
:10570000B7FDB06CA0F50070B5F84C1080B28842BF
:1057100070D1B6F878009FED7E1AB6F87A209FED2A
:105720007D2AC1BA00EE101AD3BAB6F87C1000BABE
:1057300012BAB8EEC00A000CE885100CA885C8BAE9
:1057400020EE010A09BA090C298620EE020A02EEAF
:10575000103A96F87E1085ED0E0A6986B8EEC23AC8
:1057600002EE100A85ED0D3A03EE101AB8EEC24AA9
:1057700095ED112A30EE422A85ED0F4A9FED664ADB
:10578000B8EE433A85ED103AB4EE442AF1EE10FA41
:1057900014DD9FED631A18E09A68996901329A60E6
:1057A00003F148027833FFF7DFF943F6EC20C2F249
:1057B000000002B0BDE8704010F0D2B89FED573A3B
:1057C000B4EE432AF1EE10FA01DA32EE012A9FED2F
:1057D000551A686E82EE011A95ED122A013068663C
:1057E00005F1500085ED110A32EE011A85ED121A0D
:1057F0000FF0C6FD45F2E46401AAC2F200040221E2
:10580000206818F00DFFB6F84800B5F80411A0F5AF
:10581000007080B2884264D1B6F878009FED3C1ADF
:10582000B6F87A209FED3B2AC1BA00EE101AD3BA1F
:10583000B6F87C1000BA12BAB8EEC00A000CA5F88F
:10584000E600100CA5F8E400C8BA20EE010A09BA77
:10585000090CA5F8E81020EE020A02EE103A96F8BC
:105860007E1085ED3C0AA5F8EA10B8EEC23A02EEC9
:10587000100A85ED3B3A03EE101AB8EEC24A95EDD8
:105880003F2A30EE422A85ED3D4A9FED234AB8EE8D
:10589000433A85ED3E3AB4EE442AF1EE10FA02DDC9
:1058A0009FED1F1A06E09FED1D3AB4EE432AF1EE7C
:1058B00010FA01DA32EE012A9FED1A1AD5F81C010E
:1058C00082EE011A95ED402A0130C5F81C0105F55C
:1058D000847085ED3F0A32EE011A85ED401A0FF013
:1058E0004FFD206801AA042118F09AFE01980028B3
:1058F0003FF4A8AE4EF604504FF08051CEF20000B7
:105900000160BFF34F8FBFF36F8F02B070BD00BF58
:105910000000B4430000003900003443000034C3E9
:105920000000B4C3000010427047000000000000F7
:1059300090F8981001290CD1022180F89810016884
:105940008A6922F001028A610021C0F89C100020BF
:105950007047D0F89C1041F00401C0F89C10012061
:1059600070470000000000007047000000000000C9
:1059700070470000000000007047000000000000B9
:1059800070470000000000007047000000000000A9
:105990007047000000000000704700000000000099
:1059A0007047000000000000704700000000000089
:1059B0007047000000000000704700000000000079
:1059C0008821C5F600010A68024208BF70470860D6
:1059D000FFF7F2BF000000002DE9F04F83B00F6821
:1059E000002F00F0C88000F1264642F2004506F183
:1059F000FF76C5F602050A22A8424FEAB62540F214
:105A0000040C08BF092200F120030093082DC5F6FD
:105A1000000C38BF4FEAB622002400264FF00008E1
:105A200001920AE008F101080F6837FA08F206F15E
:105A3000020604F1040400F09E80012202FA08FE2E
:105A400017EA0E09EED0D1F804B003220BF00307D9
:105A5000B2407D1E6FEA020A012D11D88268CD681E
:105A600002EA0A02B5402A438260CBF3001542687D
:105A700022EA0E0205FA08F52A43426004E000BF5C
:105A8000032F01D103271FE0C2688D6802EA0A02D2
:105A9000B540022F42EA0502C26015D16FF0030241
:105AA00004F01C0502EA580B009A0F2352F80BE091
:105AB000AB400F692EEA0303AF403B4342F80B3083
:105AC000D1F804B00BF00307026807FA06F302EA04
:105AD0000A021BF4403F42EA03020260A2D044F2F1
