:020000040800F2
:10000000B015012095040008D9E30008F9B60008EE
:10001000D1E30008992000086123010800000000D6
:1000200000000000000000000000000021EC0008BB
:10003000E12500080000000011E8000851EC00086C
:10004000AF040008AF040008AF040008AF040008C4
:10005000AF040008AF040008AF040008AF040008B4
:10006000AF040008AF040008AF04000861210008D5
:10007000712100088121000891210008A1210008B8
:10008000B1210008C1210008AF04000811260008B2
:10009000312600082126000841260008AF04000888
:1000A000AF040008AF040008AF040008AF04000864
:1000B000AF040008AF040008AF040008AF04000854
:1000C000AF040008AF040008AF040008AF04000844
:1000D000B9EA000841FF0008AF040008AF040008B7
:1000E000E9250008AF04000800000000AF04000884
:1000F000AF040008AF040008AF040008AF04000814
:10010000AF040008AF040008AF040008AF04000803
:10011000AF04000881EF0008AF040008AF04000836
:10012000AF040008AF040008AF040008AF040008E3
:10013000AF040008AF040008AF040008AF040008D3
:1001400000000000000000000000000000000000AF
:10015000AF040008AF040008AF040008AF040008B3
:10016000AF040008AF040008AF040008AF040008A3
:10017000AF040008F9E70008AF0400080000000021
:10018000AF040008AF040008AF040008AF04000883
:10019000AF040008AF040008C9EA0008AF04000873
:1001A000AF040008AF040008AF040008000000001E
:1001B000AF040008AF040008AF040008AF04000853
:1001C000AF040008AF0400080000000000000000B9
:1001D0000000000000000000AF0400080000000064
:1001E000000000000000000000000000000000000F
:1001F0000000000000000000AF040008AF04000889
:10020000AF040008AF04000800000000AF040008BD
:10021000AF040008AF04000809EE0008AF040008AE
:10022000AF04000800000000AF0400080000000058
:10023000AF040008AF04000800000000AF0400088D
:10024000AF040008A11D0008AF040008AF040008B7
:10025000AF040008AF040008AF040008AF040008B2
:10026000AF040008AF040008AF040008AF040008A2
:10027000AF040008AF040008AF040008000000004D
:10028000AF040008AF040008AF040008AF04000882
:1002900000000000AF040008AF04000800000000E8
:1002A00000000000AF040008AF040008AF0400081D
:1002B00029FF0008AF040008AF0400085126000819
:1002C00061260008AF040008AF04000800F002F83F
:1002D00000F0D1F814A696E8000CB244B344DA4515
:1002E00001D100F0C8F8BAE80F000FA696E8300078
:1002F000A5EB040504EB0607AAEB0704A7F1010729
:100300004FEA15154FEA3414A4F10104AC4201D3AD
:1003100000F0B1F813F0010F18BFFB1A43F001030E
:1003200000F001F8DBE71847B020020000210200CE
:100330000A444FF0000C10F8013B13F0070408BF0B
:1003400010F8014B1D1108BF10F8015B641E05D0A9
:1003500010F8016B641E01F8016BF9D113F0080F5E
:100360001EBF10F8014BAD1C0C1B09D16D1E58BFF0
:1003700001F801CBFAD505E014F8016B01F8016B27
:100380006D1EF9D59142D6D370470000704700002A
:100390000023002400250026103A28BF78C1FBD88E
:1003A000520728BF30C148BF0B6070476E2900F06C
:1003B0005385702900F02582662920F00A86652978
:1003C00020F00786672920F00486612920F0038643
:1003D00003681B0A28BF41F08001692900F096815B
:1003E000642900F09381752900F090816F2900F055
:1003F0004186782900F0F181E92900F0DB85E429C4
:1004000000F0D885F52900F0D585EF2900F03E866B
:10041000F82900F0F0810368DB0928BF41F0800172
:10042000632900F05C85732900F06185E32901F000
:100430008382F32901F08882002070471FB520F0E5
:1004400072FD9DE8030000F067FE01F0F9FA040078
:10045000002000211FF012FF401C606000200021DE
:100460001FF0F6FEE06000F015FC1FBD10B5002087
:1004700001F092FA10BD01F0B5FA1146FFF7DEFF68
:1004800019F0D6FB01F0ACFB03B4FFF7EFFF03BCA0
:1004900001F0B6FB0948804709480047FEE7FEE740
:1004A000FEE7FEE7FEE7FEE7FEE7FEE7FEE7FEE724
:1004B00004480549054A064B7047000059ED0008FD
:1004C000CD020008B0030120B0150120B0050120C5
:1004D000B005012053EA020C00F069802DE9F04BD1
:1004E0004FF00006002B1FBFB3FA83F503FA05F4A3
:1004F00024FA05F65E4012BF1643B2FA82F502FAFC
:1005000005F4C5F120051EBF22FA05FC44EA0C04DF
:10051000203556EA044C4FEA144418BF641C4FF0CF
:1005200000084FF00009904271EB030C39D3002909
:1005300019BFB1FA81F701FA07F6B0FA80F700FAAD
:1005400007F6C7F120071EBF20FA07FC46EA0C0693
:100550002037B6FBF4FCA7EB0507103F07F01F0B95
:10056000CBF120062CFA06F60CFA0BFB44BFB3467F
:100570000026202FA4BF5E464FF0000B5BEA060C5E
:1005800008BF4FF0010B19EB0B0948EB0608ABFB5A
:10059000027C06FB02CC0BFB03CCC01B71EB0C01F5
:1005A000C1E70B46024641464846BDE8F08B13B50D
:1005B000084318BF4FF0FF300146AFF30080BDE89D
:1005C0001C4070477CB51D4616460C00009007D0B5
:1005D0004142A14202D32044401E01E04FF0FF30CF
:1005E000064B7B442A4669460190304600F04DFC9C
:1005F000002C02D0009A002111707CBDD5080000AB
:100600000FB41CB5084B06AA7B44694600900598B8
:1006100000F03BFC04460020694600F049FC2046FF
:100620001CBC5DF814FB0000A50800000FB41CB54D
:100630000C0007AA009007D04142A14202D32044F7
:10064000401E01E04FF0FF30074B7B4469460190AC
:10065000069800F01AFC0021002C01D0009A1170BD
:100660001CBC5DF814FB00006D08000070B504466A
:1006700085690068C10601D5302600E02026C00744
:1006800007D070BDD4E9012130469047206A401C54
:1006900020626D1EF6D570BD70B504468569007880
:1006A000C00707D170BDD4E9012120209047206AFE
:1006B000401C20626D1EF6D570BD70B50C46054617
:1006C000012A05D02878800600D5EA69002302E0D7
:1006D000012305E05B1C934202D2E05C0028F9D1C3
:1006E000A869E618C01AA861286A18442862284632
:1006F000FFF7BCFF04E0D5E9012114F8010B904796
:10070000B442F8D32846FFF7C7FF70BD2DE9F0418A
:100710000646002410687529314616A510D000F051
:1007200030FB002802DA404213A507E031688A074F
:1007300001D512A502E0490704D511A5012401E065
:1007400000F028FB00210A2206F1240709E0B0FB93
:10075000F2FCB0FBF2F302FB1C0030307854184678
:10076000491C0028F3D123462A463046BDE8F04113
:1007700000F019BB000000002D0000002B0000005D
:1007800020000000F0B40D460188090502D5214C77
:100790007C4402E01F4C7C440E34002100F124060E
:1007A00008E002F00F071209E75D42EA03721B0935
:1007B0007754491C52EA0307F3D102780023120749
:1007C00004D5702D06D009B1022311342246F0BCA5
:1007D00000F0E9BA01231034F8E770B504460D467D
:1007E0002146106800F0D6FA024629462046BDE8A8
:1007F00070400023C6E7D21D22F00703D3E900238F
:10080000C0E70368126843F0200303600823C36154
:100810000023B7E7460802002DE9F05F8946044649
:100820004FF0000ADFF874B1FB44C0F820A0204666
:10083000E1688847002874D0252806D0D4E9012132
:100840009047206A401C2062F1E700265F46204660
:10085000E16888472028054607DB312D05D2781945
:1008600010F8200C08B10643F1E7B00701D526F0D7
:100870000406C4F81CA00027C4F818A02A2D09D02B
:1008800028461FF0BFFC38B304EB8708303DC8F89A
:10089000185019E059F8041B204604EB87029161B7
:1008A000E1688847012F054618D1E069002820DA61
:1008B00026F020061DE0D8F8180000EB800005EBBC
:1008C00040003038C8F818002046E16888470546DF
:1008D0001FF098FC0028EED1012F0AD02E2D08D150
:1008E0002046E16888477F1C0546022F46F0200617
:1008F000C4DBA069002803DA404246F00106A0618B
:10090000F00701D026F010066C2D0BD0682D09D011
:100910004C2D39D06A2D35D0742D35D07A2D33D069
:1009200016E038E0E1682F4620468847B842054681
:1009300009D16C2F26D04FF48060E1680643204631
:100940008847054604E06C2F1AD04FF480700643A8
:100950000DB3A5F14100192802D8203546F40066F0
:100960004A462946204626604E46FFF71FFD80B1C5
:1009700001280BD0F61D26F0070000F1080956E704
:100980004020E4E78020D8E70020D6E706F10409FC
:100990004DE7284652E7206ABDE8F09FD6070200DF
:1009A0000B460146184600F07BBB10B5431C02E025
:1009B00010F8011B71B18107FAD14FF0013202C862
:1009C0008C1A8C4314EAC211F9D0C01A0A0603D05B
:1009D000C01E10BDC01A10BD0A0401D0801E10BD7B
:1009E0000902FCD0401E10BD40EA010370B59B0710
:1009F0002ED14FF00136042A2AD308C810C99D1BF6
:100A00009D43121F15EAC61517D0D8B2E1B2401A9D
:100A100050EA056110D198B2A1B2401A50EA0541DE
:100A20000AD123F07F4024F07F41401A50EA05218B
:100A300002D1180EA0EB146070BDA342DBD018BA2F
:100A400021BA884201D9012070BD4FF0FF3070BD3E
:100A50000AB9002070BD10F8013B11F8014B63B1D9
:100A6000A3420AD1521E08D010F8013B11F8014BE5
:100A70001BB1A34201D1521EEDD1181B70BD032A38
:100A800040F2308010F0030C00F0158011F8013BAB
:100A9000BCF1020F624498BF11F801CB00F8013B92
:100AA00038BF11F8013BA2F1040298BF00F801CB56
:100AB00038BF00F8013B11F0030300F02580083A2D
:100AC000C0F0088051F8043B083A51F804CBA0E884
:100AD0000810F5E7121D5CBF51F8043B40F8043BD9
:100AE000AFF30080D20724BF11F8013B11F801CB0E
:100AF00048BF11F8012B24BF00F8013B00F801CBDF
:100B000048BF00F8012B704710B5203AC0F00B80A9
:100B1000B1E81850A0E81850B1E81850A0E81850F3
:100B2000203ABFF4F5AF5FEA027C24BFB1E8185069
:100B3000A0E8185044BF18C918C0BDE810405FEACB
:100B4000827C24BF51F8043B40F8043B08BF704747
:100B5000D20728BF31F8023B48BF11F8012B28BF4C
:100B600020F8023B48BF00F8012B704702F0FF035A
:100B700043EA032242EA024200F024B84FF00002A6
:100B80000429C0F0128010F0030C00F01B80CCF19F
:100B9000040CBCF1020F18BF00F8012BA8BF20F80D
:100BA000022BA1EB0C0100F00DB85FEAC17C24BF61
:100BB00000F8012B00F8012B48BF00F8012B70470B
:100BC0004FF0000200B5134694469646203922BFE6
:100BD000A0E80C50A0E80C50B1F12001BFF4F7AF31
:100BE000090728BFA0E80C5048BF0CC05DF804EB13
:100BF000890028BF40F8042B08BF704748BF20F881
:100C0000022B11F0804F18BF00F8012B7047000035
:100C100030B44FF0013C50F8042BCCFA52F451F8A8
:100C2000043BD51A20D1FCB950F8042BCCFA52F46D
:100C300051F8043BD51A17D1B4B950F8042BCCFAAB
:100C400052F451F8043BD51A0ED16CB950F8042B6C
:100C5000CCFA52F451F8043BD51A05D1002CDAD065
:100C600030BC4FF00000704729BAB1FA81F111F0A1
:100C70001801D1F120008440F2D1CA40CB4012F0DB
:100C8000FF0213F0FF0330BCD01A70477047704763
:100C90007047000008487CB57844009007487844C5
:100CA000009C0546019004E0204601680844804706
:100CB000241DAC42F8D17CBD381A0200361A02005D
:100CC00070B5064600F004FA056806F10B0020F046
:100CD0000704B4429CBF002070BD2B466A68BAB1BD
:100CE0001068A04210D304F1080188423CBF50684C
:100CF000586007D35168101941601168091B0160E1
:100D000058601460101D70BD13465268002AE7D168
:100D10002146284600F0ECF90028DED170BD70B500
:100D20000446051F00F0D4F90068002C14BF446885
:100D300070BD002C18BFAC423CBF20466468F8D39D
:100D400001680A18AA4218BF456003D12A680546FF
:100D50001144016028684119A1421CBF6C6070BD3C
:100D60006168696021680844286070BD10B500F0B2
:100D7000B7F9006810BD10B5044600F0B1F9046081
:100D800010BD09684A0501D540B27047C905FCD5B8
:100D900000B2704709684A0501D5C0B27047C9055D
:100DA000FCD580B270472DE9F0470D469946924632
:100DB000044600F124080168880604D5E06921F0A2
:100DC0001001216000E00120A84201DD471B00E086
:100DD0000027A1697A1902EB0900081AA06120789E
:100DE000C00602D42046FFF741FC002608E0D4E903
:100DF00001211AF806009047206A401C761C2062E8
:100E00004E45F4DB2078C0060AD52046FFF72EFCBD
:100E100006E0D4E9012130209047206A401C20627E
:100E2000381EA7F10107F4DC07E0D4E9012118F826
:100E300005009047206A401C2062281EA5F101058C
:100E4000F3DC2046FFF728FC2078000602D50220BC
:100E5000BDE8F0870120FBE711680268006A5305CE
:100E600001D508700AE0D30501D5088006E0130615
:100E700003D5C217C1E9000200E0086001207047F5
:100E800001694A1C02610878704700B58FB0CDE94E
:100E900001310021059105497944CDE9031011463E
:100EA0006846FFF7B9FC0FB000BD0000E5FFFFFF8B
:100EB0000A6802F8010B0A607047D1E900239A42E0
:100EC00002D2531C0B601070704710B5436913B108
:100ED000AFF3008001E0FFF7F0FB012010BD1278B6
:100EE00000F124010A7000224A700122EDE7116826
:100EF0004FF0FF32E9E700002DE9FF5F15468A4613
:100F00000446DFF8AC80F8440027D8E900103E46DC
:100F1000CDE9001010E03AF816106A4602A800F079
:100F200017FD411C07D02178890603D5E2693918DD
:100F300091420DD80744761C2078800602D5E069DE
:100F4000B84205DDAE42E6DB3AF816000028E2D1F1
:100F5000A069C01BA0612046FFF788FBD8E90010FC
:100F6000CDE90010002017E03AF818106A4602A8F0
:100F700000F0EEFCB0F1FF3F81460BD000250DF1F3
:100F8000080B05E0D4E901211BF8050090476D1C12
:100F90004D45F7D308F10100B0428046E4DB206AFA
:100FA000384420622046FFF777FBBDE8FF9F000032
:100FB0000A0102002DE9F0418046D21D22F007020D
:100FC0000025D2E90002F52915A614D0011E72F100
:100FD000000106DA0023D0EB030063EB020211A646
:100FE00008E0D8F800108B0701D50FA602E04907EA
:100FF00001D50EA601251146002408F1240704E0BE
:1010000000F0BFF830323A55641C50EA0102F7D1C3
:101010002B46324621464046BDE8F041FFF7C3BEAD
:10102000000000002D0000002B0000002000000048
:1010300030B4002100F1240408E002F00705D208D2
:10104000303542EA4372DB086554491C52EA030515
:10105000F3D10468002310A2250708D504F020046A
:101060000C4304D0C46901230CA2641EC46130BCCB
:10107000FFF799BE10B5044621461068FFF78AFEB7
:1010800002462046BDE810400023D1E7D21D22F0E1
:101090000701D1E90023CBE7000000003000000089
:1010A0002DE9F041074615460E461020FFF708FED1
:1010B00004000AD06760C4E9026500F00DF8016819
:1010C000216004600020BDE8F0810120FBE7000002
:1010D00000487047C021002000487047F0210020E0
:1010E00000487047B821002070477047704770472C
:1010F00038B504460A4600206946AFF30080002850
:1011000008BF38BD02460099204600F09DFC012032
:1011100038BD012000F06DBDF8B5AFF30080054685
:1011200000200C460C2000BF0646A819A0420DD98D
:10113000324669460020AFF30080070008BF00F088
:1011400058FD0098A04218BF0546C419FFF7C0FF1C
:1011500005600746F01D20F007004619284600F0FC
:101160000AF8B44208BFF8BDA21B31463868BDE892
:10117000F84000F069BC00210160416070470C201C
:10118000704730B5B0F10A0271F100034FEA900EDA
:101190004EEA817EB0EB0E0061EB91014FEA101E2A
:1011A0004EEA017E10EB0E0041EB11114FEA102EBA
:1011B0004EEA016E10EB0E0041EB11214FEA104E8A
:1011C0004EEA014E10EB0E0041EB1141401841F187
:1011D00000014FEAD00040EA41704FEAD1014FEAE6
:1011E000810444EA907410EB800544EB01046D190E
:1011F00044EB0404521BA3414FF0000348BF0A32E2
:1012000000D530BD401C41F1000130BD2DE9FF4F3C
:101210000C461E464FF0FF378BB0D2E90001DDF8D7
:1012200060800A908A46C1F30A5505B93D460021FF
:1012300008464FF00000BAF1000F00F4400005DA54
:1012400000EB80004FF4400101EA50004FEA905952
:10125000B9F1010F00DDB9460A9850EA4A000ED0F4
:1012600044F61050A5F2FF3545432F14B8F1000F96
:101270001ED07542291E1EDDC9F100021CE0B8F126
:10128000010F4FF0000001D0302103E0F24305E0F0
:101290002154401CB042FBDB304600220021215487
:1012A0000B99C1F80880C1E900200FB0BDE8F08FAC
:1012B000BD1B6D1CDEE74A4600DA694206A800F055
:1012C0001DFC06AB93E8070003AB83E8070050461C
:1012D0000A991DF04BFE8DE80700A0F500501F385D
:1012E00000900398002D0ADD42F21F014A4608448F
:1012F000002303A9039068461EF0B4F809E0A0F5A6
:1013000000504A461F38002303A9039068461EF088
:10131000BEF88DE807000004000C03D04FF0FF304A
:10132000410800E01046B8F1000F03D000220092FF
:1013300015461EE0751E05D4FFF723FF30326255B7
:101340006D1EF9D5B3460122084302D000227F1C4E
:1013500004E02078302801D100227F1E002A09975E
:1013600084D01DE0112D07DAFFF70BFF30326255F4
:101370006D1C50EA0102F5D1084302D00098C8B1B3
:101380000EE00021681E05E0235C625C6354225479
:10139000401E491C8142F7DBAB46A81B401E09904A
:1013A000002004F80B000B98099AC0F80880C0E9E7
:1013B000002B7AE711264FF0000857E72DE9F04F90
:1013C00088460446D21D22F0070191B0D1E9000100
:1013D000CDE90A011EF092F902460B98C00F01D028
:1013E0002D2007E02068810701D52B2002E0202175
:1013F00001EAC000032A099001D0072A05DB034651
:101400004146204600F03AFB0BE12078800601D5EA
:10141000E06900E00620B8F1650F814606D0B8F11A
:10142000660F18D0B8F1670F70D131E00020B9F124
:10143000110F009001DB112301E009F101030AAA59
:1014400001A90CA8FFF7E2FEDDE90C70002609F106
:101450000105834647E001204B4600904FF00047CE
:101460000AAA01A90CA8FFF7D1FEDDE90DB00C997D
:101470005D46002610B909F101000D18B9EB050011
:1014800003D4C0F1FF3609F10105A5EB09002BE0FB
:10149000B9F1010F01DA4FF001090020B9F1110F84
:1014A0000090484601DD112300E003460AAA01A985
:1014B0000CA8FFF7ABFEDDE90C704D460026834615
:1014C000207800070AD4AB4500DA5D4601A8012D5B
:1014D00004DD411911F8011C302907D04F4502DA0B
:1014E00017F1040F04DA012082460FE06D1EEEE7CB
:1014F000002F02DCED1B3E4403E0781CA84200DD17
:101500007D1CB81B00F1010A4FF00047207800074E
:1015100003D4AA4501DB4FF0FF3A0021B7F1004F99
:101520000DF143088DF8431024D002202B23002F07
:1015300001DA7F422D230A21021EA0F1010000DC06
:101540005FB197FBF1FC97FBF1F201FB1C7C1746A6
:101550000CF1300C08F801CDEEE7A8F101000370A2
:101560002188090501D5452100E06521A0F1010888
:1015700000F8011C09980FA9A1EB0807FF1D00B195
:101580000120411901EBEA70A1693844081A401E94
:10159000A0612078C00602D42046FFF767F80998BA
:1015A00028B1D4E901219047206A401C20622078AC
:1015B000C00622D52046FFF759F81EE0002E04DBB6
:1015C000B34502DD01A8805D00E03020D4E90121AF
:1015D0009047206A401C2062761CAAF101005FEA55
:1015E000000A0AD100F02CFAC0680168405CD4E916
:1015F00001219047206A401C2062281EA5F10105A8
:10160000DCDC07E0D4E9012118F8010B9047206ADF
:10161000401C2062381EA7F10107F3DC2046FFF7CB
:101620003BF8032011B041E62DE9F04F04460D468A
:10163000D21D22F0070089B0D0E90097484639460C
:101640001EF05CF80246F80F01D02D2307E0206859
:10165000810701D52B2302E0202101EAC0038DF888
:1016600020300BB1012000E00020032A824601D087
:10167000072A04DB2946204600F000FA3FE12078E3
:10168000800601D40D2500E0E569C7F30A560D2D4B
:1016900049DA00214FEA175B08464FF00000002F9F
:1016A00000F4400007DA00EB80004FF4400100EB4B
:1016B000D07001EA60008115012901DD4FF0FF3192
:1016C00000224FEA850CBCF1180F06D31346ACF18B
:1016D00018004FF08052C24003E04FF4801323FA09
:1016E0000CF30CF10C0CBCF1200F04D3ACF1200C6A
:1016F00009FA0CF001E007FA0CF000294FF000485D
:1017000001DD18B90FE00ED140450CD319EB0209E9
:101710005F4121B9404502D19F4329EA0209BBEB51
:10172000175F00D0761C2088000502D57B487844DE
:1017300002E07A487844193808AA302302F80A30BF
:10174000037C0AF10101002E0AF1020A53546A4691
:1017500002DC4FF0300101E04FF031014FF00108A1
:101760008DF8001002D0A6F2FF3603E059EA4701D7
:1017700000D06B4E002D02DC2178090704D54FF014
:1017800002082E218DF80110C44600210BE0C7F39A
:1017900003433F01C35C491C6D1E02F80830052954
:1017A00008F1010801DA002DF1DC00210CE000EB6A
:1017B0001973491C1B786D1E082902F808304FEA7E
:1017C000091908F1010801DA002DF0DC21688B0607
:1017D00002D516E0A8F10108E04505DD02EB08039B
:1017E00013F8013C302BF5D0B8F1000F09DD02EB06
:1017F000080313F8013C2E2B03D1090701D4A8F1EB
:101800000108002D05DD3E2102F808106D1E08F1CB
:101810000108407C002E02F8080008F1010804DAF3
:101820002D20764202F8080002E02B2002F8080082
:101830000A214FF47A70864208F101080BDB96FB0F
:10184000F0F3303302F8083096FBF0F308F10108AA
:1018500000FB136601E0642E0CDB642096FBF0F3C2
:10186000303302F8083096FBF0F308F1010800FB72
:10187000136601E00A2E06DB96FBF1F0303002F829
:10188000080008F1010896FBF1F001FB1060303010
:1018900002F80800A16908F1010808EB050202EB53
:1018A0000A00081AA0612078C00602D42046FEF77C
:1018B000DDFE216A08AE01EB0A00206204E0D4E9F3
:1018C000012116F8010B9047BAF1010AF7D22078EE
:1018D000C00602D52046FEF7C9FE6E4609E016F89E
:1018E000010B3E280FD0D4E901219047206A401C0B
:1018F0002062B8F10108F2D22046FEF7CDFE09B011
:101900000320BDE8F08F206A2844206203E0D4E978
:101910000121302090476D1EEBD3F8E71DF901003F
:1019200002FCFFFF10B5436913B1AFF3008001E083
:10193000FFF7E2FA012010BD128800F12401828431
:101940000022C2840122EDE711684FF0FF32E9E77F
:101950002DE9F04116460C46054600F069F803688B
:1019600093F80101012807D0FF2C12D8185D80B12F
:1019700001202C70BDE8F081D3F8070132462146E2
:1019800003F20713C7182846BC46BDE8F041002300
:1019900060474FF0FF30EDE72DE9F0410646FFF7D5
:1019A0009BFB8046454613E016B1E068B0420ED17D
:1019B00020682860D4E90101D8F8007088472046E3
:1019C000FFF7ADF9D8F80000B842EBD100E02546AA
:1019D0002C68002CE8D1BDE8F08100000048704779
:1019E000B82100207546FFF7F9FFAE4605006946AD
:1019F000534620F00700854618B020B5FEF758FD85
:101A0000BDE820404FF000064FF000074FF00008FF
:101A10004FF0000BAC46ACE8C009ACE8C009ACE83C
:101A2000C009ACE8C00921F007018D4670470000ED
:101A300010B500F005F8001D10BD00BF41E8010021
:101A400000487047D8210020034640688C46002893
:101A500018BF88423CBF03464068F8D31868184452
:101A6000884207D00CF1030020F00700001D411A46
:101A7000521A0146081D0A60FFF751B92DE9F041DD
:101A80001F46044603260168072A01F4006004DBB0
:101A900008B116A505E016A503E008B115A500E0FC
:101AA00015A521F010002060A069C01EA0610FB133
:101AB000401EA0612046FEF7D9FD4FB1D4E90121B7
:101AC00038469047206A401C2062C01C206206E015
:101AD000206AFAE7D4E9012115F8010B9047761E38
:101AE000F8D22046FEF7D8FDBDE8F0814E414E0009
:101AF0006E616E00494E4600696E66002DE9F04742
:101B0000814616468AB0354878440DC88DE80D00E8
:101B100032487844801C03AC0DC884E80D0041F6BF
:101B20009B300844372190FBF1F290FBF1F5A5F1D1
:101B3000800501FB12041B3C02D56442012000E039
:101B40000020DFF898A080460027FA44AAF1BE0AD8
:101B50000EE0E0070AD03246684607EB4701012352
:101B60000AEB81011DF093FC8DE8070064107F1CD7
:101B7000002CEED1194F7F44AE3F19E0E80715D095
:101B800007EB04100DF1180A90E80E008AE80E0029
:101B9000C068F04201D1981908903246012306A985
:101BA00003A81DF074FC03AB83E807006D10641CF0
:101BB000002DE3D14FF0010332466946B8F1000F22
:101BC00003A802D01DF04EFC01E01DF060FCC9E945
:101BD0000001C9F808200AB0BDE8F087D4F501007B
:101BE00010B50446AFF300802046BDE81040FEF774
:101BF0004BBC10B500F010F8BDE8104000F007B87D
:101C000001491820ABBEFEE72600020070470028FD
:101C100001D0FFF7F5BF704710B5012805D00021AE
:101C200003A000F021F8012010BD09A1F8E7000091
:101C300053494752544D454D3A204F7574206F66B5
:101C40002068656170206D656D6F7279000000001D
:101C50003A2048656170206D656D6F727920636F01
:101C6000727275707465640070B505460C460A2082
:101C700000E06D1C00F011F835B128780028F8D18B
:101C800002E0641C00F009F814B120780028F8D1B3
:101C9000BDE870400A20AFF3008008B569468DF8B2
:101CA00000000320ABBE08BD10B50446006842F238
:101CB000001140F48070C4F20201884204D142F263
:101CC0000830C4F2020003E046F20830C5F6020014
:101CD000006810F4403F0FD006F04EFF6168B1F588
:101CE000803F05D0B1F5403F22D0B1F5003F20D173
:101CF000090CB0FBF1F01CE04FF40020002105F0CE
:101D00009FFF6168A1F580228B0343EA92420A2A71
:101D10000FD8DFE802F0060606060606383A3C3E13
:101D200040006FF0010202EA5141B0FBF1F000E027
:101D300080084BF62141C0F2BE01884205D82068D8
:101D4000816821F44071816010BD47F64101C0F205
:101D50007D11884206D820680122816862F309213A
:101D6000816010BD21684FF28102C0F2FA229042D8
:101D7000886804D8022262F30920886010BD40F40C
:101D80004070886010BD0009D3E74009D1E78009A1
:101D9000CFE7C009CDE7000ACBE700000000000054
:101DA00044F21830C2F2000001F0A6BC00000000AE
:101DB00040F600000121C5F60200012203F01CBE1E
:101DC00040F600000121C5F60200002203F014BE17
:101DD000704700000000000040F600000821C5F632
:101DE0000200012203F008BE40F600000821C5F6FB
:101DF0000200002203F000BE704700000000000057
:101E0000002808BF704710B54EF2180145F2003C9B
:101E1000CEF20001C0F2070C03E000BF013802045B
:101E20001AD051F804EC0B68002208E01A449C42D6
:101E3000A2EB0402234628BF72446245EED20C682E
:101E40009C42F3D10C689C4204BF0C689C42EDD1CB
:101E50000C689C42F3D0E9E7BDE8104070470000F1
:101E600080B54EF21801C0EB0010CEF200014FEA2F
:101E7000401E002351F804CC0A6808E01344904245
:101E8000A3EB0003024628BF634473450CD20868E5
:101E90009042F3D10868904204BF08689042EDD1A7
:101EA00008689042F3D0E9E780BD00000000000020
:101EB00010B5FFF78DFFFFF79FFF17F00DFB0446EE
:101EC00017F096FB204310BD2DE9F04F81B0009232
:101ED0000E468146FFF774FF922000F0C5F892206D
:101EE00000F0C2F8552000F0BFF88046552000F001
:101EF000BBF88346552000F0B7F88246552000F025
:101F0000B3F80446552000F0AFF80746552000F01E
:101F1000ABF80546FFF74CFF48EA0B2000B24AEA4F
:101F2000042109B200EE100A42F20800C2F20000D9
:101F3000B8EEC00A90ED001A21EE000A01EE101A68
:101F400047EA052186ED000A09B290ED002A00EE6D
:101F5000101AB8EEC11AB8EEC00A22EE011A86EDC8
:101F6000011A22EE000A86ED020AFFF73DFF8020EB
:101F700000F07AF8552000F077F80646552000F07A
:101F800073F8552000F070F88246552000F06CF888
:101F90000546552000F068F88346552000F064F8A7
:101FA0000446552000F060F80746552000F05CF824
:101FB0008046FFF711FF0F2E28D14AEA052000B214
:101FC0004BEA042109B200EE100A42F20C00C2F200
:101FD0000000B8EEC00A90ED001A21EE000A01EEF2
:101FE000101A47EA082189ED000A09B290ED002A8B
:101FF00000EE101AB8EEC11AB8EEC00A22EE011AAD
:1020000089ED011A22EE000A89ED020AFFF7D8FED7
:10201000A22000F029F8A22000F026F8552000F0B8
:1020200023F80446552000F01FF80546FFF7C0FED0
:10203000E0004FF6000340EA55110022CFF6FF738F
:10204000B2EB902F18BF1943B4EE001AB3EE072A73
:1020500000EE101A0098B8EEC00AA0EE012A80ED3A
:10206000002A01B0BDE8F08F80B582B08DF807007E
:1020700044F60850C2F200000DF107010DF106020E
:1020800001234FF47A7CCDF800C007F00DFC9DF8D9
:10209000060002B080BD0000FEE700000000000066
:1020A0000020704700000000002070470000000082
:1020B00010B543F6DC6443F21011C2F20004C2F220
:1020C0000001002220460EF013F942F610112046BE
:1020D000C2F200010EF0FCF8002010BD000000006C
:1020E00045F248110246C2F200010846114614F0BA
:1020F000DBBF00000000000070B543F6DC6605465B
:10210000C2F200060C46304629460EF0E1F8304691
:102110000EF0BAF828462146FFF7E2FF002070BD16
:10212000002070470000000043F6DC62C2F20002AB
:10213000D2F8BC22D2F81422002A1CBF012070471A
:1021400010B543F6DC640A46C2F20004014620469C
:102150000EF0CEF82046BDE810400EF045B9000064
:1021600044F22820C2F2000001F0C6BA00000000CC
:1021700044F2A020C2F2000001F0BEBA000000004C
:1021800044F20840C2F2000001F0B6BA00000000BC
:1021900044F29030C2F2000001F0AEBA000000003C
:1021A00044F2F840C2F2000001F0A6BA00000000BC
:1021B00044F27050C2F2000001F09EBA000000002C
:1021C00044F28040C2F2000001F096BA0000000024
:1021D00040F20F42D0F800C0C4F20202944510DC75
:1021E0006F22C4F20202944520DC3F22C4F20202B4
:1021F000944536DC1022C4F20202944554D02822C1
:102200004EE040F26F42C4F2020294451ADC40F202
:102210003F42C4F2020294452ADC40F21042C4F26A
:102220000202944540D040F2284239E09F22C4F295
:102230000202944525DC7022C4F20202944533D098
:1022400088222DE040F29F42C4F2020294451FDC36
:1022500040F27042C4F20202944525D040F2884216
:102260001EE04022C4F2020294451DD0582217E01D
:1022700040F24042C4F20202944515D040F2584266
:102280000EE0A022C4F2020294450DD0B82207E06D
:1022900040F2B842C4F20202944505D040F2A04296
:1022A000C4F20202944517D10CF0F8024AF6AB23AF
:1022B000103ACAF6AA23A2FB033109A35F2AC1F38D
:1022C00002115B5C40F2FF312CEA0101C36588BF5B
:1022D00004318165084670472CF0FF01F9E700BF23
:1022E000000610160006101670B540F26F44D0F8C4
:1022F00000C0C4F20204D0F858E0A44519DC9F25C0
:10230000C4F20205AC4531DC5725C4F20205AC45E8
:1023100056DC1025C4F20205AC4500F09280282559
:10232000C4F20205AC4500F08C804025C4F20205E1
:1023300084E045F22F45C5F60205AC452BDC40F2A2
:10234000B745C4F20205AC4548DC40F27045C4F222
:102350000205AC4575D040F28845C4F20205AC4593
:102360006FD040F2A045C4F2020567E040F2274575
:10237000C4F20205AC4540DCA025C4F20205AC4520
:102380005FD0B825C4F20205AC455AD040F21045E2
:10239000C4F2020552E045F26B45C5F60205AC45B4
:1023A0003CDC45F23045C5F60205AC4549D045F266
:1023B0004445C5F60205AC4543D045F258453BE0DF
:1023C0005825C4F20205AC453BD07025C4F2020585
:1023D000AC4536D08825C4F202052FE040F2B8455E
:1023E000C4F20205AC452CD045F20845C5F60205FD
:1023F000AC4526D045F21C451EE040F22845C4F20B
:102400000205AC451DD040F24045C4F20205AC4582
:1024100017D040F25845C4F202050FE045F26C4572
:10242000C5F60205AC450CD045F29445C5F602054B
:10243000AC4506D045F28045C5F60205AC4540F0F6
:10244000CC80456EC66E002E866E6E601CBFD0E9D5
:102450001C566E60A44515DC9F24C4F20204A445FA
:102460002BDC5724C4F20204A4454EDC1024C4F231
:102470000204A44576D02824C4F20204A44571D0F5
:1024800040246BE045F22F44C5F60204A44527DC46
:1024900040F2B744C4F20204A44542DC40F2704466
:1024A000C4F20204A4455DD040F28844C4F20204A0
:1024B000A44557D040F2A04450E040F22744C4F273
:1024C0000204A4453CDCA024C4F20204A44549D083
:1024D000B824C4F20204A44544D040F210443DE0C4
:1024E00045F26B44C5F60204A44553DC45F2304482
:1024F000C5F60204A4455FD045F24444C5F6020483
:10250000A44559D045F2584452E05824C4F202047C
:10251000A44527D07024C4F20204A44522D0882404
:102520001CE040F2B844C4F20204A4451AD045F2BB
:102530000844C5F60204A4453ED045F21C4437E0E9
:1025400040F22844C4F20204A4450BD040F24044B7
:10255000C4F20204A44505D040F25844C4F2020477
:10256000A4453AD18468C06D00F01F003F2505FAEC
:1025700000F0CEF80800DCF80000402C20F48020A9
:10258000CCF80000CCF8043023D1CCF80820CCF8EB
:102590000C1070BD45F26C44C5F60204A4450BD086
:1025A00045F28044C5F60204A44505D045F29444A2
:1025B000C5F60204A44510D1C46D012504F01F0422
:1025C000806805FA04F4CEF804404028CCF80430C2
:1025D000DBD0CCF80810CCF80C2070BD0000000057
:1025E000704700000000000080B54FF4806003F0E9
:1025F0001BF94FF48050BDE8804003F015B900008E
:10260000EFF3108072B600BFFEE70000000000008C
:1026100044F2E850C2F2000002F026BB00000000C5
:1026200044F2E850C2F2000002F01EBB00000000BD
:1026300044F28860C2F2000002F016BB0000000005
:1026400044F28860C2F2000002F00EBB00000000FD
:1026500044F22870C2F2000002F006BB0000000045
:1026600044F22870C2F2000002F0FEBA000000003E
:10267000F0B5D1E900C4D1F808E00D692CB14EEAFB
:102680000C04254345F0804C03E045EA8C4444EAC1
:102690000E0C856ED0F88470D1E907466B438D69C6
:1026A00044EA0660D1F814E0CC68054307EB8300E8
:1026B00045EA0E0647F823C046EA04434360CB6868
:1026C000002B08BFF0BD41F2F86C08300132002346
:1026D000C0F6020CD71857F8017CC750CF680433F6
:1026E0001CF80770BB42F5D3F0BD000000000000ED
:1026F00042F2F820C2F2000090ED690A7047000033
:1027000042F2F820C2F2000090ED680A7047000023
:1027100042F2F820C2F2000090ED6A0A7047000011
:102720002DE9F04381B00022009290F85C20012A4C
:1027300001D1022112E20368012280F85C209A682C
:10274000520700F1038246F2083C4FF6FF7EC5F6C1
:10275000020CC0F20F0EACF542780C68434515D060
:10276000B4F1FF3F12DD94FAA4F514EA0E0FB5FAA6
:1027700085F54FF0010608BFA50EA40E05F01F0554
:1027800006FA05F5DE693543DD6100E0A40E4D680B
:102790001F2204F01F04C5F3012605F01F05AA40FF
:1027A00003EB8606AC40376B27EA02022243326312
:1027B0009A689C6802F0040204F00804121940F0C0
:1027C00015810A6807268D684345C2F34064C2F349
:1027D000045203EB840406FA02F6676905FA02F272
:1027E00027EA060642EA0602626111D041F20002BF
:1027F000C5F60042126802F07042B2F1805F6DD1FE
:102800004A69DC680E2505EA540402FA04F97BE003
:102810004FF60452CFF6FF72D1E90454042D5CF850
:10282000026065D14FF65852CFF6FF725CF8022075
:102830001A6E0E68C2F3846216EA0E04C6F384654B
:1028400096FAA6F6B6FA86F6374608BF2F46BA427B
:102850000CD11A6E22F000421A660A6802EA0E04CF
:10286000C2F3846592FAA2F2B2FA82F65A6E374641
:102870005A6E002C08BF2F46C2F38462BA420CD1B4
:102880005A6E22F000425A660A6802EA0E04C2F347
:10289000846592FAA2F2B2FA82F69A6E37469A6E7E
:1028A000002C08BF2F46C2F38462BA420CD19A6E44
:1028B00022F000429A660A6802EA0E04C2F38465B6
:1028C00092FAA2F2B2FA82F6DA6E002CDA6E08BF41
:1028D0002E46C2F38462B2423CD087E0DA684C698B
:1028E000DD68D2064FEA55050AD405F00E0209E06C
:1028F00006224FF0004902EA960204FA02F72EE09F
:1029000005F0080204FA02F90D694F46042D26D19C
:102910001A6E0C6802F0F842A406A24203D11A6EA5
:1029200022F000421A665A6E02F0F842A24203D127
:102930005A6E22F000425A669A6E02F0F842A242A3
:1029400003D19A6E22F000429A66DA6E02F0F842E3
:10295000A2424BD1DA6E22F00042DA6646E003F181
:1029600060060A68434502F0F84256F8254042EAFC
:10297000090218BF04F00047434542EA070246F83F
:1029800025200C691BD091F821200D7E56F824706B
:1029900027F00047012A08BF07F100476A1EB2FA74
:1029A00082F246F8247052090C69D2021D6904F0C3
:1029B0001F0425F4F045A2402A431A6116E0ACF545
:1029C0002A72CD6952F8246026F08076354342F8A9
:1029D00024500C6991F8205052F82460012D26F003
:1029E000007608BF06F1007642F824609A68D207A4
:1029F00067D143450C68CD680DD005F01806D3F8B3
:102A0000C02004EA0E072EFA06F6BA4326403243E7
:102A1000C3F8C02012E04FF6A85905F01807CFF60A
:102A2000FF7904EA0E022EFA07F75CF8096026EA3D
:102A3000020207EA040632434CF809200022C4F2DD
:102A4000FF7295423AD114EA0E0F11D094FAA4F213
:102A5000B2FA82F2013202F01E07092F02F01F07BC
:102A60000FD8012207EB4706BA4042EA065714E0A6
:102A7000012202EB946202F01E070A2F02F01F07E8
:102A8000EFD3012207EB4706BA400027CFF62067B5
:102A900007EB06573A4342F00077C7F34062072539
:102AA000C7F304578E6803EB8202BD40546906FAEF
:102AB00007F724EA05052F4357610C68B4F1FF3F7F
:102AC00001DD002147E042F2000142F20016C4F2AB
:102AD0000201C4F2020601F5807201F542779342C9
:102AE000624608BF3A468B4208BF3A4643F48077B5
:102AF000B742166822D18A68D1F808111143C90774
:102B000024D1002106F0E075CCF252718C4208BF4E
:102B100016F4000126D00021CCF221318C425ED186
:102B20000021B1EB156F5AD1434514D1DCF80010E8
:102B300021F0E071294341F0807163E04FF60051CC
:102B4000CFF6FF715CF80110C907DAD0016E41F0D1
:102B5000200101660121002280F85C20084601B0B6
:102B6000BDE8F0834345ACD1DCF8001042F6635277
:102B700021F0E071C0F23E52294341F40001CCF84B
:102B8000001042F2C001C2F2000109688909A1FBEC
:102B900002129109022202EB4101009100990029E1
:102BA0008FD0009901390091009900293FF489AF35
:102BB000009901390091009900293FF482AF0099F2
:102BC00001390091009900293FF47BAF0099013948
:102BD0000091009900294FF00001E2D1BBE7434585
:102BE0004FF00001B7D10022CCF68432944208BFE6
:102BF00016F48002AFD1DCF8001021F0E071294317
:102C000041F48001CCF800105BE7000000000000F8
:102C1000F0B581B0044600284FF0000000902DD0A0
:102C2000206E30B9204600F067F90020606684F815
:102C30005C002068816889004FF6C071C5F6FF719D
:102C400002D582680A4082608268D2002FD48268EE
:102C500001F18051114042F6635241F08051816090
:102C600042F2C001C0F23E52C2F200010968890975
:102C7000A1FB0212012101EB921103E0012537E1D2
:102C8000009901390091009989B1009901390091A9
:102C9000009961B1009901390091009900291FBF85
:102CA000009901390091009918BF0029E8D1816885
:102CB000C90009D4216E012541F010012166616E21
:102CC00041F00101616600E000258168226E02F09A
:102CD000100201F004018918216E39D121F48171AB
:102CE00046F2100C023121668168C5F6020CC90754
:102CF00023D142F2001240F48071C4F202029142E8
:102D000042F20001C4F2020130D18A68D1F80831E0
:102D10001A43D20711D101F5807201F54273904236
:102D20001A4618BF0CF53E72884208BF1A46616801
:102D3000136823F47C1319431160617EE36BACF1DB
:102D40001006B04243EA413306D0A16819431CE0A3
:102D500041F010000125CAE0D4E9021E08290AD07A
:102D60000C290AD01C290AD110210BE05CF8082C90
:102D7000D207D0D0E1E7002104E0082102E01829C1
:102D800018BF002141EA0E01194394F82030012BAD
:102D900041EA034306D1616A0022CFF6FE7202EBDC
:102DA00041410B43A16A21B101F47871E26A1143F8
:102DB0000B43B04208D04CF20302C168CFF6F07268
:102DC00011401943C16011E044F207025CF8041C91
:102DD000CFF6F072114019434CF8041CDCF80010D7
:102DE000626B21F040611143CCF800108168826869
:102DF00001F0040102F00802891869D1217EB04275
:102E00004FEA813126D0226BC36844F20307BB43EB
:102E10001A431143C16094F84410012948D14FF678
:102E20001E020169CFF600420126D4E91237114093
:102E3000CFF6FF7606EB03433943276D1943636DE5
:102E40003943226C19430161016921F0704111433A
:102E500001613AE05CF8042C94F8383044F2030E37
:102E600094F8447022EA0E0242EA4302012F41EA3A
:102E700002014CF8041C1BD14FF61E01DCF80000C7
:102E8000CFF600410840D4E912120843216D1043E7
:102E9000626D0843216C104340F00100CCF8000043
:102EA000DCF8000020F070400843CCF800000FE090
:102EB0000169B04221F0010101610169226C21F038
:102EC000704141EA0201016102D02046FEF7ECFEAA
:102ED00020682169026B012922F00F0102D1E26909
:102EE000013A114301630121206E61F30100206664
:102EF000284601B0F0BD0000B0B5B0B0044602A84D
:102F000044F2E04528309021C5F60205FDF758FE51
:102F1000206805F5D951884201D030B0B0BD0020FD
:102F200003904FF4002102910221049110220B9092
:102F3000CDE90521CDE90711C021CDE9091002A88D
:102F400005F026F808B1FFF75BFB286840F08070B9
:102F50002860286800F080700190019830B0B0BD02
:102F60002DE9F041044602F04FFD14B3054694F8F4
:102F70003500022820D140F20F462768C4F202062D
:102F800040F26F48B7426FF00E00C4F2020817DC3F
:102F90006F21C4F202018F4223DC3F21C4F20201FF
:102FA0008F4239DC1021C4F202018F4258D028210F
:102FB00051E00120BDE8F08180206065012040E201
:102FC00047451ADC40F23F41C4F202018F422ADC3D
:102FD00040F21041C4F202018F4241D040F2284138
:102FE00039E09F21C4F202018F4225DC7021C4F236
:102FF00002018F4234D088212DE040F29F41C4F27B
:1030000002018F421FDC40F27041C4F202018F4284
:1030100026D040F288411EE04021C4F202018F42D6
:103020001ED0582117E040F24041C4F202018F4205
:1030300016D040F258410EE0A021C4F202018F42A6
:103040000ED0B82107E040F2B841C4F202018F422D
:1030500006D040F2A041C4F202018F42394607D1A6
:103060003946386820F01E0041F8140B6FF08000DC
:103070000A68474500EA0200086019DC9F20C4F294
:103080000200874231DC5720C4F20200874256DC3E
:103090001020C4F20200874200F091802820C4F280
:1030A0000200874200F08B804020C4F2020084E0DE
:1030B00045F22F40C5F6020087422BDC40F2B740B4
:1030C000C4F20200874248DC40F27040C4F20200C1
:1030D000874274D040F28840C4F2020087426ED02A
:1030E00040F2A040C4F2020067E040F22740C4F280
:1030F0000200874240DCA020C4F2020087425ED07A
:10310000B820C4F20200874259D040F21040C4F205
:10311000020052E045F26B40C5F6020087423CDCFB
:1031200045F23040C5F60200874248D045F244409F
:10313000C5F60200874242D045F258403BE0582095
:10314000C4F2020087423AD07020C4F202008742E3
:1031500035D08820C4F202002FE040F2B840C4F21B
:10316000020087422BD045F20840C5F60200874294
:1031700025D045F21C401EE040F22840C4F2020077
:1031800087421CD040F24040C4F20200874216D071
:1031900040F25840C4F202000FE045F26C40C5F620
:1031A000020087420BD045F29440C5F602008742E8
:1031B00005D045F28040C5F60200874204D1206E5A
:1031C000016821F480710160386820F001003860E6
:1031D0003868C0070BD002F017FC401B0628F7D355
:1031E00020206065032084F83500012029E1206853
:1031F000B04210DC6F21C4F2020188421CDC3F2186
:10320000C4F20201884232DC1021C4F20201884279
:1032100050D028214AE040451ADC40F23F41C4F238
:10322000020188422ADC40F21041C4F202018842C5
:1032300040D040F2284139E09F21C4F20201884287
:1032400025DC7021C4F20201884233D088212DE0B0
:1032500040F29F41C4F2020188421FDC40F27041FB
:10326000C4F20201884225D040F288411EE040218C
:10327000C4F2020188421DD0582117E040F24041BB
:10328000C4F20201884215D040F258410EE0A0215C
:10329000C4F2020188420DD0B82107E040F2B841E3
:1032A000C4F20201884205D040F2A041C4F20201FA
:1032B000884259D1D4E9161202F01F023F2303FAC3
:1032C00002F28A60404559DC9F21C4F20201884223
:1032D00014DC5721C4F20201884226DC1021C4F21A
:1032E0000201884200F09D802821C4F20201884238
:1032F00000F097804021C4F2020190E040F22741A3
:10330000C4F2020188421EDCA021C4F202018842FC
:1033100000F08780B821C4F20201884200F0818069
:1033200040F21041C4F2020179E05821C4F20201D6
:10333000884276D07021C4F20201884271D088217F
:10334000C4F202016BE040F22841C4F2020188425B
:1033500067D040F24041C4F20201884261D040F29D
:103360005841C4F202015AE0D4E9161202F01F02D9
:10337000012303FA02F24A604045A5DD45F22F41E0
:10338000C5F60201884216DC40F2B741C4F20201E0
:10339000884225DC40F27041C4F20201884240D0EC
:1033A00040F28841C4F2020188423AD040F2A04182
:1033B000C4F2020133E045F26B41C5F602018842D6
:1033C0001DDC45F23041C5F60201884229D045F2A4
:1033D0004441C5F60201884223D045F258411CE021
:1033E00040F2B841C4F2020188421AD045F20841C5
:1033F000C5F60201884214D045F21C410DE045F2A9
:103400006C41C5F6020188420BD045F29441C5F6E5
:103410000201884205D045F28041C5F6020188428A
:103420000BD1616EA26EE06E4A6030B1016821F48A
:1034300080710160D4E91C014160012084F83500ED
:103440000020002184F83410BDE8F0810000000065
:10345000F0B190F83510022918D180B540F20F4232
:103460000168C4F20202914214DC6F23C4F2020329
:10347000994224DC3F23C4F2020399423ADC102330
:10348000C4F20203994258D0282352E080214165BA
:103490000120704740F26F43C4F2020399421ADCE4
:1034A00040F23F43C4F2020399422ADC40F2104347
:1034B000C4F20203994240D040F2284339E09F23EE
:1034C000C4F20203994225DC7023C4F2020399423C
:1034D00033D088232DE040F29F43C4F20203994287
:1034E0001FDC40F27043C4F20203994225D040F23F
:1034F00088431EE04023C4F2020399421DD05823A2
:1035000017E040F24043C4F20203994215D040F262
:1035100058430EE0A023C4F2020399420DD0B82311
:1035200007E040F2B843C4F20203994205D040F2EA
:10353000A043C4F20203994271D191424FF00402B8
:1035400080F8352010DC6F20C4F20200814220DCBC
:103550003F20C4F20200814236DC1020C4F2020097
:10356000814253D028204EE040F26F40C4F2020066
:1035700081421ADC40F23F40C4F2020081422ADC60
:1035800040F21040C4F2020081423FD040F2284095
:1035900039E09F20C4F20200814225DC7020C4F291
:1035A0000200814232D088202DE040F29F40C4F2D8
:1035B000020081421FDC40F27040C4F202008142EE
:1035C00024D040F288401EE04020C4F20200814234
:1035D0001CD0582017E040F24040C4F20200814263
:1035E00014D040F258400EE0A020C4F20200814204
:1035F0000CD0B82007E040F2B840C4F2020081428B
:1036000004D040F2A040C4F202008142086820F0D9
:10361000010008600021BDE88040084670470A6844
:1036200022F00E020A6045F25742C5F602029142AC
:103630000A6822F001020A600EDC45F22F42C5F64C
:103640000202914217DC45F20842C5F6020291429D
:1036500026D045F21C421FE045F27F42C5F6020229
:10366000914211DC45F25842C5F60202914217D050
:1036700045F26C4210E045F23042C5F6020291423A
:103680000ED045F2444207E045F29442C5F60202EC
:10369000914205D045F28042C5F6020291421AD10C
:1036A000D0E9181CD0E916E30A6822F480720A6097
:1036B00003F01F01012202FA01F1CEF80410816E1D
:1036C000CCF80410C16E31B10A6822F480720A602D
:1036D000D0E91C124A60012180F83510026D0021EA
:1036E000002A80F8341096D0904793E7000000003D
:1036F000406D7047000000002DE9F04782B00021C6
:10370000019142F2C0010446C2F2000148F2B51232
:10371000C1F64E32A56D096840F26F490068C4F2E7
:103720000209A1FB021848452E68296815DC9F2173
:10373000C4F2020188422BDC5721C4F20201884204
:103740004FDC1021C4F20201884278D02821C4F253
:103750000201884273D040216CE045F22F42C5F649
:103760000202904227DC40F2B742C4F202029042C9
:1037700043DC40F27041C4F2020188425FD040F263
:103780008841C4F20201884259D040F2A04151E080
:1037900040F22741C4F2020188423DDCA021C4F27C
:1037A000020188424BD0B821C4F20201884246D0BF
:1037B00040F210413EE045F26B42C5F602029042F3
:1037C00073DC45F23042C5F60202904200F0808080
:1037D00045F24442C5F60202904279D045F2584281
:1037E00071E05821C4F20201884228D07021C4F24D
:1037F0000201884223D088211CE040F2B842C4F282
:10380000020290421BD045F20842C5F602029042E5
:103810005ED045F21C4256E040F22841C4F202015B
:1038200088420CD040F24041C4F20201884206D0E6
:1038300040F25841C4F20201884240F02C83E16D0D
:10384000082201F01F0140F20F4A8A40C4F2020A26
:10385000324200F0D18050454FF0040312DC6F2754
:10386000C4F20207B84264DC3F27C4F20207B84240
:1038700000F392801027C4F20207B84200F0B08033
:103880002827A8E0484560DC40F23F47C4F2020721
:10389000B84200F3888040F21047C4F20207B842F1
:1038A00000F09E8040F2284795E045F26C42C5F654
:1038B000020290420CD045F28042C5F602029042CC
:1038C00006D045F29442C5F60202904240F0E382EF
:1038D0000268E36D03F01F0304279F400F4218BFE7
:1038E00012F004061BD102279F400F4218BF12F0AE
:1038F000020639D1D940090740F1CD8212F0080102
:1039000000F0C982016821F00E010160012000FA77
:1039100003F16960606584F83500E16C5AE21104D6
:103920006F6033D4910635D4016821F00401016041
:1039300030E09F27C4F20207B8423DDC7027C4F292
:103940000207B8424CD0882745E040F29F47C4F2B6
:103950000207B84237DC40F27047C4F20207B842AF
:103960003ED040F2884736E011046F6000F1968245
:10397000910600F19782016821F00A01016001209F
:1039800084F83500002084F834008BE2D00301D4A1
:10399000A16C7AE2216C78E24027C4F20207B842B7
:1039A0001ED0582717E040F24047C4F20207B84241
:1039B00016D040F258470EE0A027C4F20207B842E2
:1039C0000ED0B82707E040F2A047C4F20207B84281
:1039D00006D040F2B847C4F20207B84218BF082325
:1039E00007681F4208D0036823F004030360AA603D
:1039F000626D42F00102626501228A4032426AD061
:103A0000504510DC6F23C4F2020398421CDC3F23B4
:103A1000C4F20203984232DC1023C4F2020398423B
:103A200051D028234AE048451ADC40F23F43C4F213
:103A3000020398422ADC40F21043C4F20203984287
:103A400041D040F2284339E09F23C4F20203984258
:103A500025DC7023C4F20203984234D088232DE081
:103A600040F29F43C4F2020398421FDC40F27043CD
:103A7000C4F20203984226D040F288431EE040235D
:103A8000C4F2020398421ED0582317E040F240438C
:103A9000C4F20203984216D040F258430EE0A0232D
:103AA000C4F2020398420ED0B82307E040F2A043CC
:103AB000C4F20203984206D040F2B843C4F20203B3
:103AC000984240F0F18143691B0604D5AA60626DFB
:103AD00042F00202626504228A4032426AD05045B6
:103AE00010DC6F23C4F2020398421CDC3F23C4F2B3
:103AF0000203984232DC1023C4F20203984251D0F0
:103B000028234AE048451ADC40F23F43C4F202034E
:103B100098422ADC40F21043C4F20203984241D09A
:103B200040F2284339E09F23C4F20203984225DC87
:103B30007023C4F20203984234D088232DE040F26F
:103B40009F43C4F2020398421FDC40F27043C4F268
:103B50000203984226D040F288431EE04023C4F27C
:103B6000020398421ED0582317E040F24043C4F2AB
:103B70000203984216D040F258430EE0A023C4F24C
:103B8000020398420ED0B82307E040F2A043C4F2EB
:103B90000203984206D040F2B843C4F202039842AE
:103BA00040F0848103689B0704D5AA60626D42F0EF
:103BB00004026265102202FA01F1314279D05045C7
:103BC0004FF0080210DC6F23C4F2020398421CDCA1
:103BD0003F23C4F20203984232DC1023C4F20203F2
:103BE000984251D028234AE048451ADC40F23F432E
:103BF000C4F2020398422ADC40F21043C4F20203EA
:103C0000984241D040F2284339E09F23C4F2020396
:103C1000984225DC7023C4F20203984234D08823F2
:103C20002DE040F29F43C4F2020398421FDC40F2B1
:103C30007043C4F20203984226D040F288431EE04B
:103C40004023C4F2020398421ED0582317E040F2EA
:103C50004043C4F20203984216D040F258430EE0AB
:103C6000A023C4F2020398420ED0B82307E040F22A
:103C7000A043C4F20203984206D040F2B843C4F213
:103C80000203984218BF04220368134211D0A960AE
:103C900001684903016806D4C90506D4016821F00A
:103CA0000801016001E008034DD4216C09B12046F0
:103CB0008847E06D00F01F01202000FA01F2324237
:103CC00000F0A78020681023504510DC6F27C4F255
:103CD0000207B8421CDC3F27C4F20207B84236DCB8
:103CE0001027C4F20207B84255D028274EE04845B5
:103CF0001ADC40F23F47C4F20207B8422EDC40F221
:103D00001047C4F20207B84245D040F228473DE0D0
:103D10009F27C4F20207B84229DC7027C4F20207C9
:103D2000B84238D0882731E040F29F47C4F20207FA
:103D3000B84223DC40F27047C4F20207B8422AD0EE
:103D400040F2884722E0A16C0029B0D1B1E74027BA
:103D5000C4F20207B8421ED0582717E040F240478D
:103D6000C4F20207B84216D040F258470EE0A0272E
:103D7000C4F20207B8420ED0B82707E040F2A047CD
:103D8000C4F20207B84206D040F2B847C4F20207B4
:103D9000B84218BF022307681F423AD0AA6094F8BD
:103DA0003520042A02681CD122F016020260426902
:103DB00022F080024261226C0AB9A26C1AB1026838
:103DC00022F0080202603F208840A860012084F8A9
:103DD0003500216D00294FF0000084F8340055D1E2
:103DE00059E0510301680CD4C9050ED4016821F0D3
:103DF00010010160012084F83500002084F83400AF
:103E000003E0080301D4616C00E0E16B09B12046D6
:103E10008847606D00283ED0606DC00734D0042014
:103E200084F8350020684FEA9821026822F00102E8
:103E30000260019A013201928A421AD80268D207BE
:103E400017D0019A013201928A4212D80268D20731
:103E50000FD0019A013201928A420AD80268D20731
:103E600007D0019A013201928A4202D80268D20731
:103E7000DFD10068C0074FF0030008BF012084F8BD
:103E80003500002084F83400E16C21B1204602B0F6
:103E9000BDE8F047084702B0BDE8F087D00301D481
:103EA000616CF2E7E16BF0E7026814E6026881E614
:103EB0002DE9F04381B0044601F0A6FD002C00F08E
:103EC000AB8040F26F4805462068C4F202084045C6
:103ED00015DC9F21C4F2020188422BDC5721C4F279
:103EE0000201884251DC1021C4F2020188427BD0D9
:103EF0002821C4F20201884276D040216FE045F2C9
:103F00002F41C5F60201884227DC40F2B741C4F2D6
:103F10000201884245DC40F27041C4F2020188424D
:103F200062D040F28841C4F2020188425CD040F283
:103F3000A04154E040F22741C4F20201884240DC33
:103F4000A021C4F2020188424ED0B821C4F202017D
:103F5000884249D040F2104141E045F26B41C5F63C
:103F60000201884200F3B48045F23041C5F60201F7
:103F7000884200F0BF8045F24441C5F60201884204
:103F800000F0B88045F25841B0E05821C4F2020177
:103F9000884229D07021C4F20201884224D08821AD
:103FA0001DE040F2B841C4F2020188421CD045F243
:103FB0000841C5F60201884200F09C8045F21C4190
:103FC00094E040F22841C4F2020188420CD040F251
:103FD0004041C4F20201884206D040F25841C4F286
:103FE0000201884240F0C280022184F8351000218D
:103FF00084F83410016821F0010101602068016833
:10400000C9070DD001F000FD401B0628F6D3202083
:104010006065032084F83500012001B0BDE8F0831D
:1040200048F23F0204F108060168CFF61062114021
:10403000D4F818C06CCE11431943E3692943256AAB
:104040000E43616A3343042943EA050343EA0C0340
:1040500003D1D4E90B652E433343666843F48012E1
:10406000A6F13F07A6F12905042FA6F1470938BF9D
:104070001346062DA6F14F0E38BF1346B9F1020FB5
:1040800026F0030738BF1346BEF1040F38BF1346AE
:10409000742F08BF134604290360426922F0070207
:1040A00041EA020140F07E80D4E90A53002B41EA44
:1040B000050100F07780BCF5005F59D0BCF1000F1E
:1040C00062D1022D63D0012D58D0002D5FD069E060
:1040D00045F26C41C5F6020188420BD045F28041A1
:1040E000C5F60201884205D045F29441C5F60201A9
:1040F00088423BD104F1080E022184F835100021DA
:1041000084F834100168A3699EE80450A2F1800588
:10411000E769B5FA85F566696D09402A4FEA853584
:1041200043EA07026FF3101142EA060208BF1025A6
:1041300041EADC0142EA0E02236A294341EAD20144
:1041400041EA131140F80819C0B2CD2148433C217F
:1041500001EA9020E0652046FEF73AF8E16D012281
:1041600001F01F0102FA01F1416026E040204FE713
:10417000032D17D8DFE805F00E0B0E02A3F1C07275
:10418000B2FA82F2520904E0032D03D30AD1C3F339
:1041900000623AB140206065012084F8350001B02A
:1041A000BDE8F08341612046FEF712F8E16D3F2241
:1041B00001F01F0102FA01F181602068404519DC1D
:1041C0009F21C4F20201884231DC5721C4F202016E
:1041D000884256DC1021C4F20201884200F092802D
:1041E0002821C4F20201884200F08C804021C4F2F0
:1041F000020184E045F22F41C5F6020188422BDC22
:1042000040F2B741C4F20201884248DC40F27041FA
:10421000C4F20201884275D040F28841C4F2020122
:1042200088426FD040F2A041C4F2020167E040F240
:104230002741C4F20201884240DCA021C4F20201FD
:1042400088425FD0B821C4F2020188425AD040F2BD
:104250001041C4F2020152E045F26B41C5F6020181
:1042600088423CDC45F23041C5F60201884249D023
:1042700045F24441C5F60201884243D045F2584117
:104280003BE05821C4F2020188423BD07021C4F2C5
:104290000201884236D08821C4F202012FE040F2A8
:1042A000B841C4F2020188422CD045F20841C5F65B
:1042B0000201884226D045F21C411EE040F228410E
:1042C000C4F2020188421DD040F24041C4F2020112
:1042D000884217D040F25841C4F202010FE045F283
:1042E0006C41C5F6020188420CD045F29441C5F6F6
:1042F0000201884206D045F28041C5F6020188429B
:1043000040F0DA8045F2574C45F6FC01C5F6020C48
:10431000C5F6020160450EDC45F22F42C5F60202E9
:10432000904217DC45F20842C5F60202904226D0C0
:1043300045F21C421FE045F27F42C5F60202904260
:1043400011DC45F25842C5F60202904217D045F200
:104350006C4210E045F23042C5F6020290420ED0A7
:1043600045F2444207E045F29442C5F6020290420B
:1043700005D045F28042C5F60202904244D100F0D9
:10438000FC024CF6CD43083ACCF6CC43A2FB032307
:10439000A1F1FC05A1F17C061B0905EB830503F0E7
:1043A0001F02A3682566802B4FF0010303FA02F277
:1043B0006666A26604D100206060286072601CE01E
:1043C0006768FBB2013F072F2B60726015D85E1E35
:1043D000082E17D2604501F1440235DC45F22F4723
:1043E000C5F60207B8423EDC45F20847C5F60207AB
:1043F000B84255D045F21C4746E000206067C4E94A
:104400001B0059E0E06E52E000F0F8024AF6AB23E0
:10441000103ACAF6AA23A2FB032740F20F43C4F2C4
:10442000020308253A09984203F1AA06134688BFF9
:1044300005EB171340F60005B042C4F2020505F182
:10444000800628BF1346A8E745F27F47C5F6020756
:10445000B84211DC45F25847C5F60207B8421FD0F2
:1044600045F26C4710E045F23047C5F60207B84206
:1044700016D045F2444707E045F28047C5F60207EB
:10448000B8420DD045F29447C5F60207B84207D0AE
:1044900040F60000C4F2020000F1FC0100F5A07239
:1044A00001EB83000121E066B140226761670021D2
:1044B0000160D4E91C01416000206065012184F89D
:1044C000351001B0BDE8F08338B1B0B5054690F8BD
:1044D0003400012803D10220B0BD01207047012023
:1044E00085F8340095F83500012828D1022085F898
:1044F0003500002068652868046824F00104046021
:104500002846FDF7F1FE40F20F422868C4F202028D
:1045100040F26F419042C4F2020118DC6F23C4F2F2
:104520000203984224DC3F23C4F2020398423ADC9F
:104530001023C4F20203984259D0282352E04FF4CA
:1045400000606865002085F834000120B0BD884215
:104550001ADC40F23F43C4F2020398422ADC40F2E4
:104560001043C4F20203984241D040F2284339E09C
:104570009F23C4F20203984225DC7023C4F2020395
:10458000984234D088232DE040F29F43C4F20203C6
:1045900098421FDC40F27043C4F20203984226D0D6
:1045A00040F288431EE04023C4F2020398421ED02A
:1045B000582317E040F24043C4F20203984216D059
:1045C00040F258430EE0A023C4F2020398420ED0FA
:1045D000B82307E040F2B843C4F20203984206D081
:1045E00040F2A043C4F20203984240F023810368E2
:1045F0000B2464F3440303602B6C1BB10823046891
:1046000023430360884219DC9F23C4F202039842CB
:1046100031DC5723C4F20203984256DC1023C4F263
:104620000203984200F091802823C4F202039842CA
:1046300000F08B804023C4F2020384E045F22F4354
:10464000C5F6020398422BDC40F2B743C4F20203E2
:10465000984248DC40F27043C4F20203984274D09E
:1046600040F28843C4F2020398426ED040F2A04365
:10467000C4F2020367E040F22743C4F20203984207
:1046800040DCA023C4F2020398425ED0B823C4F2F7
:104690000203984259D040F21043C4F2020352E0A0
:1046A00045F26B43C5F6020398423CDC45F23043C9
:1046B000C5F60203984248D045F24443C5F60203CA
:1046C000984242D045F258433BE05823C4F20203DB
:1046D00098423AD07023C4F20203984235D088231E
:1046E000C4F202032FE040F2B843C4F2020398423E
:1046F0002BD045F20843C5F60203984225D045F277
:104700001C431EE040F22843C4F2020398421CD02E
:1047100040F24043C4F20203984216D040F258439C
:10472000C4F202030FE045F26C43C5F6020398425F
:104730000BD045F29443C5F60203984205D045F2EA
:104740008043C5F6020398426ED12B6E1C68E403C9
:1047500003D51C6844F480741C60EB6E1BB11D68AB
:1047600045F480751D60904210DC6F21C4F2020197
:1047700088421CDC3F21C4F20201884232DC102155
:10478000C4F2020188424FD028214AE088421ADC54
:1047900040F23F41C4F2020188422ADC40F210415B
:1047A000C4F2020188423FD040F2284139E09F2103
:1047B000C4F20201884225DC7021C4F20201884261
:1047C00032D088212DE040F29F41C4F2020188429C
:1047D0001FDC40F27041C4F20201884224D040F252
:1047E00088411EE04021C4F2020188421CD05821B9
:1047F00017E040F24041C4F20201884214D040F276
:1048000058410EE0A021C4F2020188420CD0B82128
:1048100007E040F2B841C4F20201884204D040F2FD
:10482000A041C4F202018842016841F00101016027
:104830000020B0BD0368052464F3430303602B6CC0
:10484000002B3FF4DFAE0423D9E600000000000097
:10485000B0B5044601F0D8F842F2AE110546C2F2F6
:104860000001621C097818BF0C4400BF01F0CCF8AD
:10487000401BA042FAD3B0BD90F89830013B012B09
:104880000BD80068836D0B420CD0836D0B408B42BC
:104890000CD1C36D43F0020309E000F19C0101203B
:1048A000022221E0C36D43F0010300E00323C3654E
:1048B0008B0504D5D0F8E0301343C0F8E0304B0549
:1048C00004D5D0F8E4301A43C0F8E4204FF6FF7264
:1048D000436DC3F6CF720A401A4342658A0F4AF607
:1048E00014010020C4F200010B681A430A607047EB
:1048F000B0B5044690F8980002281AD12068D0F884
:10490000C03013F07C5F19D0D0F8C4309B021AD4A9
:10491000D0F8C400C0F3044520462B46FDF7A8FE9E
:1049200020680121A940C0F8D0100020C4F89410DC
:10493000B0BDD4F89C0040F0080008E0D4F89C001A
:1049400040F0200003E0D4F89C0040F40070C4F86C
:104950009C000120B0BD0000704700000000000076
:1049600090F89830012B0DD1012913D0E9B90068D6
:10497000D0F8F01021F07C5141EA0261C0F8F0104B
:1049800000207047D0F89C1041F00401C0F89C1042
:10499000012070470068D0F8A01021F0FE4141EAE4
:1049A0000261C0F8A010002070470068D0F8B01075
:1049B00021F0FE4141EA0261C0F8B01000207047CA
:1049C00090F89820013A012A0BD880B50A68002A8D
:1049D000CA680ED00B69072A43EA427E16D18B695A
:1049E00019E0D0F89C1041F00201C0F89C100120A1
:1049F0007047072A18D10A69D1E906C3120442EAAE
:104A0000032242EA0C0242F0605217E0D1F808C0DB
:104A10004B6943EA8C73006F496800EBC10240F8B0
:104A200031E05360002080BD8B68D1E904CE9B0744
:104A300043EAC26242EA0C4242EA0E024968C06E90
:104A400040F82120002080BD90F898C0BCF1010FF3
:104A50000DD19200006842EA0111DDF800C041EA80
:104A6000430141EA0C01C0F8801000207047D0F8E3
:104A70009C1041F00401C0F89C1001207047000018
:104A800070470000000000007047000000000000B8
:104A90002DE9F04390F89870022F11D1402914D1DC
:104AA0000668D6F8A07017F4FE0F2AD0D6F8A470C6
:104AB0007F062BD0D6F8A470FF0130D4002731E058
:104AC000D0F89C1041F0080124E041290FD106687C
:104AD000D6F8B07017F4FE0F13D0D6F8B4707F0676
:104AE00014D0D6F8B470FF0125D4002726E0076D56
:104AF0008F4206D900F17C04456D4FF0000C0E4644
:104B000025E0D0F89C1041F0200103E0D0F89C1083
:104B100041F48071C0F89C100120BDE8F083D6F804
:104B2000A070FF0FD6F8A46000F17404C6F3052648
:104B3000F519466C0AE0D6F8B070FF0FD6F8B460ED
:104B400000F17804C6F30526F519C66CAC4675432A
:104B5000246804EB850E54F8257017F080475760E1
:104B600054F8257027F0604608BFC7F38A461660E0
:104B700054F8257007F00057976054F8254004F06A
:104B800000441461BEF80440D461BEF8064014F03D
:104B90000F04D460DEF8044004F480145461DEF89D
:104BA000044004F4001494619EF8074004F07F046C
:104BB0001462DEF804404FEAD474546228D041F203
:104BC000F8680024C0F602080EEB0406651C377A6C
:104BD0001F55D76818F80770BD4219D21F19757A8A
:104BE0007D70D56818F80590A51C4D453FBFB57A76
:104BF000BD70D56818F805903CBFE51C4D4507D23F
:104C0000F57A0434FD70D56818F80550AC42DBD352
:104C1000402905D10068C0F8A8C00020BDE8F08395
:104C2000412905D10068C0F8B8C00020BDE8F08374
:104C30001F2908D80068012202FA01F1C0F8981073
:104C40000020BDE8F083006801F01F01012202FA94
:104C500001F1C0F89C100020BDE8F08300000000C6
:104C600070470000000000002DE9F04F89B00446B5
:104C70004AF61000C4F2000001684AF61400C4F2BB
:104C800000000268206802EA0108056DD0F854901F
:104C9000036D0893436D0793036D0293436D019376
:104CA000076D436D0593036D0493436D0393D0F833
:104CB00054A0D0F850B05FEACA5306970FD51BF442
:104CC00080710CD04FF4807101654AF6100100200C
:104CD000C4F2000108602046FFF7C2FF20685FEAC7
:104CE0004A5105EA09064FEA887716D54AF61009AF
:104CF0001BF48061C4F2000913D0D0F8DC10D0F8A6
:104D0000E42011404FF4806202650020C9F80000E1
:104D1000204600F075FD206803E04AF61009C4F251
:104D20000009DDE9072101EA020506F4704657B1E2
:104D30000021016508F00300C9F80000204639464B
:104D4000FFF70AFE2068DDE90121DDF80C8001EAA9
:104D5000020705F00F0546B106650020C9F80000FE
:104D60002046314600F054FD206807F0F00645B1BA
:104D700005650020C9F800002046294600F0E8FB40
:104D80002068DDE9045746B106650020C9F8000037
:104D90002046314600F0FCFC2068069E5FEA0A517E
:104DA0000CD51BF4006109D04FF4006101650020AF
:104DB000C9F80000204600F02FFD20685FEA8A5104
:104DC00011D51BF400710ED0D0F8D810D0F8E02027
:104DD00011404FF4007202650020C9F8000020461F
:104DE00000F012FD20685FEA0A310CD51BF40021A7
:104DF00009D04FF4002101650020C9F800002046C9
:104E000000F0A2FB20685FEACA310CD51BF48031A8
:104E100009D04FF4803101650020C9F80000204618
:104E200000F0EAFC20685FEA4A3105EA08050CD583
:104E30001BF4802109D04FF4802101650020C9F8BE
:104E40000000204600F0D4FC20685FEA8A3106EAC0
:104E5000070205F060710ED51BF400330BD04FF440
:104E6000003303650023C9F80030D4F89C3043F0C8
:104E70008003C4F89C3002F0715539B101650020FF
:104E8000C9F800002046FFF7FFFD206845B1056521
:104E90000021C9F80010D4F89C102943C4F89C10D4
:104EA000A9F50161884209D0D4F89C00002867D098
:104EB000204609B0BDE8F04FFFF7E2BD60688168A9
:104EC0008907F1D0016A426A036A476A114003EA1E
:104ED000070202F03005D0F82080D0F82490D0F8F6
:104EE00020B0D0F824A0026A089211F00F01426AA3
:104EF0000792466A026A069203D00162204600F0D9
:104F00006BFC08EA09072DB1606829460562204656
:104F100000F06AFC70060BEA0A0607F4C0750ED5AD
:104F2000069810F040000AD060684023C16BC26B45
:104F3000090C02F03F020362204600F051FCDDE95B
:104F4000071000EA010706F4FC462DB16068294607
:104F50000562204600F03CFC07F4F02036B16168A1
:104F60000E62D4F89C103143C4F89C1000289BD0EA
:104F700061680862D4F89C100843C4F89C0093E769
:104F800009B0BDE8F08F000040B32DE9F04F83B0C9
:104F90004AF200080446C4F200080068404502D105
:104FA00008F58071616094F8981031B9002084F898
:104FB0009900204600F0E4F92068816921F0100191
:104FC000816100F021FD054620688169090707D548
:104FD00000F01AFD401B0B28F6D312E001207047A9
:104FE000816941F00101816100F00EFD054600BFBD
:104FF00020688169C90711D100F006FD401B0B280C
:10500000F6D30120D4F89C100843C4F89C00032078
:1050100084F89800012003B0BDE8F08F816941F069
:1050200002018161217C826922F04002012918BFBE
:1050300040328261617C826922F48042012908BF8A
:1050400002F580428261A17C826922F480520129AA
:1050500018BF02F580528261816921F44073D4E95E
:1050600002120B438361836923F0A4038361036904
:1050700023F0100303619AB1012A0DD0022A09D04E
:105080008369032A43F080038361036943F01002BC
:10509000026105D1202200E0042283691A43826163
:1050A000D4E90572E369561E6FF0FF02256A02EB30
:1050B0000323B1F5407F43EA4663A5F1010646EAC2
:1050C000030640F20003CFF6FF7303EB074746EAFF
:1050D0000701C16110D1D4E90B65D4E90917013F7B
:1050E00002EB06226FF00F063A4306EB05173A4330
:1050F00003EB01411143C160236E2BB1616ED0F807
:10510000C0201143C0F8C010E16DCDE90113D942B0
:1051100041F2F801C0F6020109D0D0F8C820A36E10
:1051200022F0070251F823301A43C0F8C820D4F8FF
:1051300040A0BAF1000F09D0D0F8BC20636C22F077
:10514000070251F823301A43C0F8BC20D4F848C0F5
:10515000BCF1000F0AD0D0F8BC20E36C22F0700242
:1051600051F8233042EA0312C0F8BC20D4F850B002
:10517000BBF1000F0AD0D0F8BC20636D22F4E062CE
:1051800051F8231042EA0121C0F8BC10404504D177
:1051900061688A6822F003028A600021C4F89410D2
:1051A000C4F89C10012184F8981004F13409D0F857
:1051B00084104FF6FC729143656C99E80C020095DF
:1051C00041EA8201C0F88410D0F8841021F47F01F4
:1051D00041EA0341C0F884109918D0F888306FF381
:1051E0008F0343EA8103C0F88830D0F8883023F475
:1051F000FE0343EA0943C0F8883001EB4903D0F8C5
:10520000A0606FF38F0646EA8306C0F8A060D0F86E
:10521000A06026F4FE0646EA0A46C0F8A06005FB38
:105220000A36D0F8B0306FF38F0343EA8603C0F834
:10523000B030D0F8B03023F4FE0343EA0C43C0F89A
:10524000B030E36CD0F8AC506FF38F0503FB0C6605
:1052500045EA8605C0F8AC50D4F8548008FB0B65CD
:10526000D0F8F0606FF38F0646EA8506C0F8F0606C
:10527000D0F8F0E0A66D2EF47C1747EA0647C0F898
:10528000F070F70007EB8507D0F8C0506FF38F057B
:105290002F43C0F8C070D0F8C070009D27F47C1771
:1052A00005FB0AF5DDF804A003FB0C5347EA0A47A7
:1052B000C0F8C0704AF20007D0F8C0E0C4F200079E
:1052C000DDF808C007F5406707EB820207EB8101B4
:1052D0002EF07C5747EA0C67C0F8C07001EBC9009C
:1052E00008FB0B372167A16E00EB8505606700EBBB
:1052F0008303E266C4E91E530AFB01F300EB870057
:105300000CFB01F1C4F8800000EBC600C4F8840077
:1053100000EB8300C4F8880000EB81004DF2FC3103
:10532000C4F20001C4F89000884201D9202069E647
:1053300082421ED21146002041F8040BD4F890306E
:105340009942BFF468AE506002F10801D4F8903081
:1053500099423FBF906002F10C01D4F8903099421D
:10536000BFF459AED0601032D4F890108A42E1D325
:1053700051E6002003B0BDE8F08F000000000000FF
:10538000B0B5B6B0044602A8B8210025CDE9345521
:10539000CDE932553195FBF713FC4DF20041206801
:1053A000C4F20001884240D04AF20041C4F2000138
:1053B000884272D04AF20001C4F20001884240F0F3
:1053C000BE80002003904FF4004002904FF08050C8
:1053D0001D9002A802F0DCFD08B1FDF711F942F2C0
:1053E000402144F2E040C2F20001C5F602000A6822
:1053F000002A02F101020A6008D1C16841F48071FB
:10540000C160C16801F4807101910199016815249E
:1054100041F0080101600068132500F008000190C8
:10542000019803203190092132E04FF400400290AE
:105430004FF080501D9002A8039502F0A9FD08B11D
:10544000FDF7DEF842F2402144F2E040C2F20001F2
:10545000C5F602000A68002A02F101020A6008D1BA
:10546000C16841F48071C160C16801F4807101912B
:1054700001990168A02441F00801016000689F259E
:1054800000F008000190052101984FF44050319040
:1054900040F60040C5F6020038E0002003904FF4CB
:1054A000004002904FF080501D9002A802F070FD65
:1054B00008B1FDF7A5F842F2402144F2E040C2F203
:1054C0000001C5F602000A68002A02F101020A6022
:1054D00008D1C16841F48071C160C16801F4807174
:1054E000019101990168162441F0020101600068F0
:1054F000142500F00200019001986020319040F6E0
:105500000040C5F602000921A0F50060359131A9DF
:10551000022232920022CDE9332200F091F90521D6
:105520000022284600F038FB284600F021FB052128
:105530000022204600F030FB204600F019FB36B078
:10554000B0BD000000000000704700000000000037
:105550002DE9F04381B02DED048B82B043F64C155C
:10556000C2F20005A96881421AD043F68421C2F232
:1055700000010B689968814240F0E48003F1300239
:1055800053F8601BFFF784FA43F68420C2F2000050
:1055900002B0BDEC048B01B0BDE8F04310F044BA9A
:1055A00043F63C11B7EE000AC2F2000105F16004B7
:1055B00005F13002234691ED001A31EE000A81ED2B
:1055C000000A2968FFF764FA41F2B06045F6945684
:1055D000C0F60200C2F20006008896F8A81008443F
:1055E000296B6438814262D1B5F8660095F8618014
:1055F000B5F96270B5F9649096ED2D9A86ED319A01
:10560000A6F8B08096ED328AA6F8AE70A6F8AC90F7
:10561000A6F8AA001BF045F99FED590B53EC102B8F
:105620001BF0CAF90446D6F8CC000D461BF039F938
:1056300002460B46204629461AF01CFF1AF034FE9B
:1056400000EE100A01EE107A9FED502A30EE490A62
:10565000B8EEC11ABDEEC00A10EE101A9FED4A0A4C
:1056600021EE000A01EE109A0A4611F1B40FB8BFFC
:1056700002F5B472B42980EE020AC8BFA1F5B47273
:1056800002EE108AB8EEC11A03EE102A86ED2E1A29
:1056900086ED2F0AB8EE421AC6F8B400B8EEC33A47
:1056A00086ED301A38EE030A86ED320A32E041F216
:1056B000C26245F28870C0F60202C2F2000012888F
:1056C00090F8C8331344994202D100F568701EE087
:1056D00090F864331344994202D100F54F7016E0FC
:1056E00090F89C321344994202D100F51D700EE0EF
:1056F00090F800331344994202D100F5367006E069
:1057000090F838321A44914222D100F504702146B3
:105710000FF0FAFB45F2CC510020C2F200010190DB
:1057200001AA0868042118F083F9019850B14EF6D7
:1057300004504FF08051CEF200000160BFF34F8F54
:10574000BFF36F8F02B0BDEC048B01B0BDE8F083F6
:1057500041F2B66290F8D830C0F6020212881344C3
:10576000994201D12C3006E090F8C0311A449142A0
:10577000D0D100F58A7021460FF08AFACAE700BF3F
:105780000000000000807640000000420000FA4463
:10579000704700000000000090F8981001290CD11B
:1057A000022180F8981001688A6922F001028A615A
:1057B0000021C0F89C1008467047D0F89C1041F0BA
:1057C0000401C0F89C100120704700000000000098
:1057D000704700000000000070470000000000005B
:1057E000704700000000000070470000000000004B
:1057F000704700000000000070470000000000003B
:10580000704700000000000070470000000000002A
:10581000704700000000000070470000000000001A
:1058200070470000000000008821C5F600010A68EA
:10583000024208BF70470860FFF7F2BF0000000097
:105840002DE9F04F82B00D68002D00F0C78000F107
:10585000264242F2004402F1FF728305C5F60204BB
:105860000A27A04243EA922208BF0927082A40F2E9
:10587000040C38BF1746C5F6000C4FF0000E009719
:10588000002700260AE000BF01360D6835FA06F24F
:1058900007F102070EF1040E00F0A080012202FAC7
:1058A00006FB15EA0B08EFD0D1F804A003220AF09A
:1058B000030502FA07F36C1E6FEA0309012C0FD8E7
:1058C0008368CC6803EA0903BC4023438360CAF3BE
:1058D0000014436823EA0B03B4402343436003E00E
:1058E000032D01D1032520E0C3688C6803EA090376
:1058F000BC40022D43EA0403C36016D16FF00302DB
:105900000EF01C0502EA56030F22034402FA05FBBF
:10591000D3F820A00C692AEA0B0AAC4044EA0A0436
:105920001C62D1F804A00AF00305036805FA07F425
:1059300003EA09031AF4403F43EA04030360A3D0D7
:1059400044F2F44240F2084AC5F60202C5F6000AE3
:10595000136843F00203136013680F2203F002037D
:10596000019326F00303019C0EF00C0453F80A90F7
:1059700002FA04F5009A29EA050502FA04F44FF048
:10598000B0492C4343F80A40D9F800304C6843EA48
:105990000805E20258BF23EA0805C9F80050A5022D
:1059A000DCF8002042EA080358BF22EA0803A503F6
:1059B000CCF80030DCF8802042EA080358BF22EA25
:1059C0000803E403CCF88030DCF87C2042EA0803CA
:1059D00058BF22EA0803CCF87C3055E702B0BDE896
:1059E000F08F000000000000426902EA01039143C9
:1059F00041EA034181617047002A08BF09048161BF
:105A000070470000000000004FF6CC30C2F20000EA
:105A1000006870470000000042F2AE104FF6CC3133
:105A2000C2F20000C2F2000100780A681044086067
:105A3000704700000000000080B5032000F0DCF893
:105A400003F022F944F2184141F27223C5F6020133
:105A5000C0F602030A68C2F303229A5C096801F0E7
:105A60000F0102F01F02595CD04042F2C402C2F2A0
:105A7000000201F01F0120FA01F1116042F2C001A1
:105A8000C2F2000108600F2000F00AF800281CBFD5
:105A9000012080BD00F054F8002080BD000000000F
:105AA0000F2843D8B0B58AB004467620002221469C
:105AB000002500F071F8762000F05AF842F2B0109C
:105AC000C2F20000046044F2F040C5F60200016832
:105AD00041F480210160006801A900F48020029057
