:020000040800F2
:10000000780F0120E9030008294701089909010830
:1000100021470108F10F000851B30108000000005A
:10002000000000000000000000000000715A0108FC
:10003000F91B000800000000C1530108E15A010843
:100040000304000803040008030400080304000874
:100050000304000803040008030400080304000864
:100060000304000803040008030400083911000811
:10007000491100085911000869110008030400081B
:10008000030400080304000803040008291C0008F6
:10009000491C0008391C0008591C0008030400080A
:1000A0000304000803040008030400080304000814
:1000B0000304000803040008030400080304000804
:1000C00003040008030400080304000803040008F4
:1000D000C9570108030400080304000803040008CA
:1000E000011C0008030400080000000003040008CD
:1000F00003040008030400080304000803040008C4
:1001000003040008030400080304000803040008B3
:100110000304000801660108030400080304000842
:100120000304000803040008030400080304000893
:100130000304000803040008030400080304000883
:1001400000000000000000000000000000000000AF
:100150000304000803040008030400080304000863
:100160000304000803040008030400080304000853
:1001700003040008215001080304000800000000E7
:100180000304000803040008030400080304000833
:100190000304000803040008D957010803040008F9
:1001A0000304000803040008030400080000000022
:1001B0000304000803040008030400080304000803
:1001C0000304000803040008000000000000000011
:1001D0000000000000000000030400080000000010
:1001E000000000000000000000000000000000000F
:1001F00000000000000000000304000803040008E1
:1002000003040008030400080000000003040008C1
:100210000304000803040008315D0108030400081A
:1002200003040008000000000304000800000000B0
:100230000304000803040008000000000304000891
:1002400003040008F90B0008030400080304000875
:100250000304000803040008030400080304000862
:100260000304000803040008030400080304000852
:100270000304000803040008030400080000000051
:100280000304000803040008030400080304000832
:100290000000000003040008030400080000000040
:1002A0000000000003040008030400080304000821
:1002B000E17801080304000803040008691C000831
:1002C000791C0008030400080304000800F002F889
:1002D00000F07BF814A696E8000CB244B344DA456B
:1002E00001D100F072F8BAE80F000FA696E83000CE
:1002F000A5EB040504EB0607AAEB0704A7F1010729
:100300004FEA15154FEA3414A4F10104AC4201D3AD
:1003100000F05BF813F0010F18BFFB1A43F0010364
:1003200000F001F8DBE718472C8802007C88020007
:100330000A444FF0000C10F8013B13F0070408BF0B
:1003400010F8014B1D1108BF10F8015B641E05D0A9
:1003500010F8016B641E01F8016BF9D113F0080F5E
:100360001EBF10F8014BAD1C0C1B09D16D1E58BFF0
:1003700001F801CBFAD505E014F8016B01F8016B27
:100380006D1EF9D59142D6D370470000704700002A
:100390000023002400250026103A28BF78C1FBD88E
:1003A000520728BF30C148BF0B6070471FB527F008
:1003B0006AFC9DE8030000F031FA00F07DF91FBDF2
:1003C00010B5002000F05FFA10BD00F081FA114670
:1003D000FFF7ECFF22F0E0FD00F0B9FA03B4FFF7FD
:1003E000EFFF03BC00F0C4FA094880470948004702
:1003F000FEE7FEE7FEE7FEE7FEE7FEE7FEE7FEE7D5
:10040000FEE7FEE704480549054A064B7047000031
:10041000F15B0108CD02000878FD0020780F012073
:1004200078FF002078FF002053EA020C00F069807A
:100430002DE9F04B4FF00006002B1FBFB3FA83F5F8
:1004400003FA05F424FA05F65E4012BF1643B2FA29
:1004500082F502FA05F4C5F120051EBF22FA05FC5B
:1004600044EA0C04203556EA044C4FEA144418BF01
:10047000641C4FF000084FF00009904271EB030C30
:1004800039D3002919BFB1FA81F701FA07F6B0FA9A
:1004900080F700FA07F6C7F120071EBF20FA07FC15
:1004A00046EA0C062037B6FBF4FCA7EB0507103F25
:1004B00007F01F0BCBF120062CFA06F60CFA0BFB0B
:1004C00044BFB3460026202FA4BF5E464FF0000B6A
:1004D0005BEA060C08BF4FF0010B19EB0B0948EB68
:1004E0000608ABFB027C06FB02CC0BFB03CCC01B5B
:1004F00071EB0C01C1E70B46024641464846BDE898
:10050000F08B13B5084318BF4FF0FF300146AFF32F
:100510000080BDE81C4070470B460146184600F0BD
:1005200042B9032A40F2308010F0030C00F015802D
:1005300011F8013BBCF1020F624498BF11F801CBE6
:1005400000F8013B38BF11F8013BA2F1040298BF4B
:1005500000F801CB38BF00F8013B11F0030300F0B5
:100560002580083AC0F0088051F8043B083A51F859
:1005700004CBA0E80810F5E7121D5CBF51F8043B5E
:1005800040F8043BAFF30080D20724BF11F8013BD1
:1005900011F801CB48BF11F8012B24BF00F8013B33
:1005A00000F801CB48BF00F8012B704710B5203A86
:1005B000C0F00B80B1E81850A0E81850B1E818500E
:1005C000A0E81850203ABFF4F5AF5FEA027C24BFE0
:1005D000B1E81850A0E8185044BF18C918C0BDE8C9
:1005E00010405FEA827C24BF51F8043B40F8043B92
:1005F00008BF7047D20728BF31F8023B48BF11F847
:10060000012B28BF20F8023B48BF00F8012B7047A0
:1006100002F0FF0343EA032242EA024200F024B858
:100620004FF000020429C0F0128010F0030C00F01B
:100630001B80CCF1040CBCF1020F18BF00F8012B99
:10064000A8BF20F8022BA1EB0C0100F00DB85FEA67
:10065000C17C24BF00F8012B00F8012B48BF00F833
:10066000012B70474FF0000200B5134694469646A2
:10067000203922BFA0E80C50A0E80C50B1F12001B5
:10068000BFF4F7AF090728BFA0E80C5048BF0CC063
:100690005DF804EB890028BF40F8042B08BF7047C1
:1006A00048BF20F8022B11F0804F18BF00F8012B33
:1006B000704770477047704708487CB57844009091
:1006C00007487844009C0546019004E020460168F4
:1006D00008448047241DAC42F8D17CBDE48402006C
:1006E000E284020070B5064600F074F8056806F171
:1006F0000B0020F00704B4429CBF002070BD2B46C5
:100700006A68BAB11068A04210D304F108018842A7
:100710003CBF5068586007D3516810194160116898
:10072000091B016058601460101D70BD13465268AB
:10073000002AE7D12146284600F05CF80028DED1E7
:1007400070BD70B50446051F00F044F80068002C29
:1007500014BF446870BD002C18BFAC423CBF20469B
:100760006468F8D301680A18AA4218BF456003D12B
:100770002A6805461144016028684119A1421CBF3E
:100780006C6070BD6168696021680844286070BD54
:1007900010B500F027F8006810BD10B5044600F051
:1007A00021F8046010BD2DE9F041074615460E46BC
:1007B0001020FFF797FF04000AD06760C4E90265C4
:1007C00000F00CF80168216004600020BDE8F081B1
:1007D0000120FBE700487047E021002000487047F7
:1007E0001022002000487047D82100207047704731
:1007F0007047704738B504460A4600206946AFF393
:100800000080002808BF38BD02460099204600F04D
:1008100084F8012038BD012000F0A2B8F8B5AFF38C
:100820000080054600200C460C2000BF0646A81993
:10083000A0420DD9324669460020AFF30080070080
:1008400008BF00F08DF80098A04218BF0546C419F3
:10085000FFF7C0FF05600746F01D20F007004619AE
:10086000284600F00AF8B44208BFF8BDA21B314682
:100870003868BDE8F84000F050B8002101604160E0
:1008800070470C2070472DE9F0410646FFF7A6FFA0
:100890008046454613E016B1E068B0420ED12068AC
:1008A0002860D4E90101D8F8007088472046FFF796
:1008B00048FFD8F80000B842EBD100E025462C688C
:1008C000002CE8D1BDE8F08100487047D821002015
:1008D0007546FFF7F9FFAE4605006946534620F01E
:1008E0000700854618B020B5FFF78CFDBDE8204015
:1008F0004FF000064FF000074FF000084FF0000BDC
:10090000AC46ACE8C009ACE8C009ACE8C009ACE84A
:10091000C00921F007018D467047034640688C46A8
:10092000002818BF88423CBF03464068F8D31868C7
:100930001844884207D00CF1030020F00700001D86
:10094000411A521A0146081D0A60FFF7FABE10B597
:100950000446AFF300802046BDE81040FFF73EBDDF
:1009600010B500F011F8BDE8104000F008B8000024
:1009700001491820ABBEFEE72600020070470028A0
:1009800001D0FFF7F5BF704710B5012805D0002151
:1009900003A000F021F8012010BD09A1F8E7000034
:1009A00053494752544D454D3A204F7574206F6658
:1009B0002068656170206D656D6F727900000000C0
:1009C0003A2048656170206D656D6F727920636FA4
:1009D000727275707465640070B505460C460A2025
:1009E00000E06D1C00F011F835B128780028F8D12E
:1009F00002E0641C00F009F814B120780028F8D156
:100A0000BDE870400A20AFF3008008B569468DF854
:100A100000000320ABBE08BD80B584B003900398EE
:100A2000006842F20001C4F20201884209D0FFE7E7
:100A30000398006842F20011C4F20201884209D111
:100A4000FFE742F20830C4F20200006810F4403FB1
:100A500009D129E046F20830C5F60200006810F41A
:100A6000403F21D0FFE70CF0F7F90290039840686F
:100A70000190B0F5803F0AD0FFE70198B0F5003F44
:100A800005D0FFE70198B0F5403F07D00AE0039892
:100A9000C1880298B0FBF1F0029004E0029880084F
:100AA000029000E0FFE75FE04FF4002000210AF031
:100AB000DFF90290039840680090B0F5802F32D0A3
:100AC000FFE70098B0F5002F2DD0FFE70098B0F5B4
:100AD000402F28D0FFE70098B0F5801F23D0FFE714
:100AE0000098B0F5A01F1ED0FFE70098B0F5C01F1A
:100AF00019D0FFE70098B0F5E01F1FD0FFE700987E
:100B0000B0F5001F1ED0FFE70098B0F5101F1DD0F4
:100B1000FFE70098B0F5201F1CD0FFE70098B0F564
:100B2000301F1BD01EE0039841686FF0010000EAFF
:100B300051410298B0FBF1F0029014E002980009D4
:100B4000029010E00298400902900CE0029880099F
:100B5000029008E00298C009029004E00298000A9E
:100B6000029000E0FFE7FFE7029840080290029839
:100B700045F61061C0F25F01884209D8FFE703988B
:100B80000068806820F440700399096888602EE04E
:100B900002984BF62041C0F2BE0188420AD8FFE716
:100BA000039800688068012161F3092003990968AE
:100BB00088601BE0029847F64001C0F27D11884230
:100BC0000AD8FFE7039800688068022161F30920D2
:100BD00003990968886008E003980068806840F419
:100BE0004070039909688860FFE7FFE7FFE704B0FA
:100BF00080BD00000000000080B544F22430C2F245
:100C0000000003F0F5FA80BD80B540F60000C5F69F
:100C100002000122114607F08BF980BD00000000A0
:100C200080B540F60000C5F602000121002207F061
:100C30007FF980BD00000000704700000000000048
:100C400080B540F60000C5F602000821012207F039
:100C50006FF980BD0000000080B540F60000C5F6C9
:100C600002000821002207F063F980BD00000000A7
:100C7000704700000000000080B582B0ADF80600AB
:100C8000FFE7BDF80600411EADF8061028B1FFE7EA
:100C90004FF47A7000F004F8F3E702B080BD000072
:100CA00086B0ADF8160000200490039002900190E9
:100CB00000904EF21400CEF2000000680090BDF8E3
:100CC0001600C0EB0010400104904EF21800CEF266
:100CD000000000680390FFE74EF21800CEF200001B
:100CE000006802900298039988421ED0FFE702989C
:100CF0000399884207D2FFE703980299411A0198A5
:100D00000844019008E000980299401A03990144B0
:100D1000019808440190FFE7029803900198049914
:100D2000884201D3FFE701E0FFE7D5E706B070474F
:100D300080B582B000208DF80700FFF77DFFFFF738
:100D400097FF21F069FF01469DF8070008438DF8E1
:100D5000070022F029F801469DF8070008438DF8A6
:100D600007009DF8070002B080BD000000000000F1
:100D700080B588B0079006910592002000900490FD
:100D80000390FFF74DFF922000F00AF9122003A90B
:100D90000191062200F0CCF8FFF736FF9DF80C0019
:100DA0009DF80D1040EA0120ADF80A00BDF90A00D7
:100DB00000EE100AB8EEC00A42F20800C2F20000CB
:100DC00090ED001A20EE010A069981ED000A9DF8C7
:100DD0000E109DF80F2041EA0221ADF80A10BDF96E
:100DE0000A1000EE101AB8EEC00A90ED001A20EEBC
:100DF000010A069981ED010A9DF810109DF8112055
:100E000041EA0221ADF80A10BDF90A1000EE101AED
:100E1000B8EEC00A90ED001A20EE010A069880EDA7
:100E2000020AFFF719FF00980199082200F080F8E4
:100E3000FFF706FF9DF80C000F2844D1FFE79DF84F
:100E40000E009DF80F1040EA0120ADF80A00BDF930
:100E50000A0000EE100AB8EEC00A42F20C00C2F21C
:100E6000000090ED001A20EE010A079981ED000ABA
:100E70009DF810109DF8112041EA0221ADF80A10EA
:100E8000BDF90A1000EE101AB8EEC00A90ED001A73
:100E900020EE010A079981ED010A9DF812109DF8D4
:100EA000132041EA0221ADF80A10BDF90A1000EE44
:100EB000101AB8EEC00A90ED001A20EE010A079849
:100EC00080ED020AFFE7FFF7ABFEA22000F068F812
:100ED000222003A9022200F02BF8FFF795FE9DF8CF
:100EE0000C009DF80D10C00040EA5110ADF80A004A
:100EF000BDF90A00B0F5806F07DBFFE7BDF80A0017
:100F0000A0F50060ADF80A00FFE7BDF90A0000EEA9
:100F1000100AB8EEC01AB4EE002AB3EE070AA1EE2A
:100F2000020A059880ED000A08B080BD00000000AC
:100F300080B584B08DF80F0002918DF807209DF8E0
:100F40000F0040F0800000F02BF8FFE79DF807004D
:100F500070B1FFE7552000F023F80299087002985D
:100F6000013002909DF8070001388DF80700EDE789
:100F700004B080BD0000000080B582B08DF807008D
:100F800000919DF8070040F0800000F009F855201E
:100F900000F006F80099087002B080BD0000000063
:100FA00080B582B08DF8070069464FF47A7008600A
:100FB00044F6AC30C2F200000DF107010DF106025B
:100FC00001230DF0A9FA9DF8060002B080BD0000D3
:100FD00080B582B08DF807008DF806109DF80700E7
:100FE000FFF7DEFF9DF80600FFF7DAFF02B080BDD5
:100FF000FFE7FEE70000000084B08DF80F000291CB
:10100000ADF806209DF80F000146009123281DD859
:101010000099DFE801F012131415161B1B1B1B1B94
:101020001B1B1B1B1B1B1B1B1B1B1B1B1B1B1B1B10
:101030001B1B1B1B1B1B1718191A08E007E006E0F7
:1010400005E004E003E002E001E000E0FFE700204B
:1010500004B070470000000000207047000000004E
:1010600080B582B043F6E860C2F20000009043F21F
:101070002811C2F200010022019216F0E1FF00984F
:1010800042F62811C2F2000116F0BAFF019802B030
:1010900080BD00000000000080B584B00390029184
:1010A000039943F6E860C2F20000019016F0A8FF31
:1010B000019816F049FF002004B080BD0000000038
:1010C00083B0029001918DF8032000208DF802007A
:1010D0009DF9020003B0704780B586B00490ADF86A
:1010E0000E1000208DF80D0043F6E860C2F20000FB
:1010F000D0F8BC0202900298D0F8140220B1FFE7A9
:1011000001208DF8170013E00499BDF80E2043F676
:10111000E860C2F20000019016F092FF019817F00B
:101120009BF88DF80D009DF80D008DF81700FFE776
:101130009DF8170006B080BD80B544F23420C2F29D
:10114000000003F055F880BD80B544F2AC20C2F237
:10115000000003F04DF880BD80B544F21440C2F2A7
:10116000000003F045F880BD80B544F29C30C2F227
:10117000000003F03DF880BD83B002900298016842
:1011800001201022C4F202029142009000F0A380DC
:10119000FFE70298016801202822C4F2020291426E
:1011A000009000F09880FFE702980168012040223B
:1011B000C4F202029142009000F08D80FFE7029895
:1011C000016801205822C4F202029142009000F00E
:1011D0008280FFE70298016801207022C4F20202B7
:1011E0009142009077D0FFE70298016801208822A1
:1011F000C4F20202914200906DD0FFE702980168AC
:101200000120A022C4F202029142009063D0FFE7C5
:10121000029801680120B822C4F2020291420090B3
:1012200059D0FFE702980168012040F21042C4F251
:101230000202914200904ED0FFE70298016801201F
:1012400040F22842C4F202029142009043D0FFE7EC
:1012500002980168012040F24042C4F20202914229
:10126000009038D0FFE702980168012040F2584210
:10127000C4F20202914200902DD0FFE7029801686B
:10128000012040F27042C4F202029142009022D04A
:10129000FFE702980168012040F28842C4F202028E
:1012A0009142009017D0FFE702980168012040F2B8
:1012B000A042C4F20202914200900CD0FFE70298D3
:1012C00000684FF64831CBF6FD710844B0FA80F063
:1012D00040090090FFE70098C00740B3FFE702987D
:1012E000007810384AF6AB21CAF6AA21A0FB0110FB
:1012F00000090190019800F0070147F67C60C0F6F4
:101300000200405C0299C8650198042807D3FFE7F2
:1013100002990868042262F30900886506E00299D0
:10132000086840F2FF3290438865FFE705E00299C4
:10133000086820F0FF008865FFE70298806D03B021
:10134000704700000000000084B00390039800681C
:10135000019003980168012045F20842C5F6020297
:10136000914200904ED0FFE703980168012045F2BA
:101370001C42C5F602029142009043D0FFE7039859
:101380000168012045F23042C5F602029142009008
:1013900038D0FFE703980168012045F24442C5F6C2
:1013A0000202914200902DD0FFE7039801680120CE
:1013B00045F25842C5F602029142009022D0FFE762
:1013C00003980168012045F26C42C5F60202914281
:1013D000009017D0FFE703980168012045F2804292
:1013E000C5F60202914200900CD0FFE70398006816
:1013F0004AF66C31CAF2FD710844B0FA80F0400937
:101400000090FFE70098C00710B3FFE7039800784B
:1014100008384CF6CD41CCF6CC41A0FB01100009B8
:101420000290029945F60000C5F6020000EB81002B
:1014300003990866039945F68000C5F602004866E0
:10144000029800F01F01012088400399886635E06A
:101450000398007810384AF6AB21CAF6AA21A0FBFF
:10146000011000090290019840F2B841C4F2020153
:1014700088420CD8FFE7019840F21041C4F2020103
:10148000884204D3FFE7029808300290FFE70299F0
:1014900040F60000C4F2020000EB810003990866E8
:1014A000039940F68000C4F202004866029800F0FA
:1014B0001F010120884003998866FFE704B0704748
:1014C00083B002900298007901900198002800F002
:1014D0008A80FFE70198082800F28580FFE70298DC
:1014E0000168012045F20842C5F6020291420090CF
:1014F0004ED0FFE702980168012045F21C42C5F674
:1015000002029142009043D0FFE702980168012057
:1015100045F23042C5F602029142009038D0FFE712
:1015200002980168012045F24442C5F60202914248
:1015300000902DD0FFE702980168012045F2584243
:10154000C5F602029142009022D0FFE7029801689E
:10155000012045F26C42C5F602029142009017D07C
:10156000FFE702980168012045F28042C5F60202B9
:10157000914200900CD0FFE7029800684AF66C3167
:10158000CAF2FD710844B0FA80F040090090FFE70C
:101590000098C00780B1FFE7019945F6FC00C5F649
:1015A000020000EB81000299C866029945F64010DE
:1015B000C5F6020008670FE0019940F6FC00C4F28E
:1015C000020000EB81000299C866029940F64010C3
:1015D000C4F202000867FFE70198411E012088401D
:1015E00002994867FFE703B0704700000000000061
:1015F00085B0049000208DF80F000498806918BB16
:10160000FFE70498806A029003281BD80299DFE85C
:1016100001F0020D0218049890F82F00C00720B1C5
:10162000FFE701208DF80F00FFE70CE00498C06A87
:10163000B0F1C07F04D1FFE701208DF80F00FFE774
:1016400001E000E0FFE747E004988069B0F5005F43
:1016500026D1FFE70498806A019003281ED80199DB
:10166000DFE801F00206021101208DF80F0016E0FC
:10167000049890F82F00C00720B1FFE701208DF8F3
:101680000F00FFE70BE00498C06AB0F1C07F04D1FF
:10169000FFE701208DF80F00FFE700E0FFE71AE009
:1016A0000498806A0090032804D3FFE70098032879
:1016B00004D00EE001208DF80F000BE0049890F8A4
:1016C0002F00C00720B1FFE701208DF80F00FFE7D2
:1016D00000E0FFE7FFE7FFE79DF80F0005B0704768
:1016E00089B008900791069205930898806D049040
:1016F0000898806D03900898016801201022C4F2B8
:1017000002029142029000F00381FFE7089801680D
:1017100001202822C4F202029142029000F0F880D7
:10172000FFE70898016801204022C4F202029142BA
:10173000029000F0ED80FFE7089801680120582230
:10174000C4F202029142029000F0E280FFE70898A2
:10175000016801207022C4F202029142029000F05E
:10176000D780FFE70898016801208822C4F20202AE
:101770009142029000F0CC80FFE7089801680120B8
:10178000A022C4F202029142029000F0C180FFE761
:10179000089801680120B822C4F202029142029026
:1017A00000F0B680FFE708980168012040F210427F
:1017B000C4F202029142029000F0AA80FFE708986A
:1017C0000168012040F22842C4F2020291420290D4
:1017D00000F09E80FFE708980168012040F2404237
:1017E000C4F202029142029000F09280FFE7089852
:1017F0000168012040F25842C4F202029142029074
:1018000000F08680FFE708980168012040F27042EE
:10181000C4F20202914202907AD0FFE70898016870
:10182000012040F28842C4F20202914202906FD03D
:10183000FFE708980168012040F2A042C4F20202CA
:101840009142029064D0FFE708980168012040F2BD
:10185000B842C4F202029142029059D0FFE70898C0
:101860000168012045F20842C5F602029142029049
:101870004ED0FFE708980168012045F21C42C5F6EA
:1018800002029142029043D0FFE7089801680120CC
:1018900045F23042C5F602029142029038D0FFE78D
:1018A00008980168012045F24442C5F602029142BF
:1018B00002902DD0FFE708980168012045F25842B8
:1018C000C5F602029142029022D0FFE70898016813
:1018D000012045F26C42C5F602029142029017D0F7
:1018E000FFE708980168012045F28042C5F6020230
:1018F000914202900CD0FFE7089800684AF66C31DC
:10190000CAF2FD710844B0FA80F040090290FFE786
:101910000298C00770B1FFE70898416E806E48607A
:101920000898C06E28B1FFE70898016F406F4860C3
:10193000FFE7FFE70898016801201022C4F20202C5
:101940009142019000F0A380FFE708980168012010
:101950002822C4F202029142019000F09880FFE731
:101960000898016801204022C4F2020291420190CD
:1019700000F08D80FFE70898016801205822C4F22A
:1019800002029142019000F08280FFE7089801680E
:1019900001207022C4F202029142019077D0FFE749
:1019A0000898016801208822C4F202029142019045
:1019B0006DD0FFE7089801680120A022C4F202025E
:1019C0009142019063D0FFE7089801680120B82296
:1019D000C4F202029142019059D0FFE708980168D1
:1019E000012040F21042C4F20202914201904ED016
:1019F000FFE708980168012040F22842C4F2020281
:101A00009142019043D0FFE708980168012040F21D
:101A10004042C4F202029142019038D0FFE7089898
:101A20000168012040F25842C4F202029142019042
:101A30002DD0FFE708980168012040F27042C4F2FF
:101A400002029142019022D0FFE70898016801202C
:101A500040F28842C4F202029142019017D0FFE79F
:101A600008980168012040F2A042C4F202029142AB
:101A700001900CD0FFE7089800684FF64831CBF68C
:101A8000FD710844B0FA80F040090190FFE7019829
:101A9000C00750B3FFE70898C06D00F01F013F205A
:101AA00088400499886008980168086820F48020BC
:101AB0000860059808990968486008988068402877
:101AC00009D1FFE70698089909688860079808997E
:101AD0000968C86008E0079808990968886006984E
:101AE00008990968C860FFE782E00898016801204A
:101AF00045F20842C5F60202914200904ED0FFE73F
:101B000008980168012045F21C42C5F60202914284
:101B1000009043D0FFE708980168012045F2304269
:101B2000C5F602029142009038D0FFE7089801689C
:101B3000012045F24442C5F60202914200902DD0A8
:101B4000FFE708980168012045F25842C5F60202F5
:101B50009142009022D0FFE708980168012045F2E9
:101B60006C42C5F602029142009017D0FFE7089838
:101B70000168012045F28042C5F6020291420090C0
:101B80000CD0FFE7089800684AF66C31CAF2FD7184
:101B90000844B0FA80F040090090FFE70098C007C1
:101BA00020B3FFE70898C06D00F01F0101208840B6
:101BB0000399486005980899096848600898806802
:101BC000402809D1FFE706980899096888600798B6
:101BD00008990968C86008E007980899096888604A
:101BE000069808990968C860FFE700E0FFE7FFE78B
:101BF00009B07047000000007047000000000000BE
:101C000080B54FF4806005F0A3FF4FF4805005F0DD
:101C10009FFF80BD0000000081B0EFF3108072B61E
:101C20000090FFE7FEE7000080B544F28C40C2F26E
:101C3000000004F0A1FF80BD80B544F28C40C2F2E8
:101C4000000004F099FF80BD80B544F22C50C2F230
:101C5000000004F091FF80BD80B544F22C50C2F228
:101C6000000004F089FF80BD80B544F2CC50C2F280
:101C7000000004F081FF80BD80B544F2CC50C2F278
:101C8000000004F079FF80BD84B002900298406BA0
:101C9000009002980068D0F884004FF6FC718843E9
:101CA000009940EA810002990968C1F8840002980D
:101CB0000068D0F8840020F47F00029A1168926BCB
:101CC00040EA0240C1F884000298816B0098084401
:101CD000009002980068D0F888006FF38F00009998
:101CE00040EA810002990968C1F8880002980068FA
:101CF000D0F8880020F4FE00029A1168D26B40EA06
:101D00000240C1F888000298C16B009800EB4100C6
:101D1000009002980068D0F8A0006FF38F0000993F
:101D200040EA810002990968C1F8A00002980068A1
:101D3000D0F8A00020F4FE00029A1168126C40EA6C
:101D40000240C1F8A0000299086C496C009A00FB9F
:101D50000120009002980068D0F8B0006FF38F0067
:101D6000009940EA810002990968C1F8B000029820
:101D70000068D0F8B00020F4FE00029A1168926C5E
:101D800040EA0240C1F8B0000299886CC96C009A20
:101D900000FB0120009002980068D0F8AC006FF3BF
:101DA0008F00009940EA810002990968C1F8AC00EF
:101DB0000299086D496D009A00FB0120009002987D
:101DC0000068D0F8F0006FF38F00009940EA8100BE
:101DD00002990968C1F8F00002980068D0F8F00094
:101DE00020F47C10029A1168926D40EA0240C1F81A
:101DF000F0000298816D009800EB4100009002987D
:101E00000068D0F8C0006FF38F00009940EA8100AD
:101E100002990968C1F8C00002980068D0F8C000B3
:101E200020F47C10029A1168D26D40EA0240C1F899
:101E3000C00002980068D0F8C00020F07C50029AE0
:101E40001168126E40EA0260C1F8C00002994A6B44
:101E50004AF60040C4F2000000EB8200C866029916
:101E60008A6BC86E00EB820008670299CA6B086F24
:101E700000EBC200486702990A6C4B6C486F5A43EA
:101E800000EB8200886702998A6CCB6C886F5A439A
:101E900000EB8200C86702990A6D4B6DC86F5A4308
:101EA00000EB8200C1F8800002998A6DD1F88000B1
:101EB00000EBC200C1F884000299CA6D8B6ED1F8A4
:101EC00084005A4300EB8200C1F8880002990A6E30
:101ED0008B6ED1F888005A4300EB8200C1F8900065
:101EE0000298D0F890004DF2FD31C4F20001884212
:101EF0000FD3FFE70299D1F89C0040F02000C1F811
:101F00009C000299032081F8980001208DF80F00B1
:101F100017E00298C06E0190FFE701980299D1F88E
:101F20009010884208D2FFE7019900200860FFE77F
:101F3000019804300190F0E7FFE700208DF80F00D2
:101F4000FFE79DF80F0004B070470000000000009C
:101F500088B007900691059204930698406848B9A6
:101F6000FFE70698016882680069104340EA8140F3
:101F7000039009E0069801688268006910430843ED
:101F800040F080400390FFE70698D0F820C0C16879
:101F900042698369C06940EA0C601843104340EA13
:101FA000014002900798826ED0F884000499514352
:101FB00000EB8100019003980199086001980430BA
:101FC0000190029801990860019804300190002066
:101FD0000090FFE700980699CA6847F66C61C0F662
:101FE0000201895C88420DD2FFE7059800994058AC
:101FF00001990860019804300190FFE700980430CF
:102000000090E7E708B0704742F21830C2F20000D3
:1020100090ED690A7047000042F21830C2F20000E9
:1020200090ED680A7047000080B584B04EF600005D
:10203000C1F6F170006803904EF60400C1F6F1702D
:10204000006802904EF60800C1F6F1700068019039
:102050000199039808440390039888B1FFE7039817
:1020600042F28011C2F200010091023108220FF009
:10207000CBFC00990298123104220FF0C5FCFFE757
:1020800004B080BD0000000042F21830C2F200002F
:1020900090ED6A0A7047000080B5CCB02A90299173
:1020A00000208DF8A30025902A9890F8440001287C
:1020B00001D1FFE70BE02A98006846F20001C5F65F
:1020C0000201884201D1FFE700E0FFE7FFE729981E
:1020D000C0680021C4F2FF71884201D0FFE71EE012
:1020E0002A98006842F20001C4F20201884201D13C
:1020F000FFE7FFE72A98006842F20011C4F20201EC
:10210000884201D1FFE7FFE72A98006846F2000104
:10211000C5F60201884201D1FFE7FFE7FFE7FFE7CD
:102120002A9890F85C00012805D1FFE702208DF87D
:10213000AF0000F07DBD2A99012081F85C00FFE727
:10214000FFE72A98006810F0C3FA002840F05C8589
:10215000FFE72998C0780006002837D4FFE72A98BF
:10216000006846F20001C5F6020188422DD0FFE763
:1021700029980068000330B9FFE729980068C0F388
:102180008460229015E02998006890FAA0F04A90A7
:102190004A9820B9FFE720208DF82F0105E04A98E2
:1021A000B0FA80F08DF82F01FFE79DF82F01229003
:1021B000FFE7229800F01F01012000FA01F22A989F
:1021C0000168C8691043C861FFE7FFE72A98006803
:1021D00029990A68496810F083FA2A98006810F073
:1021E00077FA24902A98006810F052FA23902498E5
:1021F000002840F05A82FFE72398002840F05582DB
:10220000FFE72A980068299A1168926810F088FA06
:102210002A98006846F20001C5F6020188420BD1F7
:10222000FFE7299840692A990968C96801F01801EF
:1022300089088840279038E041F20000C5F6004048
:10224000006800F07040B0F1805F0BD1FFE7299883
:1022500040692A990968C96801F01C014908884049
:1022600021901FE02A980068C068C00600280BD49F
:10227000FFE7299840692A990968C96801F01C019B
:102280004908884020900AE0299840692A990968FD
:10229000C96801F01001490888402090FFE72098A4
:1022A0002190FFE721982790FFE7299800690428EB
:1022B00041D0FFE72A98006829990A680969279B95
:1022C00010F0B6FA2A98006846F20001C5F602013D
:1022D000884215D1FFE72A980068299A1169D269C6
:1022E00010F0F6FA2A980068299A116992F82020CD
:1022F000013AB2FA82F25209520610F0C9FA19E014
:102300002A980068299A116992F82120013AB2FAB4
:1023100082F25209D20710F0FBFA2A980068299A33
:102320001169127E013AB2FA82F25209D20210F019
:102330006BFAFFE7B8E12A98006846F20001C5F69B
:102340000201884240F06681FFE72A980068002178
:1023500010F08EF9000348B9FFE72A9800680021C1
:1023600010F086F9C0F384601F9018E02A98006886
:10237000002110F07DF990FAA0F04890489820B91B
:10238000FFE720208DF8270105E04898B0FA80F09B
:102390008DF82701FFE79DF827011F90FFE71F98A1
:1023A0001E9029980068000330B9FFE7299800685B
:1023B000C0F384601D9015E02998006890FAA0F0A1
:1023C0004690469820B9FFE720208DF81F0105E0D0
:1023D0004698B0FA80F08DF81F01FFE79DF81F01C5
:1023E0001D90FFE71E981D99884207D1FFE72A98A4
:1023F00000680022114610F0ABFAFFE72A98006847
:10240000012110F035F9000348B9FFE72A98006868
:10241000012110F02DF9C0F384601C9018E02A9877
:102420000068012110F024F990FAA0F0449044983B
:1024300020B9FFE720208DF8170105E04498B0FA95
:1024400080F08DF81701FFE79DF817011C90FFE75A
:102450001C981B9029980068000330B9FFE7299861
:102460000068C0F384601A9015E02998006890FA1B
:10247000A0F04290429820B9FFE720208DF80F018C
:1024800005E04298B0FA80F08DF80F01FFE79DF863
:102490000F011A90FFE71B981A99884207D1FFE7AE
:1024A0002A9800680121002210F052FAFFE72A98CA
:1024B0000068022110F0DCF8000348B9FFE72A9811
:1024C0000068022110F0D4F8C0F38460199018E07D
:1024D0002A980068022110F0CBF890FAA0F0409002
:1024E000409820B9FFE720208DF8070105E04098CB
:1024F000B0FA80F08DF80701FFE79DF80701199009
:10250000FFE71998189029980068000330B9FFE791
:1025100029980068C0F38460179015E02998006836
:1025200090FAA0F03E903E9820B9FFE720208DF869
:10253000FF0005E03E98B0FA80F08DF8FF00FFE75D
:102540009DF8FF001790FFE718981799884207D168
:10255000FFE72A9800680221002210F0F9F9FFE74E
:102560002A980068032110F083F8000348B9FFE7B8
:102570002A980068032110F07BF8C0F3846016905D
:1025800018E02A980068032110F072F890FAA0F081
:102590003C903C9820B9FFE720208DF8F70005E03B
:1025A0003C98B0FA80F08DF8F700FFE79DF8F7004F
:1025B0001690FFE71698159029980068000330B927
:1025C000FFE729980068C0F38460149015E029980B
:1025D000006890FAA0F03A903A9820B9FFE72020DE
:1025E0008DF8EF0005E03A98B0FA80F08DF8EF0032
:1025F000FFE79DF8EF001490FFE7159814998842C3
:1026000007D1FFE72A9800680321002210F0A0F903
:10261000FFE748E02A980068006E00F0F84029992A
:102620000968B0EB816F07D1FFE72A980168086E4F
:1026300020F000400866FFE72A980068406E00F02E
:10264000F84029990968B0EB816F07D1FFE72A9814
:102650000168486E20F000404866FFE72A9800684D
:10266000806E00F0F84029990968B0EB816F07D1BE
:10267000FFE72A980168886E20F000408866FFE72F
:102680002A980068C06E00F0F84029990968B0EBFC
:10269000816F07D1FFE72A980168C86E20F00040DB
:1026A000C866FFE7FFE7FFE7FFE72A9800680FF03B
:1026B000FFFF002840F0A782FFE72A980068299AC8
:1026C0001168D26810F048F82998C0680021C4F257
:1026D000FF71884240F03381FFE72A980068139029
:1026E00029980068000330B9FFE729980068C0F313
:1026F0008460129015E02998006890FAA0F0389054
:10270000389820B9FFE720208DF8E70005E03898D9
:10271000B0FA80F08DF8E700FFE79DF8E70012902F
:10272000FFE71298013000F01F0009287DD8FFE76D
:1027300029980068000330B9FFE729980068C0F3C2
:102740008460119015E02998006890FAA0F0369006
:10275000369820B9FFE720208DF8DF0005E0369895
:10276000B0FA80F08DF8DF00FFE79DF8DF001190F0
:10277000FFE71198013000F01F00800610902998A3
:102780000068000330B9FFE729980068C0F384604F
:102790000F9015E02998006890FAA0F034903498D2
:1027A00020B9FFE720208DF8D70005E03498B0FA73
:1027B00080F08DF8D700FFE79DF8D7000F90FFE776
:1027C00010980F99013101F01F0201219140084337
:1027D0000E9029980068000330B9FFE72998006837
:1027E000C0F384600D9015E02998006890FAA0F07D
:1027F0003290329820B9FFE720208DF8CF0005E015
:102800003298B0FA80F08DF8CF00FFE79DF8CF0046
:102810000D90FFE70E980D99013101F01F0101EBBA
:10282000410140EA01500C9082E0299800680003C1
:1028300030B9FFE729980068C0F384600B9015E079
:102840002998006890FAA0F03090309820B9FFE7FE
:1028500020208DF8C70005E03098B0FA80F08DF8A0
:10286000C700FFE79DF8C7000B90FFE70B9801300A
:1028700000F01F0080060A9029980068000330B914
:10288000FFE729980068C0F38460099015E0299853
:10289000006890FAA0F02E902E9820B9FFE7202033
:1028A0008DF8BF0005E02E98B0FA80F08DF8BF00DB
:1028B000FFE79DF8BF000990FFE70A9809990131E9
:1028C00001F01F02012191400843089029980068F7
:1028D000000330B9FFE729980068C0F384600790CF
:1028E00015E02998006890FAA0F02C902C9820B957
:1028F000FFE720208DF8B70005E02C98B0FA80F0B3
:102900008DF8B700FFE79DF8B7000790FFE708993B
:102910000798013000F01F0000EB40020020CFF6C6
:10292000206000EB0250084340F000700C90FFE77D
:1029300013980C99299A92680FF0F2FEFFE72998F4
:10294000C0780006002840F15D81FFE72A98016801
:10295000012042F20002C4F20202914206900CD021
:10296000FFE72A9800684DF60071CBF6FD71084428
:10297000B0FA80F040090690FFE70698C10746F2DA
:102980000030C5F6020000291CBF42F20030C4F23C
:1029900002000FF065FE26902A9801684FF00100B2
:1029A00042F20002C4F20202914205900CD0FFE70D
:1029B0002A9800684DF60071CBF6FD710844B0FA14
:1029C00080F040090590FFE70598C10746F2003006
:1029D000C5F6020000291CBF42F20030C4F202001A
:1029E00042F20031C4F20201884212D1FFE742F202
:1029F0000000C4F202000FF05BFE039042F20010F0
:102A0000C4F202000FF054FE0146039808430490FC
:102A100007E046F20000C5F602000FF049FE049000
:102A2000FFE70498002840F0E380FFE7299800685A
:102A30000021CCF25271884255D1FFE79DF89A00EF
:102A4000000600284FD4FFE72A98006846F20001EC
:102A5000C5F60201884245D1FFE72A9801680120A6
:102A600042F20002C4F20202914202900CD0FFE74F
:102A70002A9800684DF60071CBF6FD710844B0FA53
:102A800080F040090290FFE70298C10746F200304B
:102A9000C5F6020000291CBF42F20030C4F2020059
:102AA000269941F400010FF09FFE42F2C400C2F2E9
:102AB000000000684FEA901042F66351C0F23E51A8
:102AC000A0FB01104FEA90114FF0020000EB410013
:102AD0002590FFE7259820B1FFE72598013825903C
:102AE000F8E7FFE783E0299800680021CCF2213164
:102AF000884238D1FFE79DF89B00C00798BBFFE7ED
:102B00002A98006846F20001C5F60201884229D1E0
:102B1000FFE72A980168012042F20002C4F2020293
:102B2000914201900CD0FFE72A9800684DF60071A1
:102B3000CBF6FD710844B0FA80F040090190FFE740
:102B40000198C10746F20030C5F6020000291CBFFB
:102B500042F20030C4F20200269941F080710FF079
:102B600043FEFFE742E0299800680021CCF684315B
:102B7000884239D1FFE79DF89A004006002833D4F7
:102B8000FFE72A98006846F20001C5F60201884274
:102B900029D1FFE72A980168012042F20002C4F21D
:102BA0000202914200900CD0FFE72A9800684DF68F
:102BB0000071CBF6FD710844B0FA80F04009009036
:102BC000FFE70098C10746F20030C5F60200002971
:102BD0001CBF42F20030C4F20200269941F4800189
:102BE0000FF002FEFFE700E0FFE7FFE7FFE708E086
:102BF0002A99086E40F02000086601208DF8A30095
:102C0000FFE7FFE7FFE708E02A99086E40F02000A1
:102C1000086601208DF8A300FFE7FFE72A9900204E
:102C200081F85C00FFE79DF8A3008DF8AF00FFE797
:102C30009DF8AF004CB080BD10B590B00E90002054
:102C40008DF837000A900E9820B9FFE701208DF823
:102C50003F006EE20E98006940B1FFE70E9890F8D1
:102C60002000012801D1FFE7FFE7FFE70E98006E83
:102C700050B9FFE70E9800F063FA0E9900204866FD
:102C80000E9981F85C00FFE70E9800680FF008FDD0
:102C900028B1FFE70E9800680FF0C6FCFFE70E981A
:102CA00000680FF00DFDE8B9FFE70E9800680FF01F
:102CB000C7FC42F2C400C2F200000068800942F67C
:102CC0006351C0F23E51A0FB0101012000EB9110C5
:102CD0000A90FFE70A9820B1FFE70A9801380A90A6
:102CE000F8E7FFE70E9800680FF0EAFC70B9FFE71D
:102CF0000E99086E40F0100008660E99486E40F07C
:102D00000100486601208DF83700FFE70E98006843
:102D10000FF0DEFC0B900E98006EC006002800F14C
:102D2000FA81FFE70B98002840F0F581FFE70E9845
:102D3000006E40F0020020F480700E9908660E9834
:102D400000680FF0B5FC002870D1FFE70E9801680D
:102D5000012042F20002C4F20202914207900CD01C
:102D6000FFE70E9800684DF60071CBF6FD71084440
:102D7000B0FA80F040090790FFE70798C10746F2D4
:102D80000030C5F6020000291CBF42F20030C4F238
:102D9000020042F20031C4F20201884212D1FFE780
:102DA00042F20000C4F202000FF082FC059042F2F1
:102DB0000010C4F202000FF07BFC014605980843A6
:102DC000069007E046F20000C5F602000FF070FC26
:102DD0000690FFE7069840BBFFE70E9801680120C8
:102DE00042F20002C4F20202914204900CD0FFE7CA
:102DF0000E9800684DF60071CBF6FD710844B0FAEC
:102E000080F040090490FFE70498C10746F20030C3
:102E1000C5F6020000291CBF42F20030C4F20200D5
:102E20000E9949680FF0D0FCFFE7FFE70E980068A5
:102E300046F20001C5F6020188423AD1FFE70E9A38
:102E4000517ED06B40EA41319068D26811430391C2
:102E5000082803D1FFE7002002901DE00E9880684B
:102E60000C2803D1FFE70420019012E00E9880683F
:102E70001C2803D1FFE70820009007E00E98816826
:102E80000020182908BF1C200090FFE7009801903F
:102E9000FFE701980290FFE70398029901F00C0107
:102EA00040EA41000E9991F8201040EA01400C9050
:102EB0000CE00E994A7EC86B40EA42308A681043A3
:102EC00091F8201040EA01400C90FFE70E9890F82E
:102ED000200001280BD1FFE70E98416A0020CFF6B1
:102EE000FE7000EB41410C9808430C90FFE70E98F0
:102EF000806A50B1FFE70E99886AC96A00F4787059
:102F000001430C9808430C90FFE70E98006846F2C6
:102F10000001C5F60201884218D1FFE70E9800684B
:102F2000C06844F20701CFF6F07108400C990843DD
:102F30000E990968C8600E980068006920F040602A
:102F40000E9A1168526B104308610DE00E980068EC
:102F5000C0684CF20301CFF6F07108400C990843A9
:102F60000E990968C860FFE70E9800680FF0B0FB83
:102F700009900E9800680FF08BFB089009980028C4
:102F800040F0A880FFE70898002840F0A380FFE702
:102F90000E98006846F20001C5F60201884209D188
:102FA000FFE70E99087E91F83810800340EA41004F
:102FB0000C9006E00E98017E006B40EA81300C9088
:102FC000FFE70E980068C06844F2030188430C993B
:102FD00008430E990968C8600E9890F844000128CB
:102FE00059D1FFE70E98006846F20001C5F60201CC
:102FF000884201D1FFE700E0FFE70E98806A20B128
:10300000FFE70E98C06A08B9FFE7FFE70E9800686F
:1030100046F20001C5F6020188421BD1FFE70E9877
:10302000006800694FF61E01CFF6004100EA010278
:103030000E9B1968986CD3F84CE0D3F850C040EA66
:103040000E0040EA0C005B6D1843104340F0010095
:1030500008611FE00E98006800694FF61E01CFF668
:10306000004100EA01020E9B19689C6CD3F84CE009
:10307000D3F850C00020CFF6FF7000EB044040EAC8
:103080000E0040EA0C005B6D1843104340F0010055
:103090000861FFE706E00E980168086920F001006A
:1030A0000861FFE70E980068006920F070400E9AF2
:1030B0001168126C104308610E98006846F2000116
:1030C000C5F60201884204D0FFE70E98FDF7A4FC84
:1030D000FFE7FFE70E98006901280CD1FFE70E9883
:1030E0000068006B20F00F000E9A1168D269013A57
:1030F0001043086306E00E980168086B20F00F008B
:103100000863FFE70E98006E40F0010020F0020017
:103110000E99086608E00E99086E40F010000866E7
:1031200001208DF83700FFE79DF837008DF83F004C
:10313000FFE79DF83F0010B010BD00000000000048
:1031400080B5B2B0319002A8B821FDF78BFA319862
:10315000006846F20001C5F60201884229D1FFE766
:10316000002003904FF400210291022104911022CB
:103170000592069107910891C02109910A900B9040
:103180002A9002A808F0E0FB18B1FFE7FEF744FD23
:10319000FFE7FFE744F2E040C5F60200016841F0B6
:1031A00080710160006800F0807001900198FFE775
:1031B000FFE732B080BD000080B58AB0089004F00F
:1031C000CFFE0490089828B9FFE701208DF827006A
:1031D00000F0AABC089890F8350002280ED0FFE74E
:1031E000089980204865FFE70899002081F834009D
:1031F000FFE701208DF8270000F096BC08980168D1
:1032000001201022C4F202029142039000F0A38038
:10321000FFE70898016801202822C4F202029142C7
:10322000039000F09880FFE7089801680120402291
:10323000C4F202029142039000F08D80FFE70898EB
:10324000016801205822C4F202029142039000F06A
:103250008280FFE70898016801207022C4F2020210
:103260009142039077D0FFE70898016801208822F7
:10327000C4F20202914203906DD0FFE70898016802
:103280000120A022C4F202029142039063D0FFE722
:10329000089801680120B822C4F20202914203900A
:1032A00059D0FFE708980168012040F21042C4F2AB
:1032B0000202914203904ED0FFE708980168012076
:1032C00040F22842C4F202029142039043D0FFE749
:1032D00008980168012040F24042C4F20202914283
:1032E000039038D0FFE708980168012040F2584267
:1032F000C4F20202914203902DD0FFE708980168C2
:10330000012040F27042C4F202029142039022D0A6
:10331000FFE708980168012040F28842C4F20202E7
:103320009142039017D0FFE708980168012040F20E
:10333000A042C4F20202914203900CD0FFE7089829
:1033400000684FF64831CBF6FD710844B0FA80F0C2
:1033500040090390FFE70398C00780B1FFE7089892
:103360000168086820F01E00086008980168486934
:1033700020F08000486108980068059009E00898EE
:103380000168086820F00E00086008980068059041
:10339000FFE70898016801201022C4F2020291425E
:1033A000029000F00381FFE70898016801202822BD
:1033B000C4F202029142029000F0F880FFE7089800
:1033C000016801204022C4F202029142029000F002
:1033D000ED80FFE70898016801205822C4F202023C
:1033E0009142029000F0E280FFE708980168012016
:1033F0007022C4F202029142029000F0D780FFE7EF
:103400000898016801208822C4F2020291420290C9
:1034100000F0CC80FFE7089801680120A022C4F2E8
:1034200002029142029000F0C180FFE70898016813
:103430000120B822C4F202029142029000F0B6804C
:10344000FFE708980168012040F21042C4F202022E
:103450009142029000F0AA80FFE7089801680120DD
:1034600040F22842C4F202029142029000F09E8093
:10347000FFE708980168012040F24042C4F20202CE
:103480009142029000F09280FFE7089801680120C5
:1034900040F25842C4F202029142029000F086804B
:1034A000FFE708980168012040F27042C4F202026E
:1034B000914202907AD0FFE708980168012040F21B
:1034C0008842C4F20202914202906FD0FFE708984E
:1034D0000168012040F2A042C4F20202914202902F
:1034E00064D0FFE708980168012040F2B842C4F2B6
:1034F00002029142029059D0FFE70898016801202A
:1035000045F20842C5F60202914202904ED0FFE712
:1035100008980168012045F21C42C5F6020291425A
:10352000029043D0FFE708980168012045F230423D
:10353000C5F602029142029038D0FFE70898016870
:10354000012045F24442C5F60202914202902DD07C
:10355000FFE708980168012045F25842C5F60202CB
:103560009142029022D0FFE708980168012045F2BD
:103570006C42C5F602029142029017D0FFE708980C
:103580000168012045F28042C5F602029142029094
:103590000CD0FFE7089800684AF66C31CAF2FD715A
:1035A0000844B0FA80F040090290FFE70298C00793
:1035B00038B1FFE70898016E086820F48070086051
:1035C000FFE7089800681021C4F20201884200F069
:1035D0008180FFE7089800682821C4F20201884230
:1035E00078D0FFE7089800684021C4F202018842C1
:1035F00070D0FFE7089800685821C4F202018842A1
:1036000068D0FFE7089800687021C4F20201884280
:1036100060D0FFE7089800688821C4F20201884260
:1036200058D0FFE708980068A021C4F20201884240
:1036300050D0FFE708980068B821C4F20201884220
:1036400048D0FFE70898006840F21041C4F2020138
:1036500088423FD0FFE70898006840F22841C4F252
:103660000201884236D0FFE70898006840F24041E6
:10367000C4F2020188422DD0FFE70898006840F2AA
:103680005841C4F20201884224D0FFE7089800683C
:1036900040F27041C4F2020188421BD0FFE7089853
:1036A000006840F28841C4F20201884212D0FFE76C
:1036B0000898006840F2A041C4F20201884209D093
:1036C000FFE70898006840F2B841C4F2020188425E
:1036D00007D1FFE708980168086820F0010008603A
:1036E00006E008980168086820F001000860FFE71C
:1036F000FFE705980068C007C8B1FFE704F030FC99
:103700000499401A062811D3FFE70899202048653C
:103710000899032081F83500FFE70899002081F817
:103720003400FFE701208DF82700FDE1E1E708986C
:10373000016801201022C4F202029142019000F0BF
:10374000A380FFE70898016801202822C4F2020242
:103750009142019000F09880FFE7089801680120ED
:103760004022C4F202029142019000F08D80FFE7F6
:103770000898016801205822C4F202029142019087
:1037800000F08280FFE70898016801207022C4F2EF
:1037900002029142019077D0FFE70898016801206A
:1037A0008822C4F20202914201906DD0FFE708988E
:1037B00001680120A022C4F202029142019063D06C
:1037C000FFE7089801680120B822C4F20202914282
:1037D000019059D0FFE708980168012040F210429B
:1037E000C4F20202914201904ED0FFE708980168AE
:1037F000012040F22842C4F202029142019043D0DB
:10380000FFE708980168012040F24042C4F202023A
:103810009142019038D0FFE708980168012040F2FA
:103820005842C4F20202914201902DD0FFE708985D
:103830000168012040F27042C4F2020291420190FC
:1038400022D0FFE708980168012040F28842C4F2C4
:1038500002029142019017D0FFE708980168012009
:1038600040F2A042C4F20202914201900CD0FFE764
:10387000089800684FF64831CBF6FD710844B0FA5D
:1038800080F040090190FFE70198C00760B1FFE7B1
:103890000898806D07900898C06D00F01F013F20C8
:1038A0008840079988600BE00898806D069008981A
:1038B000C06D00F01F010120884006994860FFE7B5
:1038C0000898016801201022C4F20202914200907F
:1038D00000F00381FFE70898016801202822C4F264
:1038E00002029142009000F0F880FFE7089801681A
:1038F00001204022C4F202029142009000F0ED80CB
:10390000FFE70898016801205822C4F202029142A0
:10391000009000F0E280FFE7089801680120702223
:10392000C4F202029142009000F0D780FFE70898AD
:10393000016801208822C4F202029142009000F046
:10394000CC80FFE7089801680120A022C4F202029F
:103950009142009000F0C180FFE7089801680120C3
:10396000B822C4F202029142009000F0B680FFE754
:1039700008980168012040F21042C4F2020291420C
:10398000009000F0AA80FFE708980168012040F24B
:103990002842C4F202029142009000F09E80FFE7AC
:1039A00008980168012040F24042C4F202029142AC
:1039B000009000F09280FFE708980168012040F233
:1039C0005842C4F202029142009000F08680FFE764
:1039D00008980168012040F27042C4F2020291424C
:1039E00000907AD0FFE708980168012040F28842F1
:1039F000C4F20202914200906FD0FFE7089801687C
:103A0000012040F2A042C4F202029142009064D030
:103A1000FFE708980168012040F2B842C4F20202B0
:103A20009142009059D0FFE708980168012045F2C3
:103A30000842C5F60202914200904ED0FFE7089876
:103A40000168012045F21C42C5F602029142009035
:103A500043D0FFE708980168012045F23042C5F6DF
:103A600002029142009038D0FFE7089801680120D7
:103A700045F24442C5F60202914200902DD0FFE784
:103A800008980168012045F25842C5F602029142A9
:103A9000009022D0FFE708980168012045F26C42AF
:103AA000C5F602029142009017D0FFE7089801681E
:103AB000012045F28042C5F60202914200900CD0EE
:103AC000FFE7089800684AF66C31CAF2FD710844B5
:103AD000B0FA80F040090090FFE70098C007A0B15D
:103AE000FFE70898416E806E48600898C06E58B134
:103AF000FFE70898C16E086820F480700860089895
:103B0000016F406F4860FFE7FFE70899012081F8E7
:103B10003500FFE70899002081F83400FFE7FFE750
:103B200000208DF82700FFE79DF827000AB080BD30
:103B300080B586B00490049820B9FFE701208DF885
:103B4000170046E3049890F83500022807D0FFE7F5
:103B500004998020486501208DF8170039E3049806
:103B6000016801201022C4F202029142029000F08A
:103B7000A380FFE70498016801202822C4F2020212
:103B80009142029000F09880FFE7049801680120BC
:103B90004022C4F202029142029000F08D80FFE7C1
:103BA0000498016801205822C4F202029142029056
:103BB00000F08280FFE70498016801207022C4F2BF
:103BC00002029142029077D0FFE704980168012039
:103BD0008822C4F20202914202906DD0FFE704985D
:103BE00001680120A022C4F202029142029063D037
:103BF000FFE7049801680120B822C4F20202914252
:103C0000029059D0FFE704980168012040F2104269
:103C1000C4F20202914202904ED0FFE7049801687C
:103C2000012040F22842C4F202029142029043D0A5
:103C3000FFE704980168012040F24042C4F202020A
:103C40009142029038D0FFE704980168012040F2C9
:103C50005842C4F20202914202902DD0FFE704982C
:103C60000168012040F27042C4F2020291420290C7
:103C700022D0FFE704980168012040F28842C4F294
:103C800002029142029017D0FFE7049801680120D8
:103C900040F2A042C4F20202914202900CD0FFE72F
:103CA000049800684FF64831CBF6FD710844B0FA2D
:103CB00080F040090290FFE70298C007002800F05A
:103CC0009D80FFE70499042081F83500049800687E
:103CD0001021C4F20201884200F08180FFE70498BD
:103CE00000682821C4F20201884278D0FFE70498D6
:103CF00000684021C4F20201884270D0FFE70498B6
:103D000000685821C4F20201884268D0FFE7049895
:103D100000687021C4F20201884260D0FFE7049875
:103D200000688821C4F20201884258D0FFE7049855
:103D30000068A021C4F20201884250D0FFE7049835
:103D40000068B821C4F20201884248D0FFE7049815
:103D5000006840F21041C4F2020188423FD0FFE700
:103D60000498006840F22841C4F20201884236D02B
:103D7000FFE70498006840F24041C4F20201884223
:103D80002DD0FFE70498006840F25841C4F20201C8
:103D9000884224D0FFE70498006840F27041C4F2E2
:103DA000020188421BD0FFE70498006840F2884176
:103DB000C4F20201884212D0FFE70498006840F282
:103DC000A041C4F20201884209D0FFE704980068CC
:103DD00040F2B841C4F20201884207D1FFE70498DB
:103DE0000168086820F00100086006E00498016896
:103DF000086820F001000860FFE7E5E10498016829
:103E0000086820F00E000860049800681021C4F2D1
:103E10000201884200F08180FFE7049800682821B1
:103E2000C4F20201884278D0FFE70498006840217C
:103E3000C4F20201884270D0FFE70498006858215C
:103E4000C4F20201884268D0FFE70498006870213C
:103E5000C4F20201884260D0FFE70498006888211C
:103E6000C4F20201884258D0FFE704980068A021FC
:103E7000C4F20201884250D0FFE704980068B821DC
:103E8000C4F20201884248D0FFE70498006840F27B
:103E90001041C4F2020188423FD0FFE70498006855
:103EA00040F22841C4F20201884236D0FFE704986C
:103EB000006840F24041C4F2020188422DD0FFE781
:103EC0000498006840F25841C4F20201884224D0AC
:103ED000FFE70498006840F27041C4F20201884292
:103EE0001BD0FFE70498006840F28841C4F2020149
:103EF000884212D0FFE70498006840F2A041C4F263
:103F00000201884209D0FFE70498006840F2B841F6
:103F1000C4F20201884207D1FFE7049801680868EB
:103F200020F00100086006E004980168086820F0AD
:103F300001000860FFE70498016801201022C4F224
:103F400002029142019000F00381FFE704980168AA
:103F500001202822C4F202029142019000F0F88070
:103F6000FFE70498016801204022C4F20202914256
:103F7000019000F0ED80FFE70498016801205822CD
:103F8000C4F202029142019000F0E280FFE704983F
:103F9000016801207022C4F202029142019000F0F7
:103FA000D780FFE70498016801208822C4F202024A
:103FB0009142019000F0CC80FFE704980168012055
:103FC000A022C4F202029142019000F0C180FFE7FA
:103FD000049801680120B822C4F2020291420190C3
:103FE00000F0B680FFE704980168012040F210421B
:103FF000C4F202029142019000F0AA80FFE7049807
:104000000168012040F22842C4F20202914201906C
:1040100000F09E80FFE704980168012040F24042D2
:10402000C4F202029142019000F09280FFE70498EE
:104030000168012040F25842C4F20202914201900C
:1040400000F08680FFE704980168012040F270428A
:10405000C4F20202914201907AD0FFE7049801680D
:10406000012040F28842C4F20202914201906FD0D6
:10407000FFE704980168012040F2A042C4F2020266
:104080009142019064D0FFE704980168012040F25A
:10409000B842C4F202029142019059D0FFE704985D
:1040A0000168012045F20842C5F6020291420190E2
:1040B0004ED0FFE704980168012045F21C42C5F686
:1040C00002029142019043D0FFE704980168012069
:1040D00045F23042C5F602029142019038D0FFE726
:1040E00004980168012045F24442C5F6020291425B
:1040F00001902DD0FFE704980168012045F2584255
:10410000C5F602029142019022D0FFE704980168AF
:10411000012045F26C42C5F602029142019017D08F
:10412000FFE704980168012045F28042C5F60202CB
:10413000914201900CD0FFE7049800684AF66C3178
:10414000CAF2FD710844B0FA80F040090190FFE71F
:104150000198C00728B3FFE70498016E086820F4AF
:10416000807008600498806D03900498C06D00F022
:104170001F0101208840039948600498416E806EB9
:1041800048600498C06E58B1FFE70498C16E086893
:1041900020F4807008600498016F406F4860FFE76A
:1041A000FFE70499012081F83500FFE7049900201A
:1041B00081F83400FFE70498006D20B1FFE7049810
:1041C000016D8847FFE7FFE7FFE700208DF8170044
:1041D000FFE79DF8170006B080BD0000000000005A
:1041E00081B000900098406D01B070470000000061
:1041F00080B590B00F9000200B9042F2C400C2F244
:104200000000006848F2B511C1F64E31A0FB011064
:10421000800A0A900F98806D09900F98806D089021
:10422000099800680E90089800680D900F98016832
:1042300001201022C4F202029142079000F0A380F4
:10424000FFE70F98016801202822C4F20202914280
:10425000079000F09880FFE70F9801680120402246
:10426000C4F202029142079000F08D80FFE70F98A0
:10427000016801205822C4F202029142079000F026
:104280008280FFE70F98016801207022C4F20202C9
:104290009142079077D0FFE70F98016801208822AC
:1042A000C4F20202914207906DD0FFE70F980168B7
:1042B0000120A022C4F202029142079063D0FFE7DE
:1042C0000F9801680120B822C4F2020291420790BF
:1042D00059D0FFE70F980168012040F21042C4F264
:1042E0000202914207904ED0FFE70F98016801202B
:1042F00040F22842C4F202029142079043D0FFE705
:104300000F980168012040F24042C4F2020291423B
:10431000079038D0FFE70F980168012040F258421B
:10432000C4F20202914207902DD0FFE70F98016876
:10433000012040F27042C4F202029142079022D062
:10434000FFE70F980168012040F28842C4F20202A0
:104350009142079017D0FFE70F980168012040F2C3
:10436000A042C4F20202914207900CD0FFE70F98DE
:1043700000684FF64831CBF6FD710844B0FA80F082
:1043800040090790FFE70798C007002800F0138551
:10439000FFE70E980F99C96D01F01F01C840000793
:1043A000002840F1B080FFE70F9800681021C4F2A8
:1043B0000201884200F08180FFE70F980068282101
:1043C000C4F20201884278D0FFE70F9800684021CC
:1043D000C4F20201884270D0FFE70F9800685821AC
:1043E000C4F20201884268D0FFE70F98006870218C
:1043F000C4F20201884260D0FFE70F98006888216C
:10440000C4F20201884258D0FFE70F980068A0214B
:10441000C4F20201884250D0FFE70F980068B8212B
:10442000C4F20201884248D0FFE70F98006840F2CA
:104430001041C4F2020188423FD0FFE70F980068A4
:1044400040F22841C4F20201884236D0FFE70F98BB
:10445000006840F24041C4F2020188422DD0FFE7DB
:104460000F98006840F25841C4F20201884224D0FB
:10447000FFE70F98006840F27041C4F202018842E1
:104480001BD0FFE70F98006840F28841C4F2020198
:10449000884212D0FFE70F98006840F2A041C4F2B2
:1044A0000201884209D0FFE70F98006840F2B84146
:1044B000C4F20201884207D1FFE70F980068006844
:1044C00000F00400069006E00F980068006800F015
:1044D00008000690FFE70698A0B1FFE70F98016873
:1044E000086820F0040008600F98C06D00F01F01FC
:1044F00008208840099988600F99486D40F00100B4
:104500004865FFE7FFE70E980F99C96D01F01F019D
:10451000C840C007002800F0A980FFE70F98006896
:104520001021C4F20201884200F08180FFE70F9859
:1045300000682821C4F20201884278D0FFE70F9872
:1045400000684021C4F20201884270D0FFE70F9852
:1045500000685821C4F20201884268D0FFE70F9832
:1045600000687021C4F20201884260D0FFE70F9812
:1045700000688821C4F20201884258D0FFE70F98F2
:104580000068A021C4F20201884250D0FFE70F98D2
:104590000068B821C4F20201884248D0FFE70F98B2
:1045A000006840F21041C4F2020188423FD0FFE7A8
:1045B0000F98006840F22841C4F20201884236D0C8
:1045C000FFE70F98006840F24041C4F202018842C0
:1045D0002DD0FFE70F98006840F25841C4F2020165
:1045E000884224D0FFE70F98006840F27041C4F27F
:1045F000020188421BD0FFE70F98006840F2884113
:10460000C4F20201884212D0FFE70F98006840F21E
:10461000A041C4F20201884209D0FFE70F98006868
:1046200040F2B841C4F20201884207D1FFE70F9877
:104630000068406900F08000059005E00F98006870
:10464000006800200590FFE7059870B1FFE70F981C
:10465000C06D00F01F0101208840099988600F9902
:10466000486D40F002004865FFE7FFE70E980F999C
:10467000C96D01F01F01C8404007002840F1A98022
:10468000FFE70F9800681021C4F20201884200F091
:104690008180FFE70F9800682821C4F20201884258
:1046A00078D0FFE70F9800684021C4F202018842E9
:1046B00070D0FFE70F9800685821C4F202018842C9
:1046C00068D0FFE70F9800687021C4F202018842A9
:1046D00060D0FFE70F9800688821C4F20201884289
:1046E00058D0FFE70F980068A021C4F20201884269
:1046F00050D0FFE70F980068B821C4F20201884249
:1047000048D0FFE70F98006840F21041C4F2020160
:1047100088423FD0FFE70F98006840F22841C4F27A
:104720000201884236D0FFE70F98006840F240410E
:10473000C4F2020188422DD0FFE70F98006840F2D2
:104740005841C4F20201884224D0FFE70F98006864
:1047500040F27041C4F2020188421BD0FFE70F987B
:10476000006840F28841C4F20201884212D0FFE79B
:104770000F98006840F2A041C4F20201884209D0BB
:10478000FFE70F98006840F2B841C4F20201884286
:1047900007D1FFE70F980068006800F0020004905E
:1047A00005E00F980068006800200490FFE7049877
:1047B00070B1FFE70F98C06D00F01F010420884022
:1047C000099988600F99486D40F004004865FFE73B
:1047D000FFE70E980F99C96D01F01F01C840C00690
:1047E000002840F1DE80FFE70F9800681021C4F236
:1047F0000201884200F08180FFE70F9800682821BD
:10480000C4F20201884278D0FFE70F980068402187
:10481000C4F20201884270D0FFE70F980068582167
:10482000C4F20201884268D0FFE70F980068702147
:10483000C4F20201884260D0FFE70F980068882127
:10484000C4F20201884258D0FFE70F980068A02107
:10485000C4F20201884250D0FFE70F980068B821E7
:10486000C4F20201884248D0FFE70F98006840F286
:104870001041C4F2020188423FD0FFE70F98006860
:1048800040F22841C4F20201884236D0FFE70F9877
:10489000006840F24041C4F2020188422DD0FFE797
:1048A0000F98006840F25841C4F20201884224D0B7
:1048B000FFE70F98006840F27041C4F2020188429D
:1048C0001BD0FFE70F98006840F28841C4F2020154
:1048D000884212D0FFE70F98006840F2A041C4F26E
:1048E0000201884209D0FFE70F98006840F2B84102
:1048F000C4F20201884207D1FFE70F980068006800
:1049000000F00800039006E00F980068006800F0CF
:1049100004000390FFE70398002841D0FFE70F98B9
:10492000C06D00F01F0110208840099988600F9821
:1049300000680068400300281AD5FFE70F98006858
:1049400000680003002809D4FFE70F98006C20B12D
:10495000FFE70F98016C8847FFE708E00F98806C2D
:1049600020B1FFE70F98816C8847FFE7FFE716E06B
:104970000F9800680068C005002807D4FFE70F986B
:104980000168086820F008000860FFE70F98006CD5
:1049900020B1FFE70F98016C8847FFE7FFE7FFE7CB
:1049A000FFE70E980F99C96D01F01F01C8408006FE
:1049B000002840F12681FFE70F9800681021C4F21B
:1049C0000201884200F08180FFE70F9800682821EB
:1049D000C4F20201884278D0FFE70F9800684021B6
:1049E000C4F20201884270D0FFE70F980068582196
:1049F000C4F20201884268D0FFE70F980068702176
:104A0000C4F20201884260D0FFE70F980068882155
:104A1000C4F20201884258D0FFE70F980068A02135
:104A2000C4F20201884250D0FFE70F980068B82115
:104A3000C4F20201884248D0FFE70F98006840F2B4
:104A40001041C4F2020188423FD0FFE70F9800688E
:104A500040F22841C4F20201884236D0FFE70F98A5
:104A6000006840F24041C4F2020188422DD0FFE7C5
:104A70000F98006840F25841C4F20201884224D0E5
:104A8000FFE70F98006840F27041C4F202018842CB
:104A90001BD0FFE70F98006840F28841C4F2020182
:104AA000884212D0FFE70F98006840F2A041C4F29C
:104AB0000201884209D0FFE70F98006840F2B84130
:104AC000C4F20201884207D1FFE70F98006800682E
:104AD00000F01000029006E00F980068006800F0F7
:104AE00002000290FFE70298002800F08980FFE7AB
:104AF0000F98C06D00F01F01202088400999886040
:104B00000F9890F83500042837D1FFE70F98016817
:104B1000086820F0160008600F980168486920F0C6
:104B2000800048610F98006C20B9FFE70F98806CF7
:104B300038B1FFE70F980168086820F008000860A6
:104B4000FFE70F98C06D00F01F013F2088400999D2
:104B500088600F99012081F83500FFE70F99002048
:104B600081F83400FFE70F98006D20B1FFE70F9840
:104B7000016D8847FFE700F019BC0F9800680068D6
:104B8000400300281AD5FFE70F980068006800036B
:104B9000002809D4FFE70F98406C20B1FFE70F9879
:104BA000416C8847FFE708E00F98C06B20B1FFE732
:104BB0000F98C16B8847FFE7FFE720E00F98006878
:104BC0000068C005002811D4FFE70F980168086845
:104BD00020F0100008600F99012081F83500FFE7F0
:104BE0000F99002081F83400FFE7FFE70F98C06BB2
:104BF00020B1FFE70F98C16B8847FFE7FFE7FFE7AA
:104C0000FFE70F98406D002800F0D480FFE70F9871
:104C1000406DC007002800F0C480FFE70F99042012
:104C200081F835000F9800681021C4F20201884213
:104C300000F08180FFE70F9800682821C4F202018C
:104C4000884278D0FFE70F9800684021C4F2020143
:104C5000884270D0FFE70F9800685821C4F2020123
:104C6000884268D0FFE70F9800687021C4F2020103
:104C7000884260D0FFE70F9800688821C4F20201E3
:104C8000884258D0FFE70F980068A021C4F20201C3
:104C9000884250D0FFE70F980068B821C4F20201A3
:104CA000884248D0FFE70F98006840F21041C4F2F4
:104CB000020188423FD0FFE70F98006840F2284188
:104CC000C4F20201884236D0FFE70F98006840F234
:104CD0004041C4F2020188422DD0FFE70F980068DE
:104CE00040F25841C4F20201884224D0FFE70F98F5
:104CF000006840F27041C4F2020188421BD0FFE715
:104D00000F98006840F28841C4F20201884212D034
:104D1000FFE70F98006840F2A041C4F20201884208
:104D200009D0FFE70F98006840F2B841C4F20201D1
:104D3000884207D1FFE70F980168086820F001005A
:104D4000086006E00F980168086820F0010008601C
:104D5000FFE7FFE70B9801300B900A99884201D9D1
:104D6000FFE707E0FFE70F9800680068C00700282A
:104D7000F0D1FFE70F9800680068C00728B1FFE78F
:104D80000F99032081F8350004E00F99012081F884
:104D90003500FFE7FFE70F99002081F83400FFE7B7
:104DA000FFE70F98C06C20B1FFE70F98C16C8847F0
:104DB000FFE7FFE7FAE20F980168012045F2084299
:104DC000C5F60202914201904ED0FFE70F980168AC
:104DD000012045F21C42C5F602029142019043D0E7
:104DE000FFE70F980168012045F23042C5F6020244
:104DF0009142019038D0FFE70F980168012045F2F9
:104E00004442C5F60202914201902DD0FFE70F986F
:104E10000168012045F25842C5F602029142019014
:104E200022D0FFE70F980168012045F26C42C5F6D9
:104E300002029142019017D0FFE70F98016801200C
:104E400045F28042C5F60202914201900CD0FFE784
:104E50000F9800684AF66C31CAF2FD710844B0FA46
:104E600080F040090190FFE70198C007002800F09A
:104E70009B82FFE70F98006800680C900D980F99CF
:104E8000C96D01F01F01C8404007002840F1D780DC
:104E9000FFE79DF830004007002840F1D080FFE791
:104EA0000F98C06D00F01F010420884008994860E9
:104EB0009DF831000006002818D5FFE79DF8320064
:104EC000C00748B9FFE70F98806C20B1FFE70F9843
:104ED000816C8847FFE708E00F98006C20B1FFE77E
:104EE0000F98016C8847FFE7FFE7A7E09DF83000C7
:104EF0008006002800F19980FFE70F9800681021D4
:104F0000C4F20201884200F08180FFE70F98006838
:104F10002821C4F20201884278D0FFE70F98006888
:104F20004021C4F20201884270D0FFE70F98006868
:104F30005821C4F20201884268D0FFE70F98006848
:104F40007021C4F20201884260D0FFE70F98006828
:104F50008821C4F20201884258D0FFE70F98006808
:104F6000A021C4F20201884250D0FFE70F980068E8
:104F7000B821C4F20201884248D0FFE70F980068C8
:104F800040F21041C4F2020188423FD0FFE70F987F
:104F9000006840F22841C4F20201884236D0FFE79F
:104FA0000F98006840F24041C4F2020188422DD0BF
:104FB000FFE70F98006840F25841C4F202018842AE
:104FC00024D0FFE70F98006840F27041C4F202015C
:104FD00088421BD0FFE70F98006840F28841C4F276
:104FE0000201884212D0FFE70F98006840F2A0410A
:104FF000C4F20201884209D0FFE70F98006840F22E
:10500000B841C4F20201884207D1FFE70F98016856
:10501000086820F00800086006E00F98016808683A
:1050200020F004000860FFE7FFE70F98006C20B154
:10503000FFE70F98016C8847FFE7FFE7B3E10D98A2
:105040000F99C96D01F01F01C8408007002840F189
:10505000E180FFE79DF830008007002840F1DA800A
:10506000FFE70F98C06D00F01F01022088400899EB
:1050700048609DF831000006002818D5FFE79DF82C
:105080003200C00748B9FFE70F98406C20B1FFE736
:105090000F98416C8847FFE708E00F98C06B20B17C
:1050A000FFE70F98C16B8847FFE7FFE7B1E09DF886
:1050B00030008006002800F1A380FFE70F98006809
:1050C0001021C4F20201884200F08180FFE70F98AE
:1050D00000682821C4F20201884278D0FFE70F98C7
:1050E00000684021C4F20201884270D0FFE70F98A7
:1050F00000685821C4F20201884268D0FFE70F9887
:1051000000687021C4F20201884260D0FFE70F9866
:1051100000688821C4F20201884258D0FFE70F9846
:105120000068A021C4F20201884250D0FFE70F9826
:105130000068B821C4F20201884248D0FFE70F9806
:10514000006840F21041C4F2020188423FD0FFE7FC
:105150000F98006840F22841C4F20201884236D01C
:10516000FFE70F98006840F24041C4F20201884214
:105170002DD0FFE70F98006840F25841C4F20201B9
:10518000884224D0FFE70F98006840F27041C4F2D3
:10519000020188421BD0FFE70F98006840F2884167
:1051A000C4F20201884212D0FFE70F98006840F273
:1051B000A041C4F20201884209D0FFE70F980068BD
:1051C00040F2B841C4F20201884207D1FFE70F98CC
:1051D0000168086820F01400086006E00F98016874
:1051E000086820F00A000860FFE70F99012081F8A5
:1051F0003500FFE70F99002081F83400FFE7FFE753
:105200000F98C06B20B1FFE70F98C16B8847FFE78D
:10521000FFE7C7E00D980F99C96D01F01F01C84065
:105220000007002840F1BC80FFE79DF83000000730
:10523000002840F1B580FFE70F9800681021C4F204
:105240000201884200F08180FFE70F980068282162
:10525000C4F20201884278D0FFE70F98006840212D
:10526000C4F20201884270D0FFE70F98006858210D
:10527000C4F20201884268D0FFE70F9800687021ED
:10528000C4F20201884260D0FFE70F9800688821CD
:10529000C4F20201884258D0FFE70F980068A021AD
:1052A000C4F20201884250D0FFE70F980068B8218D
:1052B000C4F20201884248D0FFE70F98006840F22C
:1052C0001041C4F2020188423FD0FFE70F98006806
:1052D00040F22841C4F20201884236D0FFE70F981D
:1052E000006840F24041C4F2020188422DD0FFE73D
:1052F0000F98006840F25841C4F20201884224D05D
:10530000FFE70F98006840F27041C4F20201884242
:105310001BD0FFE70F98006840F28841C4F20201F9
:10532000884212D0FFE70F98006840F2A041C4F213
:105330000201884209D0FFE70F98006840F2B841A7
:10534000C4F20201884207D1FFE70F98016808689C
:1053500020F01C00086006E00F980168086820F043
:105360000E000860FFE70F98C06D00F01F010120DC
:1053700000FA01F1089A51600F9948650F9981F878
:105380003500FFE70F99002081F83400FFE70F9800
:10539000C06C20B1FFE70F98C16C8847FFE700E0C1
:1053A000FFE7FFE7FFE700E0FFE7FFE710B080BDA2
:1053B00010B58EB00C9002F0D3FD0A900C9828B96D
:1053C000FFE701208DF8370000F09EBC0C980168C3
:1053D00001201022C4F202029142079000F0A38043
:1053E000FFE70C98016801202822C4F202029142D2
:1053F000079000F09880FFE70C9801680120402298
:10540000C4F202029142079000F08D80FFE70C98F1
:10541000016801205822C4F202029142079000F074
:105420008280FFE70C98016801207022C4F202021A
:105430009142079077D0FFE70C98016801208822FD
:10544000C4F20202914207906DD0FFE70C98016808
:105450000120A022C4F202029142079063D0FFE72C
:105460000C9801680120B822C4F202029142079010
:1054700059D0FFE70C980168012040F21042C4F2B5
:105480000202914207904ED0FFE70C98016801207C
:1054900040F22842C4F202029142079043D0FFE753
:1054A0000C980168012040F24042C4F2020291428D
:1054B000079038D0FFE70C980168012040F258426D
:1054C000C4F20202914207902DD0FFE70C980168C8
:1054D000012040F27042C4F202029142079022D0B1
:1054E000FFE70C980168012040F28842C4F20202F2
:1054F0009142079017D0FFE70C980168012040F215
:10550000A042C4F20202914207900CD0FFE70C982F
:1055100000684FF64831CBF6FD710844B0FA80F0D0
:1055200040090790FFE70798C007002800F078813E
:10553000FFE70C98406A08B1FFE7FFE70C990220EB
:1055400081F83500FFE70C99002081F83400FFE76F
:105550000C9800681021C4F20201884200F081809A
:10556000FFE70C9800682821C4F20201884278D035
:10557000FFE70C9800684021C4F20201884270D015
:10558000FFE70C9800685821C4F20201884268D0F5
:10559000FFE70C9800687021C4F20201884260D0D5
:1055A000FFE70C9800688821C4F20201884258D0B5
:1055B000FFE70C980068A021C4F20201884250D095
:1055C000FFE70C980068B821C4F20201884248D075
:1055D000FFE70C98006840F21041C4F202018842D3
:1055E0003FD0FFE70C98006840F22841C4F2020166
:1055F000884236D0FFE70C98006840F24041C4F280
:10560000020188422DD0FFE70C98006840F2584113
:10561000C4F20201884224D0FFE70C98006840F2EF
:105620007041C4F2020188421BD0FFE70C98006869
:1056300040F28841C4F20201884212D0FFE70C9880
:10564000006840F2A041C4F20201884209D0FFE79D
:105650000C98006840F2B841C4F20201884207D1B8
:10566000FFE70C980168086820F00100086006E078
:105670000C980168086820F001000860FFE7FFE768
:105680000C9800680068C00798B1FFE702F068FC5A
:105690000A99401A06280BD3FFE70C992020486589
:1056A0000C99032081F8350001208DF837002BE399
:1056B000E6E70C98006800680B900B9848F23F01F1
:1056C000CFF6106108400B900C998868D1F80CC097
:1056D0000B694A6940EA0C00184310438A69104379
:1056E000CA691043096A01430B9808430B900C9850
:1056F000406A042808D1FFE70C99C86A096B014386
:105700000B9808430B90FFE70C984068292807D3B3
:10571000FFE70C98416801202F29069036D3FFE758
:105720000C9840683F2807D3FFE70C984168012098
:10573000432906902AD3FFE70C984068472807D3EF
:10574000FFE70C9841680120492906901ED3FFE726
:105750000C9840684F2807D3FFE70C984168012058
:105760005329069012D3FFE70C9841680020742952
:10577000059008D3FFE70C9841680020782938BFCE
:1057800001200590FFE705980690FFE70698C007FF
:1057900028B1FFE70B9840F480100B90FFE70B98BF
:1057A0000C99096808600C98006840690B900B9888
:1057B00020F007000B900C98416A0B9808430B905F
:1057C0000C98406A04281AD1FFE70C98816A0B985C
:1057D00008430B900C98C06A80B1FFE70C98FBF768
:1057E00007FF50B1FFE70C99402048650C99012054
:1057F00081F835008DF8370086E2FFE7FFE70B9868
:105800000C99096848610C98FBF7B6FC09900C9854
:10581000C06D00F01F013F2088400999886026E193
:105820000C980168012045F20842C5F60202914237
:1058300004904ED0FFE70C980168012045F21C420D
:10584000C5F602029142049043D0FFE70C9801682C
:10585000012045F23042C5F602029142049038D050
:10586000FFE70C980168012045F24442C5F60202A8
:10587000914204902DD0FFE70C980168012045F279
:105880005842C5F602029142049022D0FFE70C98DC
:105890000168012045F26C42C5F602029142049073
:1058A00017D0FFE70C980168012045F28042C5F649
:1058B0000202914204900CD0FFE70C9800684AF66F
:1058C0006C31CAF2FD710844B0FA80F040090490CE
:1058D000FFE70498C007002800F0BD80FFE70C98A0
:1058E0000168012045F20842C5F602029142039088
:1058F0004ED0FFE70C980168012045F21C42C5F626
:1059000002029142039043D0FFE70C980168012006
:1059100045F23042C5F602029142039038D0FFE7CB
:105920000C980168012045F24442C5F602029142FA
:1059300003902DD0FFE70C980168012045F25842F2
:10594000C5F602029142039022D0FFE70C9801684D
:10595000012045F26C42C5F602029142039017D035
:10596000FFE70C980168012045F28042C5F602026B
:10597000914203900CD0FFE70C9800684AF66C3116
:10598000CAF2FD710844B0FA80F040090390FFE7C5
:105990000398C00708B1FFE7FFE70C99022081F8E0
:1059A0003500FFE70C99002081F83400FFE70C98E0
:1059B000006800680B900B986FF310100B900C9818
:1059C0008068402803D1FFE71020029008E00C987F
:1059D00080688038B0FA80F0400980030290FFE7C9
:1059E00002980C99CA680B69D1F814C0D1F818E074
:1059F000CC694EEA040E4CEA0E0C43EA0C031A433F
:105A000040EAD200096A40EA11110B9808430B9052
:105A10000B980C99096808600C9908684AF6F832E6
:105A2000CAF2FD7210444CF6CD42CCF6CC42A0FB3B
:105A300002026FF0030000EA9200C8650C98FBF7C1
:105A40009BFB08900C98C06D00F01F01012088405E
:105A5000089948600AE00C99402048650C99032099
:105A600081F8350001208DF837004DE1FFE70C98F3
:105A7000016801201022C4F202029142019000F05C
:105A80000381FFE70C98016801202822C4F202027A
:105A90009142019000F0F880FFE70C980168012026
:105AA0004022C4F202029142019000F0ED80FFE733
:105AB0000C98016801205822C4F202029142019020
:105AC00000F0E280FFE70C98016801207022C4F228
:105AD00002029142019000F0D780FFE70C98016824
